{"abi":[{"type":"constructor","inputs":[{"name":"_positionManager","type":"address","internalType":"address"},{"name":"_pool","type":"address","internalType":"address"},{"name":"_swapRouter","type":"address","internalType":"address"},{"name":"_strategy","type":"uint8","internalType":"enum MezRangeStrategy.StrategyType"},{"name":"_admin","type":"address","internalType":"address"}],"stateMutability":"nonpayable"},{"type":"function","name":"DEFAULT_ADMIN_ROLE","inputs":[],"outputs":[{"name":"","type":"bytes32","internalType":"bytes32"}],"stateMutability":"view"},{"type":"function","name":"EMERGENCY_ROLE","inputs":[],"outputs":[{"name":"","type":"bytes32","internalType":"bytes32"}],"stateMutability":"view"},{"type":"function","name":"KEEPER_ROLE","inputs":[],"outputs":[{"name":"","type":"bytes32","internalType":"bytes32"}],"stateMutability":"view"},{"type":"function","name":"STRATEGY_WIDTHS","inputs":[{"name":"","type":"uint256","internalType":"uint256"}],"outputs":[{"name":"","type":"uint24","internalType":"uint24"}],"stateMutability":"view"},{"type":"function","name":"VAULT_ROLE","inputs":[],"outputs":[{"name":"","type":"bytes32","internalType":"bytes32"}],"stateMutability":"view"},{"type":"function","name":"addLiquidity","inputs":[{"name":"amount0","type":"uint256","internalType":"uint256"},{"name":"amount1","type":"uint256","internalType":"uint256"}],"outputs":[{"name":"liquidity","type":"uint128","internalType":"uint128"}],"stateMutability":"nonpayable"},{"type":"function","name":"checkCompound","inputs":[{"name":"","type":"bytes","internalType":"bytes"}],"outputs":[{"name":"upkeepNeeded","type":"bool","internalType":"bool"},{"name":"performData","type":"bytes","internalType":"bytes"}],"stateMutability":"view"},{"type":"function","name":"checkUpkeep","inputs":[{"name":"","type":"bytes","internalType":"bytes"}],"outputs":[{"name":"upkeepNeeded","type":"bool","internalType":"bool"},{"name":"performData","type":"bytes","internalType":"bytes"}],"stateMutability":"view"},{"type":"function","name":"collectAndCompound","inputs":[],"outputs":[{"name":"fees0","type":"uint256","internalType":"uint256"},{"name":"fees1","type":"uint256","internalType":"uint256"}],"stateMutability":"nonpayable"},{"type":"function","name":"collectFees","inputs":[{"name":"recipient","type":"address","internalType":"address"}],"outputs":[{"name":"fees0","type":"uint256","internalType":"uint256"},{"name":"fees1","type":"uint256","internalType":"uint256"}],"stateMutability":"nonpayable"},{"type":"function","name":"currentTickLower","inputs":[],"outputs":[{"name":"","type":"int24","internalType":"int24"}],"stateMutability":"view"},{"type":"function","name":"currentTickUpper","inputs":[],"outputs":[{"name":"","type":"int24","internalType":"int24"}],"stateMutability":"view"},{"type":"function","name":"fee","inputs":[],"outputs":[{"name":"","type":"uint24","internalType":"uint24"}],"stateMutability":"view"},{"type":"function","name":"getRoleAdmin","inputs":[{"name":"role","type":"bytes32","internalType":"bytes32"}],"outputs":[{"name":"","type":"bytes32","internalType":"bytes32"}],"stateMutability":"view"},{"type":"function","name":"grantRole","inputs":[{"name":"role","type":"bytes32","internalType":"bytes32"},{"name":"account","type":"address","internalType":"address"}],"outputs":[],"stateMutability":"nonpayable"},{"type":"function","name":"hasRole","inputs":[{"name":"role","type":"bytes32","internalType":"bytes32"},{"name":"account","type":"address","internalType":"address"}],"outputs":[{"name":"","type":"bool","internalType":"bool"}],"stateMutability":"view"},{"type":"function","name":"lastRebalanceTimestamp","inputs":[],"outputs":[{"name":"","type":"uint256","internalType":"uint256"}],"stateMutability":"view"},{"type":"function","name":"minPoolAgeSecs","inputs":[],"outputs":[{"name":"","type":"uint32","internalType":"uint32"}],"stateMutability":"view"},{"type":"function","name":"onERC721Received","inputs":[{"name":"","type":"address","internalType":"address"},{"name":"","type":"address","internalType":"address"},{"name":"","type":"uint256","internalType":"uint256"},{"name":"","type":"bytes","internalType":"bytes"}],"outputs":[{"name":"","type":"bytes4","internalType":"bytes4"}],"stateMutability":"pure"},{"type":"function","name":"pause","inputs":[],"outputs":[],"stateMutability":"nonpayable"},{"type":"function","name":"paused","inputs":[],"outputs":[{"name":"","type":"bool","internalType":"bool"}],"stateMutability":"view"},{"type":"function","name":"performUpkeep","inputs":[{"name":"","type":"bytes","internalType":"bytes"}],"outputs":[],"stateMutability":"nonpayable"},{"type":"function","name":"pool","inputs":[],"outputs":[{"name":"","type":"address","internalType":"contract IUniswapV3Pool"}],"stateMutability":"view"},{"type":"function","name":"positionActive","inputs":[],"outputs":[{"name":"","type":"bool","internalType":"bool"}],"stateMutability":"view"},{"type":"function","name":"positionManager","inputs":[],"outputs":[{"name":"","type":"address","internalType":"contract INonfungiblePositionManager"}],"stateMutability":"view"},{"type":"function","name":"positionTokenId","inputs":[],"outputs":[{"name":"","type":"uint256","internalType":"uint256"}],"stateMutability":"view"},{"type":"function","name":"rebalance","inputs":[],"outputs":[],"stateMutability":"nonpayable"},{"type":"function","name":"rebalanceCount","inputs":[],"outputs":[{"name":"","type":"uint256","internalType":"uint256"}],"stateMutability":"view"},{"type":"function","name":"removeLiquidity","inputs":[{"name":"liquidity","type":"uint128","internalType":"uint128"},{"name":"recipient","type":"address","internalType":"address"}],"outputs":[{"name":"amount0","type":"uint256","internalType":"uint256"},{"name":"amount1","type":"uint256","internalType":"uint256"}],"stateMutability":"nonpayable"},{"type":"function","name":"removeLiquidityAsToken0","inputs":[{"name":"liquidity","type":"uint128","internalType":"uint128"},{"name":"recipient","type":"address","internalType":"address"}],"outputs":[{"name":"assetsOut","type":"uint256","internalType":"uint256"}],"stateMutability":"nonpayable"},{"type":"function","name":"renounceRole","inputs":[{"name":"role","type":"bytes32","internalType":"bytes32"},{"name":"callerConfirmation","type":"address","internalType":"address"}],"outputs":[],"stateMutability":"nonpayable"},{"type":"function","name":"rescueTokens","inputs":[{"name":"token","type":"address","internalType":"address"},{"name":"to","type":"address","internalType":"address"},{"name":"amount","type":"uint256","internalType":"uint256"}],"outputs":[],"stateMutability":"nonpayable"},{"type":"function","name":"revokeRole","inputs":[{"name":"role","type":"bytes32","internalType":"bytes32"},{"name":"account","type":"address","internalType":"address"}],"outputs":[],"stateMutability":"nonpayable"},{"type":"function","name":"setMinPoolAgeSecs","inputs":[{"name":"_secs","type":"uint32","internalType":"uint32"}],"outputs":[],"stateMutability":"nonpayable"},{"type":"function","name":"setSlippage","inputs":[{"name":"_bps","type":"uint256","internalType":"uint256"}],"outputs":[],"stateMutability":"nonpayable"},{"type":"function","name":"setStrategy","inputs":[{"name":"_strategy","type":"uint8","internalType":"enum MezRangeStrategy.StrategyType"}],"outputs":[],"stateMutability":"nonpayable"},{"type":"function","name":"setTwapSeconds","inputs":[{"name":"_seconds","type":"uint32","internalType":"uint32"}],"outputs":[],"stateMutability":"nonpayable"},{"type":"function","name":"shouldRebalance","inputs":[],"outputs":[{"name":"","type":"bool","internalType":"bool"}],"stateMutability":"view"},{"type":"function","name":"slippageBps","inputs":[],"outputs":[{"name":"","type":"uint256","internalType":"uint256"}],"stateMutability":"view"},{"type":"function","name":"strategy","inputs":[],"outputs":[{"name":"","type":"uint8","internalType":"enum MezRangeStrategy.StrategyType"}],"stateMutability":"view"},{"type":"function","name":"supportsInterface","inputs":[{"name":"interfaceId","type":"bytes4","internalType":"bytes4"}],"outputs":[{"name":"","type":"bool","internalType":"bool"}],"stateMutability":"view"},{"type":"function","name":"swapRouter","inputs":[],"outputs":[{"name":"","type":"address","internalType":"contract IUniswapV3SwapRouter"}],"stateMutability":"view"},{"type":"function","name":"tickSpacing","inputs":[],"outputs":[{"name":"","type":"int24","internalType":"int24"}],"stateMutability":"view"},{"type":"function","name":"token0","inputs":[],"outputs":[{"name":"","type":"address","internalType":"contract IERC20"}],"stateMutability":"view"},{"type":"function","name":"token1","inputs":[],"outputs":[{"name":"","type":"address","internalType":"contract IERC20"}],"stateMutability":"view"},{"type":"function","name":"totalFeesCollected0","inputs":[],"outputs":[{"name":"","type":"uint256","internalType":"uint256"}],"stateMutability":"view"},{"type":"function","name":"totalFeesCollected1","inputs":[],"outputs":[{"name":"","type":"uint256","internalType":"uint256"}],"stateMutability":"view"},{"type":"function","name":"totalValue","inputs":[],"outputs":[{"name":"value0","type":"uint256","internalType":"uint256"}],"stateMutability":"view"},{"type":"function","name":"twapSeconds","inputs":[],"outputs":[{"name":"","type":"uint32","internalType":"uint32"}],"stateMutability":"view"},{"type":"function","name":"unpause","inputs":[],"outputs":[],"stateMutability":"nonpayable"},{"type":"event","name":"FeesCollected","inputs":[{"name":"amount0","type":"uint256","indexed":false,"internalType":"uint256"},{"name":"amount1","type":"uint256","indexed":false,"internalType":"uint256"}],"anonymous":false},{"type":"event","name":"Paused","inputs":[{"name":"account","type":"address","indexed":false,"internalType":"address"}],"anonymous":false},{"type":"event","name":"PositionClosed","inputs":[{"name":"tokenId","type":"uint256","indexed":true,"internalType":"uint256"},{"name":"amount0","type":"uint256","indexed":false,"internalType":"uint256"},{"name":"amount1","type":"uint256","indexed":false,"internalType":"uint256"}],"anonymous":false},{"type":"event","name":"PositionOpened","inputs":[{"name":"tokenId","type":"uint256","indexed":true,"internalType":"uint256"},{"name":"tickLower","type":"int24","indexed":false,"internalType":"int24"},{"name":"tickUpper","type":"int24","indexed":false,"internalType":"int24"},{"name":"liquidity","type":"uint128","indexed":false,"internalType":"uint128"}],"anonymous":false},{"type":"event","name":"Rebalanced","inputs":[{"name":"oldLower","type":"int24","indexed":false,"internalType":"int24"},{"name":"oldUpper","type":"int24","indexed":false,"internalType":"int24"},{"name":"newLower","type":"int24","indexed":false,"internalType":"int24"},{"name":"newUpper","type":"int24","indexed":false,"internalType":"int24"},{"name":"feesCollected0","type":"uint256","indexed":false,"internalType":"uint256"},{"name":"feesCollected1","type":"uint256","indexed":false,"internalType":"uint256"}],"anonymous":false},{"type":"event","name":"RoleAdminChanged","inputs":[{"name":"role","type":"bytes32","indexed":true,"internalType":"bytes32"},{"name":"previousAdminRole","type":"bytes32","indexed":true,"internalType":"bytes32"},{"name":"newAdminRole","type":"bytes32","indexed":true,"internalType":"bytes32"}],"anonymous":false},{"type":"event","name":"RoleGranted","inputs":[{"name":"role","type":"bytes32","indexed":true,"internalType":"bytes32"},{"name":"account","type":"address","indexed":true,"internalType":"address"},{"name":"sender","type":"address","indexed":true,"internalType":"address"}],"anonymous":false},{"type":"event","name":"RoleRevoked","inputs":[{"name":"role","type":"bytes32","indexed":true,"internalType":"bytes32"},{"name":"account","type":"address","indexed":true,"internalType":"address"},{"name":"sender","type":"address","indexed":true,"internalType":"address"}],"anonymous":false},{"type":"event","name":"SlippageUpdated","inputs":[{"name":"newSlippageBps","type":"uint256","indexed":false,"internalType":"uint256"}],"anonymous":false},{"type":"event","name":"StrategyChanged","inputs":[{"name":"newStrategy","type":"uint8","indexed":false,"internalType":"enum MezRangeStrategy.StrategyType"}],"anonymous":false},{"type":"event","name":"TokensSwappedForRebalance","inputs":[{"name":"amountIn","type":"uint256","indexed":false,"internalType":"uint256"},{"name":"amountOut","type":"uint256","indexed":false,"internalType":"uint256"},{"name":"zeroForOne","type":"bool","indexed":false,"internalType":"bool"}],"anonymous":false},{"type":"event","name":"Unpaused","inputs":[{"name":"account","type":"address","indexed":false,"internalType":"address"}],"anonymous":false},{"type":"error","name":"AccessControlBadConfirmation","inputs":[]},{"type":"error","name":"AccessControlUnauthorizedAccount","inputs":[{"name":"account","type":"address","internalType":"address"},{"name":"neededRole","type":"bytes32","internalType":"bytes32"}]},{"type":"error","name":"EnforcedPause","inputs":[]},{"type":"error","name":"ExpectedPause","inputs":[]},{"type":"error","name":"NoActivePosition","inputs":[]},{"type":"error","name":"NotInRange","inputs":[]},{"type":"error","name":"PositionAlreadyActive","inputs":[]},{"type":"error","name":"ReentrancyGuardReentrantCall","inputs":[]},{"type":"error","name":"SafeERC20FailedOperation","inputs":[{"name":"token","type":"address","internalType":"address"}]},{"type":"error","name":"SlippageExceeded","inputs":[]},{"type":"error","name":"ZeroLiquidity","inputs":[]}],"bytecode":{"object":"0x6101606040818152346200048f5760a08262004d08803803809162000025828562000493565b8339810103126200048f576200003b82620004b7565b6020916200004b838501620004b7565b9362000059828201620004b7565b94606082015193600392838610156200048f5760806200007a9101620004b7565b60017f9b779b17422d0df92223018b32b4d1fa46e071723d6817e2486d003becc55f008190558551919491606081016001600160401b038111828210176200047b57875261025881526107d08982015261177087820152905f92835b8181106200044f57505050600291909155506032600955600a80546001600160401b03191665012c0000012c1790556001600160a01b0390811660805290811660a081905295811660c0528251630dfe168160e01b8152958590879060049082905afa958615620003c1575f966200040e575b50806004961660e052848160a0511684519788809263d21220a760e01b82525afa958615620003c1575f96620003cb575b5084816004926101009816885260a0511684519283809263ddca3f4360e01b82525afa948515620003c1575f9562000373575b50506200020490620001ca62ffffff6101209680885216620004cc565b9361014094855267ff000000000000006004549160381b169067ff00000000000000191617600455620001fd8162000553565b50620005d1565b50519161467693846200067285396080518481816103ea015281816107c601528181610c870152818161145a015281816119fb01528181612fb1015281816135ad0152613685015260a05184818161075601528181610d1c0152818161197401528181611b820152818161215d015281816123a0015281816127cf015281816131b401526134d5015260c051848181610a3d01528181612ba10152612d8c015260e05184818161041a0152818161064d01528181610b9901528181610bfd01528181610cb701528181610df1015281816111e301528181611c3e0152818161281b01528181612b8001528181612e060152613065015251838181610445015281816106930152818161093c01528181610c4401528181610ce2015281816111310152818161283e01528181612bfa01528181612daf01526130b50152518281816105b401528181610e1e01528181612c2401528181612e30015261327601525181818161098201526122cb0152f35b81819693963d8311620003b9575b6200038d818362000493565b81010312620003b557519062ffffff82168203620003b2575092620002045f620001ad565b80fd5b5080fd5b503d62000381565b83513d5f823e3d90fd5b90958582813d831162000406575b620003e5818362000493565b81010312620003b2575084620003fd600492620004b7565b9691506200017a565b503d620003d9565b958587813d831162000447575b62000427818362000493565b81010312620003b25750806200043f600497620004b7565b965062000149565b503d6200041b565b90918a849561ffff839651169062ffffff858702871b92831b921b1916179501910192919092620000d6565b634e487b7160e01b5f52604160045260245ffd5b5f80fd5b601f909101601f19168101906001600160401b038211908210176200047b57604052565b51906001600160a01b03821682036200048f57565b62ffffff16606481146200054d576101f481146200054757610bb881146200054157612710146200053c5760405162461bcd60e51b815260206004820152601560248201527f5469636b4d6174683a20696e76616c69642066656500000000000000000000006044820152606490fd5b60c890565b50603c90565b50600a90565b50600190565b6001600160a01b03165f8181527fad3228b676f7d3cd4284a5443f17f1962b36e491b30a40b2405849e597ba5fb5602052604081205490919060ff16620005cd57818052816020526040822081835260205260408220600160ff1982541617905533915f8051602062004ce88339815191528180a4600190565b5090565b6001600160a01b03165f8181527f3c1b1854ab1360abbb06c8d4c6b2672d4b8cedc5eff522ab19e51d5cb8fdbd4660205260408120549091907fbf233dd2aafeb4d50879c4aa5c81e96d92f6e6945c906a58f9f2d1c1631b4b269060ff166200066c57808352826020526040832082845260205260408320600160ff198254161790555f8051602062004ce8833981519152339380a4600190565b50509056fe6080806040526004361015610012575f80fd5b5f3560e01c90816301ffc9a714611c6d575080630dfe168114611c2957806312aa0daf14611c07578063150b7a0214611bb157806316f0115b14611b6d57806319fc9b6f1461190d57806320df4359146118d3578063248a9ca3146118a7578063293c5d431461182f5780632f2ff15d146117f3578063364bc15a146117b957806336568abe146117725780633b98db16146116ec5780633f4ba83a146116965780634585e33b146115cf5780634b85f96c146115ac5780634b9085d51461158a578063578c71d91461156d5780635c975abb1461154b5780636e04ff0d14611489578063791b98bc146114455780637d7c2a1c146113f75780637e4673cc146113d25780638456cb591461137a57806391d1485414611332578063955add08146112be57806396bad844146112a157806398c4f1ac146112675780639b76e2071461122b5780639babddf51461115b5780639cd441da14610b57578063a217fddf14610b3d578063a480ca7914610ad9578063a8c62e7614610aad578063ae2c1d5f14610a89578063b83d815714610a6c578063c31c9c0714610a28578063c82cfae614610a0b578063cea9d26f146109c5578063ceefe5d1146109a8578063d0c93a7c1461096b578063d21220a714610927578063d4c3eea014610616578063d547741f146105d8578063ddca3f4314610599578063e90e5ae91461057c578063e96527fb1461037c578063f0fa55a9146102ef578063f9cb494a146102cc5763fea59bd614610242575f80fd5b346102c85760203660031901126102c85760043563ffffffff81168082036102c857603c9061026f6141bf565b106102995767ffffffff00000000600a549160201b169067ffffffff00000000191617600a555f80f35b60405162461bcd60e51b81526020600482015260076024820152664d696e2036307360c81b6044820152606490fd5b5f80fd5b346102c8575f3660031901126102c857602060045460081c60020b604051908152f35b346102c85760203660031901126102c85760043561030b6141bf565b6101f48111610345576020817ff5a802650e0a86db227cc342f06327d2ca0ff5cf2b12e0084fc5d8a7db2c54fd92600955604051908152a1005b60405162461bcd60e51b815260206004820152600f60248201526e4d617820352520736c69707061676560881b6044820152606490fd5b346102c8575f3660031901126102c857610394614253565b61039c6145f1565b6103a46145b4565b60ff600454161561056a576103b830613625565b908015801590610561575b6103e8575b60409160015f805160206146218339815191525582519182526020820152f35b7f00000000000000000000000000000000000000000000000000000000000000006001600160a01b03169161043e82847f00000000000000000000000000000000000000000000000000000000000000006144a6565b61046981847f00000000000000000000000000000000000000000000000000000000000000006144a6565b600354603c420180421161054d575f946060926104f9926040519161048d83611e5d565b82526020820187815260408084018881528785018b9052608085018b815260a08601948552915163219f5d1760e01b815285516004820152925160248401525160448301526060909301516064820152915160848301525160a4820152958692839190829060c4820190565b03925af192831561054257604093610514575b5091506103c8565b6105349060603d811161053b575b61052c8183611ecb565b810190611fd3565b505061050c565b503d610522565b6040513d5f823e3d90fd5b634e487b7160e01b5f52601160045260245ffd5b508115156103c3565b604051630cf2fcaf60e21b8152600490fd5b346102c8575f3660031901126102c8576020600654604051908152f35b346102c8575f3660031901126102c857602060405162ffffff7f0000000000000000000000000000000000000000000000000000000000000000168152f35b346102c85760403660031901126102c8576106146004356105f7611cd6565b90805f525f60205261060f600160405f2001546142ae565b61434b565b005b346102c8575f3660031901126102c8576040516370a0823160e01b808252306004830152602091906001600160a01b0383836024817f000000000000000000000000000000000000000000000000000000000000000085165afa928315610542575f936108f8575b506040519182523060048301528382602481847f0000000000000000000000000000000000000000000000000000000000000000165afa918215610542575f926108c9575b505f905f60045460ff811661073c575b506106df919293611fb2565b90811561072c576106f66106f1612386565b613c29565b1690811561072c57916107198261071461071f94610724979661396d565b61396d565b92611fb2565b611fb2565b604051908152f35b505061073791611fb2565b610724565b92505060405192633850c7bd60e01b845260e084600481857f0000000000000000000000000000000000000000000000000000000000000000165afa938415610542575f94610892575b506107a46107998460081c60020b613c29565b93871c60020b613c29565b6003546040519063133f757160e31b82526004820152610180918282602481887f0000000000000000000000000000000000000000000000000000000000000000165afa958615610542575f925f945f98610838575b50506108279261082f9492610814926106df98999a613872565b92906001600160801b0380931690611fb2565b961690611fb2565b909392916106d3565b6106df97985061082f9550610827945061081492918161086c92903d1061088b575b6108648183611ecb565b8101906121e5565b9d9a509a985050509450505050509294999850925092948194506107fa565b503d61085a565b6108b591945060e03d60e0116108c2575b6108ad8183611ecb565b810190611f2a565b5050505050509286610786565b503d6108a3565b9091508381813d83116108f1575b6108e18183611ecb565b810103126102c8575190846106c3565b503d6108d7565b9092508381813d8311610920575b6109108183611ecb565b810103126102c85751918461067e565b503d610906565b346102c8575f3660031901126102c8576040517f00000000000000000000000000000000000000000000000000000000000000006001600160a01b03168152602090f35b346102c8575f3660031901126102c85760206040517f000000000000000000000000000000000000000000000000000000000000000060020b8152f35b346102c8575f3660031901126102c8576020600354604051908152f35b346102c85760603660031901126102c8576106146109e1611cc0565b6109e9611cd6565b6109f16141bf565b6109f96145d2565b604435916001600160a01b03166143be565b346102c8575f3660031901126102c8576020600554604051908152f35b346102c8575f3660031901126102c8576040517f00000000000000000000000000000000000000000000000000000000000000006001600160a01b03168152602090f35b346102c8575f3660031901126102c8576020600854604051908152f35b346102c8575f3660031901126102c8576020610aa361213c565b6040519015158152f35b346102c8575f3660031901126102c857610ad560ff60045460381c1660405191829182611dce565b0390f35b346102c85760203660031901126102c857610af2611cc0565b610afa614146565b610b026145f1565b610b0a6145b4565b60ff600454161561056a57610b20604091613625565b60015f805160206146218339815191525582519182526020820152f35b346102c8575f3660031901126102c85760206040515f8152f35b346102c85760403660031901126102c857600435602435610b76614146565b610b7e6145f1565b610b866145b4565b610b8e612292565b929091610bbd8230337f000000000000000000000000000000000000000000000000000000000000000061443c565b8015908115611129575b5080611120575b61110d575b50610bde82826127ae565b6040516370a0823160e01b8082523060048301529091906020836024817f00000000000000000000000000000000000000000000000000000000000000006001600160a01b03165afa928315610542575f936110d9575b506040519081523060048201527f00000000000000000000000000000000000000000000000000000000000000006001600160a01b031690602081602481855afa908115610542575f916110a7575b507f00000000000000000000000000000000000000000000000000000000000000006001600160a01b031692610cdb85857f00000000000000000000000000000000000000000000000000000000000000006144a6565b610d0682857f00000000000000000000000000000000000000000000000000000000000000006144a6565b604051633850c7bd60e01b81529360e0856004817f00000000000000000000000000000000000000000000000000000000000000006001600160a01b03165afa948515610542575f95611080575b50610d5e82613c29565b94610d6888613c29565b610d758589838a866137ec565b906001600160801b03978883161561106e57610d9093613872565b906009549061271091820382811161054d5782610db082610db794611f9f565b0493611f9f565b049160ff60045416155f14610f9857603c42019586421161054d575f96608094610e969460405193610de885611e78565b60018060a01b037f0000000000000000000000000000000000000000000000000000000000000000168552602085015262ffffff7f00000000000000000000000000000000000000000000000000000000000000001660408501528760020b988960608601528d60020b9c8d8987015260a086015260c085015260e084015261010083015230610120830152610140820152604051968780948193634418b22b60e11b83526004830161201e565b03925af180156105425760209685925f955f93610f35575b50916001606094927fe1b61fd8135460b22abc435eec8e97ab772042997e8696d312015dd44aedd91e96948860035563ffffff00600454928d1b66ffffff00000000169266ffffffffffffff19169160081b16171717600455809760405193845289840152166040820152a25b60015f805160206146218339815191525560405191168152f35b6060949296507fe1b61fd8135460b22abc435eec8e97ab772042997e8696d312015dd44aedd91e959350610f8160019160803d8111610f91575b610f798183611ecb565b810190611ff5565b5050979097949650929450610eae565b503d610f6f565b93959694509650905060035490603c42019081421161054d575f976060966110339660405195610fc787611e5d565b8652602086019081526040808701928352898701939093526080860193845260a08601948552915163219f5d1760e01b8152855160048201529151602483015251604482015260609093015160648401525160848301525160a4820152948592839190829060c4820190565b03925af18015610542576020925f9161104e575b5090610f1b565b611066915060603d811161053b5761052c8183611ecb565b505083611047565b604051630200e8a960e31b8152600490fd5b61109a91955060e03d60e0116108c2576108ad8183611ecb565b5050505050509387610d54565b90506020813d6020116110d1575b816110c260209383611ecb565b810103126102c8575185610c84565b3d91506110b5565b9092506020813d602011611105575b816110f560209383611ecb565b810103126102c857519184610c35565b3d91506110e8565b6111199060011c612b6e565b5082610bd3565b50801515610bce565b6111559030337f000000000000000000000000000000000000000000000000000000000000000061443c565b84610bc7565b346102c85761116936611d19565b611171614146565b6111796145f1565b6111816145b4565b60ff600454161561056a576001600160801b0382161561106e576111a66020926134b4565b6111af30613625565b919080928061120e575b505081806111dd575b505060015f8051602061462183398151915255604051908152f35b611207917f00000000000000000000000000000000000000000000000000000000000000006143be565b82816111c2565b61122392935061121d90612d7a565b90611fb2565b9083806111b9565b346102c85760203660031901126102c85760043560038110156102c85762ffffff611257602092611da0565b90549060031b1c16604051908152f35b346102c8575f3660031901126102c85760206040517f31e0210044b4f6757ce6aa31f9c6e8d4896d24a755014887391a926c5224d9598152f35b346102c8575f3660031901126102c8576020600754604051908152f35b346102c85760203660031901126102c85760043560038110156102c85761132d7feb9d30f0e37c2d16a999489bf3fde496b34446189d6332e0bb2bd2e027de002b916113086141bf565b60045460ff60381b8260381b169060ff60381b19161760045560405191829182611dce565b0390a1005b346102c85760403660031901126102c85761134b611cd6565b6004355f525f60205260405f209060018060a01b03165f52602052602060ff60405f2054166040519015158152f35b346102c8575f3660031901126102c8576113926141f8565b61139a6145b4565b600160ff19815416176001557f62e78cea01bee320cd4e420270b5ea74000d11b0c9f74754ebdbfc544b05a2586020604051338152a1005b346102c8575f3660031901126102c8576020600a5463ffffffff60405191831c168152f35b346102c8575f3660031901126102c85761140f614253565b6114176145f1565b61141f6145b4565b60ff600454161561056a57611432612f94565b60015f8051602061462183398151915255005b346102c8575f3660031901126102c8576040517f00000000000000000000000000000000000000000000000000000000000000006001600160a01b03168152602090f35b346102c85760203660031901126102c8576004356001600160401b0381116102c8576114b9903690600401611cec565b505060ff6001541615806114e7575b604051906114d582611eb0565b5f8252610ad560405192839283611d4f565b5060405163ae2c1d5f60e01b8152602081600481305afa908115610542575f91611512575b506114c8565b90506020813d8211611543575b8161152c60209383611ecb565b810103126102c85761153d90611f1d565b8161150c565b3d915061151f565b346102c8575f3660031901126102c857602060ff600154166040519015158152f35b346102c8575f3660031901126102c8576020600954604051908152f35b346102c8575f3660031901126102c857602060045460405190821c60020b8152f35b346102c8575f3660031901126102c857602063ffffffff600a5416604051908152f35b346102c85760203660031901126102c8576004356001600160401b0381116102c8576115ff903690600401611cec565b5050611609614253565b6116116145f1565b6116196145b4565b60405163ae2c1d5f60e01b8152602081600481305afa908115610542575f9161165d575b501561164b57611432612f94565b604051636311fcc960e11b8152600490fd5b90506020813d821161168e575b8161167760209383611ecb565b810103126102c85761168890611f1d565b8161163d565b3d915061166a565b346102c8575f3660031901126102c8576116ae6141f8565b6116b66145d2565b60ff19600154166001557f5db9ee0a495bf2e6ff9c91a7834c1ba4fdd244a5e8aa4e537bd38aeae4b073aa6020604051338152a1005b346102c85760203660031901126102c8576004356001600160401b0381116102c85761171c903690600401611cec565b505060ff6004541680611765575b8061173c57604051906114d582611eb0565b50600854610e1061174d8242611f92565b109081159161175c57506114c8565b9050158161150c565b5060ff600154161561172a565b346102c85760403660031901126102c85761178b611cd6565b336001600160a01b038216036117a7576106149060043561434b565b60405163334bd91960e11b8152600490fd5b346102c8575f3660031901126102c85760206040517ffc8737ab85eb45125971625a9ebdb75cc78e01d5c1fa80c4c6e5203f47bc4fab8152f35b346102c85760403660031901126102c857610614600435611812611cd6565b90805f525f60205261182a600160405f2001546142ae565b6142cf565b346102c85760203660031901126102c85760043563ffffffff81168091036102c8576118596141bf565b603c81106118735763ffffffff19600a541617600a555f80f35b60405162461bcd60e51b815260206004820152600c60248201526b04d696e2036307320545741560a41b6044820152606490fd5b346102c85760203660031901126102c8576004355f525f6020526020600160405f200154604051908152f35b346102c8575f3660031901126102c85760206040517fbf233dd2aafeb4d50879c4aa5c81e96d92f6e6945c906a58f9f2d1c1631b4b268152f35b346102c85761191b36611d19565b611923614146565b61192b6145f1565b6119336145b4565b6004549160ff83161561056a576001600160801b039081811690811561106e57604051633850c7bd60e01b81526001600160a01b039590919060e0836004817f00000000000000000000000000000000000000000000000000000000000000008b165afa908115610542576119ce935f92611b46575b506119c86119bc8260081c60020b613c29565b9160201c60020b613c29565b91613872565b93906009549061271091820382811161054d57826119ef826119f694611f9f565b0496611f9f565b0491857f0000000000000000000000000000000000000000000000000000000000000000169260035490603c42019081421161054d57611a6d97604094855194611a3f86611e13565b855260208501528484015260608301526080820152815180968192630624e65f60e11b8352600483016120c1565b03815f865af1928315610542575f95604095611ac695611b2a575b5060035492865193611a9985611e42565b845216602083015280858301526060820152835194858094819363fc6f786560e01b8352600483016120fe565b03925af1908115610542576040915f915f91611afb575b5060015f805160206146218339815191525582519182526020820152f35b9050611b1d9150823d8411611b23575b611b158183611ecb565b8101906120ab565b83611add565b503d611b0b565b611b4090873d8911611b2357611b158183611ecb565b50611a88565b611b6091925060e03d60e0116108c2576108ad8183611ecb565b50505050505090886119a9565b346102c8575f3660031901126102c8576040517f00000000000000000000000000000000000000000000000000000000000000006001600160a01b03168152602090f35b346102c85760803660031901126102c857611bca611cc0565b50611bd3611cd6565b506064356001600160401b0381116102c857611bf3903690600401611cec565b5050604051630a85bd0160e11b8152602090f35b346102c8575f3660031901126102c857602060ff600454166040519015158152f35b346102c8575f3660031901126102c8576040517f00000000000000000000000000000000000000000000000000000000000000006001600160a01b03168152602090f35b346102c85760203660031901126102c8576004359063ffffffff60e01b82168092036102c857602091637965db0b60e01b8114908115611caf575b5015158152f35b6301ffc9a760e01b14905083611ca8565b600435906001600160a01b03821682036102c857565b602435906001600160a01b03821682036102c857565b9181601f840112156102c8578235916001600160401b0383116102c857602083818601950101116102c857565b60409060031901126102c8576004356001600160801b03811681036102c857906024356001600160a01b03811681036102c85790565b90929192151581526020926040848301528051908160408401525f5b828110611d8c57505060609293505f838284010152601f8019910116010190565b818101860151848201606001528501611d6b565b906003821015611dba576003600a80840460020193060290565b634e487b7160e01b5f52603260045260245ffd5b919060208301926003821015611de15752565b634e487b7160e01b5f52602160045260245ffd5b8115611dff570490565b634e487b7160e01b5f52601260045260245ffd5b60a081019081106001600160401b03821117611e2e57604052565b634e487b7160e01b5f52604160045260245ffd5b608081019081106001600160401b03821117611e2e57604052565b60c081019081106001600160401b03821117611e2e57604052565b61016081019081106001600160401b03821117611e2e57604052565b61010081019081106001600160401b03821117611e2e57604052565b602081019081106001600160401b03821117611e2e57604052565b90601f801991011681019081106001600160401b03821117611e2e57604052565b51906001600160a01b03821682036102c857565b51908160020b82036102c857565b519061ffff821682036102c857565b519081151582036102c857565b908160e09103126102c857611f3e81611eec565b91611f4b60208301611f00565b91611f5860408201611f0e565b91611f6560608301611f0e565b91611f7260808201611f0e565b9160a082015160ff811681036102c85760c0611f8f919301611f1d565b90565b9190820391821161054d57565b8181029291811591840414171561054d57565b9190820180921161054d57565b51906001600160801b03821682036102c857565b908160609103126102c857611fe781611fbf565b916040602083015192015190565b91908260809103126102c85781519161201060208201611fbf565b916060604083015192015190565b91909161016081019260018060a01b0380825116835280602083015116602084015262ffffff6040830151166040840152606082015160020b6060840152608082015160020b608084015260a082015160a084015260c082015160c084015260e082015160e084015261010080830151908401526101209081830151169083015261014080910151910152565b91908260409103126102c8576020825192015190565b91909160808060a0830194805184526001600160801b03602082015116602085015260408101516040850152606081015160608501520151910152565b919091606060808201938051835260018060a01b036020820151166020840152816001600160801b0391826040820151166040860152015116910152565b60045460ff8116156121e057604051633850c7bd60e01b815260e0816004817f00000000000000000000000000000000000000000000000000000000000000006001600160a01b03165afa908115610542575f916121bb575b5060020b8160081c60020b81129182156121ae57505090565b60201c60020b1315919050565b6121d3915060e03d81116108c2576108ad8183611ecb565b505050505090505f612195565b505f90565b9190826101809103126102c85781516bffffffffffffffffffffffff811681036102c8579161221660208201611eec565b9161222360408301611eec565b9161223060608201611eec565b91608082015162ffffff811681036102c8579161224f60a08201611f00565b9161225c60c08301611f00565b9161226960e08201611fbf565b916101008201519161012081015191611f8f61016061228b6101408501611fbf565b9301611fbf565b61229a612386565b60ff60045460381c166003811015611de157627fffff61230d6122bf61231293611da0565b90549060031b1c6123027f000000000000000000000000000000000000000000000000000000000000000093849260011c1660020b61230783612302838a613b8b565b613bc6565b96613ba8565b613ba8565b620d89e719808360020b1261233c575b50620d89e8808260020b1361233657509091565b90509091565b91505f612322565b51908160060b82036102c857565b6001600160401b038111611e2e5760051b60200190565b805115611dba5760200190565b805160011015611dba5760400190565b6040805163252c09d760e01b81525f6004808301829052917f00000000000000000000000000000000000000000000000000000000000000006001600160a01b0316906024906080818381865afa90811561278b578490859261271c575b50816126f9575b50156126b7578451906001600160401b0360608301818111848210176126a557908691885260028452602086818601958a36883763ffffffff9687600a5416978861243584612369565b528361244084612376565b528c5196879363883bdbfd60e01b8552868a8601928601525180915260448401929185905b8783831061268557505050505081900381895afa9283928894612575575b5050506124e05750508451633850c7bd60e01b81529360e09285925082905afa9283156124d65750916124b4575090565b6124cc915060e03d81116108c2576108ad8183611ecb565b5050505050905090565b51903d90823e3d90fd5b919495509291506124fa6124f382612376565b5191612369565b5160060b9060060b0393667fffffffffffff1993667fffffffffffff8613858712176125645760030b9460060b9385156125535784145f19861416612543575050500560020b90565b634e487b7160e01b825260119052fd5b50634e487b7160e01b825260129052fd5b50634e487b7160e01b825260119052fd5b90919293503d8089843e6125898184611ecb565b8201918a8184031261266557805182811161266157810183601f820112156126615790818c95949392516125c86125bf82612352565b97519788611ecb565b808752858088019160051b830101918583116126815786809101915b8383106126695750915050810151918211612661570181601f820112156126655780519083808d61262061261786612352565b91519182611ecb565b848152019260051b820101928311612661578301905b82821061264a5750505050905f8080612483565b83809161265684611eec565b815201910190612636565b8980fd5b8880fd5b819061267484612344565b81520191019086906125e4565b8c80fd5b8451821686528e97508a9650948501949390930192600190910190612465565b634e487b7160e01b8652604187528286fd5b836017606492602088519362461bcd60e51b85528401528201527f506f6f6c20746f6f20796f756e6720666f7220545741500000000000000000006044820152fd5b905061270c63ffffffff80921642611f92565b90600a5460201c1611155f6123eb565b9150506080813d8211612783575b8161273760809383611ecb565b8101031261277f5780519063ffffffff8216820361277b5760608161276160206127749401612344565b5061276d898201611eec565b5001611f1d565b905f6123e4565b8480fd5b8380fd5b3d915061272a565b86513d86823e3d90fd5b6001600160801b03918216908216039190821161054d57565b60408051633850c7bd60e01b81526004926001600160a01b039060e08386817f000000000000000000000000000000000000000000000000000000000000000086165afa928315612afd575f93612acf575b5061281061281691969396613c29565b92613c29565b5f92827f000000000000000000000000000000000000000000000000000000000000000016927f000000000000000000000000000000000000000000000000000000000000000016935b8660ff821610612875575b5050505050505050565b85516370a0823160e01b80825230898301526024906020808484818b5afa938415612a96575f94612aa0575b508951918252308b830152808284818c5afa908115612a96575f91612a67575b509050821580612a5f575b612a52576128db83878d61376e565b6128e6828d886137b7565b926001600160801b038281169182158080612a48575b612a36571580612a2b575b6129b2575b508416101561297a5750506129239085858c613872565b50808211156129735761293591611f92565b801561296d5761294490612b6e565b505b60ff80911690811461295a57600101612860565b601187634e487b7160e01b5f525260245ffd5b5061286b565b505061286b565b90925061298a915085858c613872565b8091508211156129735761299d91611f92565b801561296d576129ac90612d7a565b50612946565b858216808411908115612a1957836129ca8988612795565b16915b15612a13575083915b606491828102928184041490151715612a01575011156129f6575f61290c565b50505050505061286b565b8f601190634e487b7160e01b5f52525ffd5b916129d6565b83612a24878a612795565b16916129cd565b508186161515612907565b50505050505050505050505050505050565b50828716156128fc565b5050505050505050505050565b5080156128cc565b82813d8311612a8f575b612a7b8183611ecb565b81010312612a8c575051805f6128c1565b80fd5b503d612a71565b8a513d5f823e3d90fd5b90938482813d8311612ac8575b612ab78183611ecb565b81010312612a8c575051925f6128a1565b503d612aad565b612816919350612aef6128109160e03d81116108c2576108ad8183611ecb565b505050505050939150612800565b84513d5f823e3d90fd5b91909160e06101008201938160018060a01b039182815116855282602082015116602086015262ffffff60408201511660408601528260608201511660608601526080810151608086015260a081015160a086015260c081015160c0860152015116910152565b908115612d10576001600160a01b03917f00000000000000000000000000000000000000000000000000000000000000007f00000000000000000000000000000000000000000000000000000000000000008416612bcd8382846144a6565b603c42019182421161054d57612be284612d15565b60409387855193612bf285611e94565b1683526020977f0000000000000000000000000000000000000000000000000000000000000000168884015262ffffff7f0000000000000000000000000000000000000000000000000000000000000000168584015230606084015260808301528460a083015260c082015285612c875f93838560e081960152865194858094819363414bf38960e01b835260048301612b07565b03925af1918215612d05578092612cd3575b5050916001606092847f067be47ce1de108edc0b6c140e84263b9290a3a45740ed5b06559108df794a3995978251948552840152820152a1565b9091508582813d8311612cfe575b612ceb8183611ecb565b81010312612a8c57505160016060612c99565b503d612ce1565b8351903d90823e3d90fd5b5f9150565b6001600160a01b03612d286106f1612386565b1680158015612d72575b612d6c57612d4381612d4b93611f9f565b60601c611f9f565b60601c6009549061271091820382811161054d57612d6891611f9f565b0490565b50505f90565b508115612d32565b908115612d10576001600160a01b03917f000000000000000000000000000000000000000000000000000000000000000083167f0000000000000000000000000000000000000000000000000000000000000000612dd98383836144a6565b603c42019081421161054d57612dee84612f39565b60409287845193612dfe85611e94565b1683526020977f0000000000000000000000000000000000000000000000000000000000000000168884015262ffffff7f0000000000000000000000000000000000000000000000000000000000000000168484015230606084015260808301528460a083015260c082015285612e935f94838660e081960152855194858094819363414bf38960e01b835260048301612b07565b03925af1908115612f2d578391612edc575b5081519384529483018590528201527f067be47ce1de108edc0b6c140e84263b9290a3a45740ed5b06559108df794a3990606090a1565b90508581813d8311612f26575b612ef38183611ecb565b81010312612f2257517f067be47ce1de108edc0b6c140e84263b9290a3a45740ed5b06559108df794a39612ea5565b8280fd5b503d612ee9565b505051903d90823e3d90fd5b6001600160a01b03612f4c6106f1612386565b1680158015612f8c575b612d6c57612f6a81612f729360601b611df5565b60601b611df5565b6009549061271091820382811161054d57612d6891611f9f565b508115612f56565b60048054905f90612fa430613625565b92909160018060a01b03807f000000000000000000000000000000000000000000000000000000000000000016906003549260409384519063133f757160e31b82528282015261018060249181818481895afa9182156134aa578892613481575b50506001600160801b038116613469575b50600354843b1561346557855190630852cd8d60e31b8252838201528681838183895af1801561345b5761342f575b50815460ff19168255613056612292565b96909461306388876127ae565b7f00000000000000000000000000000000000000000000000000000000000000008581169088516370a0823160e01b808252308883015260209889838981885afa9283156133b0578793613400575b507f000000000000000000000000000000000000000000000000000000000000000090808216948d51938452308b8501528b848b81895afa9384156133f657908b9392918a956133c3575b5085158015906133ba575b61318b575b505050505050505050600754925f19841461254357505050917f2fce403d8019d62be8d8646f70b4d7d1ee427ee3316b94dc398f088ffad3035d97959391600160c098969401600755426008558251968060081c60020b8852811c60020b9087015260020b9085015260020b6060840152608083015260a0820152a1565b848960e09461319e89836131a3966144a6565b6144a6565b8d5192838092633850c7bd851b82527f0000000000000000000000000000000000000000000000000000000000000000165afa9081156133b057908d8c613212938a93613382575b506131f86131fe91613c29565b91613c29565b9061320c85878484876137ec565b92613872565b919060095490612710918203908282116133705790826132358261323c94611f9f565b0494611f9f565b0492603c42019485421161335e57926132e595928f928f938f8f9560809b988e9d9a9782519a61326b8c611e78565b8b528a015262ffffff7f0000000000000000000000000000000000000000000000000000000000000000169089015260020b606088015260020b8987015260a086015260c085015260e0840152610100830152306101208301526101408201528a51948580948193634418b22b60e11b83528b830161201e565b03925af1908115613354578291613333575b506003556001835488861b66ffffff00000000169066ffffffffffffff191663ffffff008860081b1617171783555f808080808781808061310d565b61334b915060803d8111610f9157610f798183611ecb565b5050505f6132f7565b87513d84823e3d90fd5b634e487b7160e01b895260118b528989fd5b634e487b7160e01b8a5260118c528a8afd5b6131fe9193506133a26131f89160e03d81116108c2576108ad8183611ecb565b5050505050509391506131eb565b8c513d89823e3d90fd5b50841515613108565b8d809296508195503d83116133ef575b6133dd8183611ecb565b810103126102c8578a9251935f6130fd565b503d6133d3565b8e513d8b823e3d90fd5b9092508981813d8311613428575b6134188183611ecb565b810103126102c85751915f6130b2565b503d61340e565b6001600160401b038197929711613449578552945f613045565b5060418692634e487b7160e01b835252fd5b86513d89823e3d90fd5b8680fd5b613472906134b4565b61347b30613625565b50613016565b6134979250803d1061088b576108648183611ecb565b5050505096505050505050505f80613005565b87513d8a823e3d90fd5b60408051633850c7bd60e01b815290916001600160a01b039160e0816004817f000000000000000000000000000000000000000000000000000000000000000087165afa908115612afd576135229183915f91613601575b506004546119c86119bc8260081c60020b613c29565b919092600354936009549061271091820382811161054d57826135488261354f94611f9f565b0495611f9f565b0493603c420180421161054d575f9587956001600160801b036135a99688519561357887611e13565b865216602085015286840152606083015260808201528351948580948193630624e65f60e11b8352600483016120c1565b03927f0000000000000000000000000000000000000000000000000000000000000000165af180156135f7576135dd575050565b816135f392903d10611b2357611b158183611ecb565b5050565b82513d5f823e3d90fd5b613619915060e03d81116108c2576108ad8183611ecb565b5050505050505f61350c565b905f90600354613681604094859283519061363f82611e42565b81526001600160a01b0391821660208201526001600160801b038482018190526060820152835163fc6f786560e01b81529586938492839190600483016120fe565b03927f0000000000000000000000000000000000000000000000000000000000000000165af192831561374c575f928394613709575b507f49d512bf9cb224241c05691e73eb9fab078cf350c7dbcbcf66788f1fc0cc8b0b90849380956136ea82600554611fb2565b6005556136f981600654611fb2565b60065582519182526020820152a1565b816137449295507f49d512bf9cb224241c05691e73eb9fab078cf350c7dbcbcf66788f1fc0cc8b0b94503d8611611b2357611b158183611ecb565b9390926136b7565b513d5f823e3d90fd5b6001600160a01b03918216908216039190821161054d57565b611f8f926137ac9290916001600160a01b0390818316828216116137b1575b6137a59061379f838516848316613a76565b93613755565b1691613aba565b613b3c565b9161378d565b611f8f926137ac9290916001600160a01b03916137df9190838116848316116137e657613755565b169061396d565b90613755565b9093906001600160a01b038381168187161161386a575b81811690868116821161381d5750505050611f8f9261376e565b84929495939516115f1461385e57829161383b91613841959461376e565b936137b7565b6001600160801b038181169083161015613859575090565b905090565b915050611f8f926137b7565b949294613803565b9093925f929091836001600160a01b03808416818916116138df575b8281169088811682116138ad57505050506138aa9293946138e7565b91565b9091929495508316115f146138d35750906138cd83611f8f9493836138e7565b94613939565b94611f8f939250613939565b96929661388e565b611f8f9290916001600160a01b039161392b9183811684861611613933575b83806139128784613755565b169116916001600160801b0360601b9060601b16613aba565b911690611df5565b93613906565b611f8f92916001600160801b03916001600160a01b03916139659190838116848316116137e657613755565b169116613a76565b908015613a3b57600160601b905f19828409928060601b92838086109503948086039514613a2e57848311156139f65782910981196001810180911161054d578216809204600280826003021880830282030280830282030280830282030280830282030280830282030280920290030293600183805f03040190848311900302920304170290565b60405162461bcd60e51b815260206004820152601060248201526f4c6971416d743a206f766572666c6f7760801b6044820152606490fd5b505090611f8f9250611df5565b60405162461bcd60e51b81526020600482015260136024820152724c6971416d743a20646976206279207a65726f60681b6044820152606490fd5b5f198282099082810292838084109303928084039314613ab157600160601b91838311156139f6570990828211900360a01b910360601c1790565b50505060601c90565b918015613a3b575f198284099282810292838086109503948086039514613a2e57848311156139f65782910981196001810180911161054d578216809204600280826003021880830282030280830282030280830282030280830282030280830282030280920290030293600183805f03040190848311900302920304170290565b6001600160801b0390818111613b50571690565b60405162461bcd60e51b8152602060048201526013602482015272098d2e282dae87440deeccae4ccd8deee62647606b1b6044820152606490fd5b600291820b910b0390627fffff198212627fffff83131761054d57565b9060020b9060020b0190627fffff198212627fffff83131761054d57565b60020b908060020b918215611dff57627fffff1981145f1984141661054d578280820560020b02908160020b91820361054d5781935f82129182613c1a575b5050613c1057505090565b611f8f9250613b8b565b0760020b151590505f80613c05565b60020b5f81121561414057600160ff1b811461054d57805f035b620d89e881116140fb5760018116156140e9576001600160881b036ffffcb933bd6fad37aa2d162d1a5940015b1691600282166140bd575b600491828116614091575b60088116614065575b60108116614039575b6020811661400d575b60408116613fe1575b608090818116613fb6575b6101008116613f8b575b6102008116613f60575b6104008116613f35575b6108008116613f0a575b6110008116613edf575b6120008116613eb4575b6140008116613e89575b6180008116613e5e575b620100008116613e33575b620200008116613e09575b620400008116613dcd575b6208000016613d91575b505f12613d6e575b5063ffffffff8116613d6357613d5f5f915b6001600160a01b039260ff169060201c611fb2565b1690565b613d5f600191613d4a565b8115613d7e57505f19045f613d38565b601290634e487b7160e01b5f525260245ffd5b6b048a170391f7dc42444e8fa293919391828102928184041490151715613dba571c915f613d30565b601183634e487b7160e01b5f525260245ffd5b936d2216e584f5fa1ea926041bedfe9890818102918183041490151715613df657811c93613d26565b601184634e487b7160e01b5f525260245ffd5b936e5d6af8dedb81196699c329225ee60490818102918183041490151715613df657811c93613d1b565b936f09aa508b5b7a84e1c677de54f3e99bc990818102918183041490151715613df657811c93613d10565b936f31be135f97d08fd981231505542fcfa690818102918183041490151715613df657811c93613d05565b936f70d869a156d2a1b890bb3df62baf32f790818102918183041490151715613df657811c93613cfb565b936fa9f746462d870fdf8a65dc1f90e061e590818102918183041490151715613df657811c93613cf1565b936fd097f3bdfd2022b8845ad8f792aa582590818102918183041490151715613df657811c93613ce7565b936fe7159475a2c29b7443b29c7fa6e889d990818102918183041490151715613df657811c93613cdd565b936ff3392b0822b70005940c7a398e4b70f390818102918183041490151715613df657811c93613cd3565b936ff987a7253ac413176f2b074cf7815e5490818102918183041490151715613df657811c93613cc9565b936ffcbe86c7900a88aedcffc83b479aa3a490818102918183041490151715613df657811c93613cbf565b936ffe5dee046a99a2a811c461f1969c305390818102918183041490151715613df657811c93613cb5565b926fff2ea16466c96a3843ec78b326b5286190818102918183041490151715613dba5760801c92613caa565b926fff973b41fa98c081472e6896dfb254c090818102918183041490151715613dba5760801c92613ca1565b926fffcb9843d60f6159c9db58835c92664490818102918183041490151715613dba5760801c92613c98565b926fffe5caca7e10e4e61c3624eaa0941cd090818102918183041490151715613dba5760801c92613c8f565b926ffff2e50f5f656932ef12357cf3c7fdcc90818102918183041490151715613dba5760801c92613c86565b916ffff97272373d413259a46990580e213a9081810291818304149015171561054d5760801c91613c7b565b6001600160881b03600160801b613c70565b60405162461bcd60e51b815260206004820152601c60248201527f5469636b4d6174683a207469636b206f7574206f6620626f756e6473000000006044820152606490fd5b80613c43565b335f9081527f57c45785f0bfdd0436a24ca59ce8cf4a246623230045d7db55b0ff1db74c582260205260409020547f31e0210044b4f6757ce6aa31f9c6e8d4896d24a755014887391a926c5224d9599060ff16156141a15750565b6044906040519063e2517d3f60e01b82523360048301526024820152fd5b335f9081527fad3228b676f7d3cd4284a5443f17f1962b36e491b30a40b2405849e597ba5fb5602052604081205460ff16156141a15750565b335f9081527f3c1b1854ab1360abbb06c8d4c6b2672d4b8cedc5eff522ab19e51d5cb8fdbd4660205260409020547fbf233dd2aafeb4d50879c4aa5c81e96d92f6e6945c906a58f9f2d1c1631b4b269060ff16156141a15750565b335f9081527f0363fc6b1c9d3a5e0ab0c2ddc08deb0f30108829db06e84f370d2858ffe78c4660205260409020547ffc8737ab85eb45125971625a9ebdb75cc78e01d5c1fa80c4c6e5203f47bc4fab9060ff16156141a15750565b805f525f60205260405f20335f5260205260ff60405f205416156141a15750565b905f9180835282602052604083209160018060a01b03169182845260205260ff604084205416155f1461434657808352826020526040832082845260205260408320600160ff198254161790557f2f8788117e7eff1d82e926ec794901d17c78024a50270940304540a733656f0d339380a4600190565b505090565b905f9180835282602052604083209160018060a01b03169182845260205260ff6040842054165f146143465780835282602052604083208284526020526040832060ff1981541690557ff6391f5c32d9c69d2a47ea670b442974b53935d1edc7fd64eb21e047a839171b339380a4600190565b60405163a9059cbb60e01b5f9081526001600160a01b039384166004526024949094529260209060448180855af160015f511481161561441d575b836040521561440757505050565b635274afe760e01b835216600482015260249150fd5b600181151661443357813b15153d1516166143f9565b833d5f823e3d90fd5b6040516323b872dd60e01b5f9081526001600160a01b03938416600452938316602452604494909452909160209060648180855af160015f5114811615614490575b836040525f6060521561440757505050565b600181151661443357813b15153d15161661447e565b60405163095ea7b360e01b5f8181526001600160a01b0394851660048190526024879052919591929060209060448180885af160015f51148116156145a7575b81604052156144f8575b505050505050565b60205f878152846004528060245260448180885af160015f5114811615614588575b81604052156145715750906020915f9160405196835260045260245260448180855af160015f511481161561455b575b8360405215614407578080806144f0565b600181151661443357813b15153d15161661454a565b635274afe760e01b81528385166004820152602490fd5b600181151661459e57843b15153d15161661451a565b503d5f823e3d90fd5b843b15153d1516166144e6565b60ff600154166145c057565b60405163d93c066560e01b8152600490fd5b60ff60015416156145df57565b604051638dfc202b60e01b8152600490fd5b5f80516020614621833981519152600281541461460e5760029055565b604051633ee5aeb560e01b8152600490fdfe9b779b17422d0df92223018b32b4d1fa46e071723d6817e2486d003becc55f00a26469706673582212208b524c84a15373b5f46ffa31114840b449e4a980126bef02b0759dd6dc0ac71b64736f6c634300081400332f8788117e7eff1d82e926ec794901d17c78024a50270940304540a733656f0d","linkReferences":{}},"methodIdentifiers":{"DEFAULT_ADMIN_ROLE()":"a217fddf","EMERGENCY_ROLE()":"20df4359","KEEPER_ROLE()":"364bc15a","STRATEGY_WIDTHS(uint256)":"9b76e207","VAULT_ROLE()":"98c4f1ac","addLiquidity(uint256,uint256)":"9cd441da","checkCompound(bytes)":"3b98db16","checkUpkeep(bytes)":"6e04ff0d","collectAndCompound()":"e96527fb","collectFees(address)":"a480ca79","currentTickLower()":"f9cb494a","currentTickUpper()":"4b9085d5","fee()":"ddca3f43","getRoleAdmin(bytes32)":"248a9ca3","grantRole(bytes32,address)":"2f2ff15d","hasRole(bytes32,address)":"91d14854","lastRebalanceTimestamp()":"b83d8157","minPoolAgeSecs()":"7e4673cc","onERC721Received(address,address,uint256,bytes)":"150b7a02","pause()":"8456cb59","paused()":"5c975abb","performUpkeep(bytes)":"4585e33b","pool()":"16f0115b","positionActive()":"12aa0daf","positionManager()":"791b98bc","positionTokenId()":"ceefe5d1","rebalance()":"7d7c2a1c","rebalanceCount()":"96bad844","removeLiquidity(uint128,address)":"19fc9b6f","removeLiquidityAsToken0(uint128,address)":"9babddf5","renounceRole(bytes32,address)":"36568abe","rescueTokens(address,address,uint256)":"cea9d26f","revokeRole(bytes32,address)":"d547741f","setMinPoolAgeSecs(uint32)":"fea59bd6","setSlippage(uint256)":"f0fa55a9","setStrategy(uint8)":"955add08","setTwapSeconds(uint32)":"293c5d43","shouldRebalance()":"ae2c1d5f","slippageBps()":"578c71d9","strategy()":"a8c62e76","supportsInterface(bytes4)":"01ffc9a7","swapRouter()":"c31c9c07","tickSpacing()":"d0c93a7c","token0()":"0dfe1681","token1()":"d21220a7","totalFeesCollected0()":"c82cfae6","totalFeesCollected1()":"e90e5ae9","totalValue()":"d4c3eea0","twapSeconds()":"4b85f96c","unpause()":"3f4ba83a"},"id":0}