{"abi":[{"type":"function","name":"exactInputSingle","inputs":[{"name":"params","type":"tuple","internalType":"struct IUniswapV3SwapRouter.ExactInputSingleParams","components":[{"name":"tokenIn","type":"address","internalType":"address"},{"name":"tokenOut","type":"address","internalType":"address"},{"name":"fee","type":"uint24","internalType":"uint24"},{"name":"recipient","type":"address","internalType":"address"},{"name":"deadline","type":"uint256","internalType":"uint256"},{"name":"amountIn","type":"uint256","internalType":"uint256"},{"name":"amountOutMinimum","type":"uint256","internalType":"uint256"},{"name":"sqrtPriceLimitX96","type":"uint160","internalType":"uint160"}]}],"outputs":[{"name":"amountOut","type":"uint256","internalType":"uint256"}],"stateMutability":"payable"},{"type":"function","name":"setRevert","inputs":[{"name":"_shouldRevert","type":"bool","internalType":"bool"}],"outputs":[],"stateMutability":"nonpayable"},{"type":"function","name":"shouldRevert","inputs":[],"outputs":[{"name":"","type":"bool","internalType":"bool"}],"stateMutability":"view"}],"bytecode":{"object":"0x6080806040523461001657610281908161001b8239f35b5f80fdfe6080604081815260049182361015610015575f80fd5b5f92833560e01c918263414bf38914610094575081638fb5f17114610067575063d3072d8214610043575f80fd5b3461006357816003193601126100635760ff602092541690519015158152f35b5080fd5b83903461006357602036600319011261006357358015158091036100635760ff8019835416911617815580f35b909291506101003660031901126101f55760ff8454166101b457506001600160a01b038235818116939185918590036100635760a435948451906323b872dd60e01b825233858301523060248301528660448301528160648160209a8b945af180156101aa5761018d575b506024359281841680940361018957606435918216809203610189579060448792848751968794859363a9059cbb60e01b85528401528960248401525af190811561017e5750610151575b5051908152f35b61017090843d8611610177575b61016881836101f9565b81019061022f565b505f61014a565b503d61015e565b8351903d90823e3d90fd5b8280fd5b6101a390873d89116101775761016881836101f9565b505f6100ff565b85513d85823e3d90fd5b62461bcd60e51b8152602083820152601b60248201527f4d6f636b53776170526f757465723a2073776170206661696c656400000000006044820152606490fd5b8380fd5b90601f8019910116810190811067ffffffffffffffff82111761021b57604052565b634e487b7160e01b5f52604160045260245ffd5b90816020910312610247575180151581036102475790565b5f80fdfea2646970667358221220ed6c8e9cfa29a9016b95f57d6b1d5ad3e9fc0e83071be35b4a8dc4a0ea1bc2ff64736f6c63430008140033","linkReferences":{}},"methodIdentifiers":{"exactInputSingle((address,address,uint24,address,uint256,uint256,uint256,uint160))":"414bf389","setRevert(bool)":"8fb5f171","shouldRevert()":"d3072d82"},"id":52}