{"abi":[{"type":"constructor","inputs":[{"name":"_token0","type":"address","internalType":"address"},{"name":"_token1","type":"address","internalType":"address"},{"name":"_fee","type":"uint24","internalType":"uint24"}],"stateMutability":"nonpayable"},{"type":"function","name":"currentTick","inputs":[],"outputs":[{"name":"","type":"int24","internalType":"int24"}],"stateMutability":"view"},{"type":"function","name":"fee","inputs":[],"outputs":[{"name":"","type":"uint24","internalType":"uint24"}],"stateMutability":"view"},{"type":"function","name":"liquidity","inputs":[],"outputs":[{"name":"","type":"uint128","internalType":"uint128"}],"stateMutability":"view"},{"type":"function","name":"observations","inputs":[{"name":"index","type":"uint256","internalType":"uint256"}],"outputs":[{"name":"blockTimestamp","type":"uint32","internalType":"uint32"},{"name":"tickCumulative","type":"int56","internalType":"int56"},{"name":"secondsPerLiquidityCumulativeX128","type":"uint160","internalType":"uint160"},{"name":"initialized","type":"bool","internalType":"bool"}],"stateMutability":"view"},{"type":"function","name":"observe","inputs":[{"name":"secondsAgos","type":"uint32[]","internalType":"uint32[]"}],"outputs":[{"name":"_tickCumulatives","type":"int56[]","internalType":"int56[]"},{"name":"secondsPerLiquidityCumulativeX128s","type":"uint160[]","internalType":"uint160[]"}],"stateMutability":"view"},{"type":"function","name":"observeReverts","inputs":[],"outputs":[{"name":"","type":"bool","internalType":"bool"}],"stateMutability":"view"},{"type":"function","name":"poolLiquidity","inputs":[],"outputs":[{"name":"","type":"uint128","internalType":"uint128"}],"stateMutability":"view"},{"type":"function","name":"setObserveReverts","inputs":[{"name":"_r","type":"bool","internalType":"bool"}],"outputs":[],"stateMutability":"nonpayable"},{"type":"function","name":"setSqrtPrice","inputs":[{"name":"_sqrt","type":"uint160","internalType":"uint160"}],"outputs":[],"stateMutability":"nonpayable"},{"type":"function","name":"setTick","inputs":[{"name":"_tick","type":"int24","internalType":"int24"}],"outputs":[],"stateMutability":"nonpayable"},{"type":"function","name":"setTickCumulatives","inputs":[{"name":"old_","type":"int56","internalType":"int56"},{"name":"curr","type":"int56","internalType":"int56"}],"outputs":[],"stateMutability":"nonpayable"},{"type":"function","name":"slot0","inputs":[],"outputs":[{"name":"_sqrtPriceX96","type":"uint160","internalType":"uint160"},{"name":"_tick","type":"int24","internalType":"int24"},{"name":"","type":"uint16","internalType":"uint16"},{"name":"","type":"uint16","internalType":"uint16"},{"name":"","type":"uint16","internalType":"uint16"},{"name":"","type":"uint8","internalType":"uint8"}],"stateMutability":"view"},{"type":"function","name":"sqrtPriceX96","inputs":[],"outputs":[{"name":"","type":"uint160","internalType":"uint160"}],"stateMutability":"view"},{"type":"function","name":"tickCumulatives","inputs":[{"name":"","type":"uint256","internalType":"uint256"}],"outputs":[{"name":"","type":"int56","internalType":"int56"}],"stateMutability":"view"},{"type":"function","name":"token0","inputs":[],"outputs":[{"name":"","type":"address","internalType":"address"}],"stateMutability":"view"},{"type":"function","name":"token1","inputs":[],"outputs":[{"name":"","type":"address","internalType":"address"}],"stateMutability":"view"}],"bytecode":{"object":"0x60803461020d57601f610df238819003918201601f19168301926001600160401b039290918385118386101761021157816060928492604097885283398101031261020d5761004d81610225565b908361005b60208301610225565b9101519062ffffff8216820361020d575f80546001600160a01b03199081166001600160a01b0395861617825560018054600280549093166c010000000000000000000000001790925560a09490941b62ffffff60a01b166001600160d01b03199091169290941691909117929092179055600380546001600160801b031916670de0b6b3a764000017905582519160808301908111838210176101f957835263ffffffff908142168352602083018181528484019282845260608501926001845260065490680100000000000000008210156101e55760018201806006558210156101d15760069052945191519351925160209490941b6affffffffffffff000000001691161760589190911b600160581b600160f81b03161790151560f81b7fff0000000000000000000000000000000000000000000000000000000000000016177ff652222313e28459528d920b65115c16c04f3efc82aaedc97be59f3f377c0d3f9091015551610bb8908161023a8239f35b634e487b7160e01b81526032600452602490fd5b634e487b7160e01b81526041600452602490fd5b634e487b7160e01b82526041600452602482fd5b5f80fd5b634e487b7160e01b5f52604160045260245ffd5b51906001600160a01b038216820361020d5756fe604060808152600480361015610013575f80fd5b5f91823560e01c8063064a34ea14610548578063065e5360146105235780630dfe1681146104fb5780631a6865021461040b57806322de7f46146104d7578063252c09d7146104895780633850c7bd1461043c5780633b228b3e1461040b57806382a2423e146103ca578063883bdbfd146101ee5780638db791d2146101c55780639976957914610196578063c80b429014610158578063d21220a71461012f578063ddca3f43146101085763eb25c51f146100cd575f80fd5b346101005736600319011261010457358060060b8103610104576024358060060b8103610100576100fd9161074a565b80f35b8280fd5b5080fd5b83823461010457816003193601126101045760209062ffffff60015460a01c169051908152f35b83823461010457816003193601126101045760015490516001600160a01b039091168152602090f35b50503461010457602036600319011261010457358060020b8103610104576001549060b81b62ffffff60b81b169062ffffff60b81b19161760015580f35b50503461010457602036600319011261010457358015158091036101045760ff80196005541691161760055580f35b83823461010457816003193601126101045760025490516001600160a01b039091168152602090f35b50919034610104576020806003193601126101005781359267ffffffffffffffff808511610104573660238601121561010457848401359081116101045760249560059587369184891b0101116101005760ff865416610389576102596102548361061d565b6105f7565b968288526102668361061d565b9685890196601f198099013689378481541015610322575b50505095949391929061029f6102966102548361061d565b9180835261061d565b8183019501368637865196879681880191885251809152606087019390855b81811061030857505050858303868301525180835291810193925b8281106102e857505050500390f35b83516001600160a01b0316855286955093810193928101926001016102d9565b825160060b865289985094840194918401916001016102be565b855b858110610331575061027e565b61033a81610583565b9054908c518310156103775760031b1c60060b81841b8c018901525f19811461036557600101610324565b634e487b7160e01b8752601182528387fd5b634e487b7160e01b8952603284528589fd5b5162461bcd60e51b81528085018490526019818801527f4d6f636b506f6f6c3a206f6273657276652072657665727473000000000000006044820152606490fd5b50503461010457602036600319011261010457356001600160a01b03811690819003610104576bffffffffffffffffffffffff60a01b600254161760025580f35b8382346101045781600319360112610104576020906fffffffffffffffffffffffffffffffff600354169051908152f35b8382346101045781600319360112610104578160c09260018060a01b03600254169260015460b81c60020b81519485526020850152830152600160608301526001608083015260a0820152f35b5082346104d45760203660031901126104d457506104a960809235610635565b92939163ffffffff83519516855260060b602085015260018060a01b03169083015215156060820152f35b80fd5b83823461010457816003193601126101045760209060ff6005541690519015158152f35b838234610104578160031936011261010457905490516001600160a01b039091168152602090f35b83823461010457816003193601126101045760209060015460b81c60020b9051908152f35b5082346104d45760203660031901126104d457823592548310156104d45750610572602092610583565b91905490519160031b1c60060b8152f35b906004548210156105af5760045f52600760038360021c5f80516020610b638339815191520193160290565b634e487b7160e01b5f52603260045260245ffd5b604051906080820182811067ffffffffffffffff8211176105e357604052565b634e487b7160e01b5f52604160045260245ffd5b6040519190601f01601f1916820167ffffffffffffffff8111838210176105e357604052565b67ffffffffffffffff81116105e35760051b60200190565b906006548210156106ae5760065f52606061064e6105c3565b927ff652222313e28459528d920b65115c16c04f3efc82aaedc97be59f3f377c0d3f01549163ffffffff83168085528360201c60060b9485602082015260018060a01b038560581c169485604083015260f81c1515938491015293929190565b5f9150819081908190565b60065490600160401b8210156105e35760018201806006558210156105af5760065f5263ffffffff81511690602081015160201b916affffffffffffff00000000600160581b600160f81b03604084015160581b1692606060ff60f81b910151151560f81b169316171717907ff652222313e28459528d920b65115c16c04f3efc82aaedc97be59f3f377c0d3f0155565b906040918251916060908184019067ffffffffffffffff91858110838211176105e35786526002855260208086019587368837519283116105e357600160401b83116105e3576004958654848855808510610ae2575b505f938785528060021c90855b828110610a8f57506003198116900380610a30575b5050508554948515610a1d5760069681880b915f80516020610b638339815191529081546001998a1015610a0a5783885266ffffffffffffff878c0b9760381b6dffffffffffffff00000000000000169216906dffffffffffffffffffffffffffff1916171790558754156109ac575f19420197428911610999576108456105c3565b9063ffffffff809a1682528482019384528a820192878452888301928a84528254908115610986578c90848b5251169551871b94519460ff60f81b9586955115156affffffffffffff000000009889600160581b600160f81b0398899360f81b169416179160581b1617177ff652222313e28459528d920b65115c16c04f3efc82aaedc97be59f3f377c0d3f558a81145f14610904575050505050509061090296916108ef6105c3565b96421687528601528401528201526106b9565b565b889c94989293979a9b95996109176105c3565b9587421687528887019c8d5286019d8e5285019b808d52101561097357505251169451901b955160581b169351151560f81b1693161717177ff652222313e28459528d920b65115c16c04f3efc82aaedc97be59f3f377c0d4055565b634e487b7160e01b825260329052602490fd5b634e487b7160e01b8a526032835260248afd5b634e487b7160e01b865260118252602486fd5b989792919096505f194201964288116109f7576109029899506109ef906109d16105c3565b9063ffffffff809a16825283820152858582015287878201526106b9565b6108ef6105c3565b634e487b7160e01b855260118a52602485fd5b634e487b7160e01b885260328452602488fd5b634e487b7160e01b845260328752602484fd5b918592865b85828210610a5957505050505f80516020610b6383398151915201555f80806107c2565b610a85849660019394955160060b908560070260031b9166ffffffffffffff809116831b921b19161790565b9501929101610a35565b86875b868c8210610ab55750505f80516020610b638339815191528201556001016107ad565b865191969260019266ffffffffffffff60078a0260031b81811b19909316911690911b1792019501610a92565b6003850160021c60035f80516020610b63833981519152920160021c8201916007600388160280610b29575b50015b818110610b1e57506107a0565b5f8155600101610b11565b7f8a35acfbc15ff81a39ae7d344fd709f28e8600b4aa8c65c6b64bfe7fe36bd19a8301908154905f1990880360031b1c1690555f610b0e56fe8a35acfbc15ff81a39ae7d344fd709f28e8600b4aa8c65c6b64bfe7fe36bd19ba264697066735822122026dbaa8de8196f7f1de736d55386fece28f87644ad3aadb9ccb12d6673992edd64736f6c63430008140033","linkReferences":{}},"methodIdentifiers":{"currentTick()":"065e5360","fee()":"ddca3f43","liquidity()":"1a686502","observations(uint256)":"252c09d7","observe(uint32[])":"883bdbfd","observeReverts()":"22de7f46","poolLiquidity()":"3b228b3e","setObserveReverts(bool)":"99769579","setSqrtPrice(uint160)":"82a2423e","setTick(int24)":"c80b4290","setTickCumulatives(int56,int56)":"eb25c51f","slot0()":"3850c7bd","sqrtPriceX96()":"8db791d2","tickCumulatives(uint256)":"064a34ea","token0()":"0dfe1681","token1()":"d21220a7"},"id":53}