{"abi":[{"type":"constructor","inputs":[{"name":"_token0","type":"address","internalType":"address"},{"name":"_token1","type":"address","internalType":"address"},{"name":"_fee","type":"uint24","internalType":"uint24"}],"stateMutability":"nonpayable"},{"type":"function","name":"currentTick","inputs":[],"outputs":[{"name":"","type":"int24","internalType":"int24"}],"stateMutability":"view"},{"type":"function","name":"fee","inputs":[],"outputs":[{"name":"","type":"uint24","internalType":"uint24"}],"stateMutability":"view"},{"type":"function","name":"liquidity","inputs":[],"outputs":[{"name":"","type":"uint128","internalType":"uint128"}],"stateMutability":"view"},{"type":"function","name":"observations","inputs":[{"name":"index","type":"uint256","internalType":"uint256"}],"outputs":[{"name":"blockTimestamp","type":"uint32","internalType":"uint32"},{"name":"tickCumulative","type":"int56","internalType":"int56"},{"name":"secondsPerLiquidityCumulativeX128","type":"uint160","internalType":"uint160"},{"name":"initialized","type":"bool","internalType":"bool"}],"stateMutability":"view"},{"type":"function","name":"observe","inputs":[{"name":"secondsAgos","type":"uint32[]","internalType":"uint32[]"}],"outputs":[{"name":"_tickCumulatives","type":"int56[]","internalType":"int56[]"},{"name":"secondsPerLiquidityCumulativeX128s","type":"uint160[]","internalType":"uint160[]"}],"stateMutability":"view"},{"type":"function","name":"observeReverts","inputs":[],"outputs":[{"name":"","type":"bool","internalType":"bool"}],"stateMutability":"view"},{"type":"function","name":"poolLiquidity","inputs":[],"outputs":[{"name":"","type":"uint128","internalType":"uint128"}],"stateMutability":"view"},{"type":"function","name":"setObserveReverts","inputs":[{"name":"_r","type":"bool","internalType":"bool"}],"outputs":[],"stateMutability":"nonpayable"},{"type":"function","name":"setSqrtPrice","inputs":[{"name":"_sqrt","type":"uint160","internalType":"uint160"}],"outputs":[],"stateMutability":"nonpayable"},{"type":"function","name":"setSwapReverts","inputs":[{"name":"r","type":"bool","internalType":"bool"}],"outputs":[],"stateMutability":"nonpayable"},{"type":"function","name":"setTick","inputs":[{"name":"_tick","type":"int24","internalType":"int24"}],"outputs":[],"stateMutability":"nonpayable"},{"type":"function","name":"setTickCumulatives","inputs":[{"name":"old_","type":"int56","internalType":"int56"},{"name":"curr","type":"int56","internalType":"int56"}],"outputs":[],"stateMutability":"nonpayable"},{"type":"function","name":"slot0","inputs":[],"outputs":[{"name":"_sqrtPriceX96","type":"uint160","internalType":"uint160"},{"name":"_tick","type":"int24","internalType":"int24"},{"name":"","type":"uint16","internalType":"uint16"},{"name":"","type":"uint16","internalType":"uint16"},{"name":"","type":"uint16","internalType":"uint16"},{"name":"","type":"uint8","internalType":"uint8"}],"stateMutability":"view"},{"type":"function","name":"sqrtPriceX96","inputs":[],"outputs":[{"name":"","type":"uint160","internalType":"uint160"}],"stateMutability":"view"},{"type":"function","name":"swap","inputs":[{"name":"recipient","type":"address","internalType":"address"},{"name":"zeroForOne","type":"bool","internalType":"bool"},{"name":"amountSpecified","type":"int256","internalType":"int256"},{"name":"","type":"uint160","internalType":"uint160"},{"name":"data","type":"bytes","internalType":"bytes"}],"outputs":[{"name":"amount0","type":"int256","internalType":"int256"},{"name":"amount1","type":"int256","internalType":"int256"}],"stateMutability":"nonpayable"},{"type":"function","name":"swapReverts","inputs":[],"outputs":[{"name":"","type":"bool","internalType":"bool"}],"stateMutability":"view"},{"type":"function","name":"tickCumulatives","inputs":[{"name":"","type":"uint256","internalType":"uint256"}],"outputs":[{"name":"","type":"int56","internalType":"int56"}],"stateMutability":"view"},{"type":"function","name":"token0","inputs":[],"outputs":[{"name":"","type":"address","internalType":"address"}],"stateMutability":"view"},{"type":"function","name":"token1","inputs":[],"outputs":[{"name":"","type":"address","internalType":"address"}],"stateMutability":"view"}],"bytecode":{"object":"0x6080346200021a57601f620017a738819003918201601f19168301926001600160401b03929091838511838610176200021e5781606092849260409788528339810103126200021a57620000538162000232565b9083620000636020830162000232565b9101519062ffffff821682036200021a575f80546001600160a01b03199081166001600160a01b0395861617825560018054600280549093166c010000000000000000000000001790925560a09490941b62ffffff60a01b166001600160d01b03199091169290941691909117929092179055600380546001600160801b031916670de0b6b3a764000017905582519160808301908111838210176200020657835263ffffffff90814216835260208301818152848401928284526060850192600184526006549068010000000000000000821015620001f2576001820180600655821015620001de5760069052945191519351925160209490941b6affffffffffffff000000001691161760589190911b600160581b600160f81b03161790151560f81b7fff0000000000000000000000000000000000000000000000000000000000000016177ff652222313e28459528d920b65115c16c04f3efc82aaedc97be59f3f377c0d3f909101555161155f9081620002488239f35b634e487b7160e01b81526032600452602490fd5b634e487b7160e01b81526041600452602490fd5b634e487b7160e01b82526041600452602482fd5b5f80fd5b634e487b7160e01b5f52604160045260245ffd5b51906001600160a01b03821682036200021a5756fe604060808152600480361015610013575f80fd5b5f91823560e01c8063064a34ea14610e6b578063065e536014610e465780630dfe168114610e1e578063128acb0814610b535780631a68650214610a6657806322de7f4614610b2f578063252c09d714610ae45780633850c7bd14610a975780633b228b3e14610a6657806382a2423e14610a25578063883bdbfd1461083c5780638db791d21461081357806399769579146107e6578063c80b4290146101db578063c9b1d8f6146101a4578063d21220a71461017b578063d2a0e2e614610154578063ddca3f431461012d5763eb25c51f146100ee575f80fd5b346101295736600319011261012557358060060b8103610121576024358060060b81036101215761011e916110e1565b80f35b5f80fd5b5080fd5b8280fd5b83823461012557816003193601126101255760209062ffffff60015460a01c169051908152f35b83823461012557816003193601126101255760209060ff60055460081c1690519015158152f35b83823461012557816003193601126101255760015490516001600160a01b039091168152602090f35b83346101d85760203660031901126101d8576101be610ee6565b151561ff006005549160081b169061ff0019161760055580f35b80fd5b5090346101295760203660031901126101295780358060020b908181036107e2576001549060b81b62ffffff60b81b169062ffffff60b81b1916176001558381125f146107dc5761022b81610ffb565b620d89e88111610799578491906001811615610787576001600160881b036ffffcb933bd6fad37aa2d162d1a5940015b169460028216610753575b84821661071f575b600882166106eb575b601082166106b7575b60208216610683575b8116610651575b60809081811661061e575b61010081166105eb575b61020081166105b8575b6104008116610585575b6108008116610552575b611000811661051f575b61200081166104ec575b61400081166104b9575b6180008116610486575b620100008116610453575b620200008116610421575b6204000081166103dd575b62080000166103a0575b501361037d575b63ffffffff8260201c9216155f146103745760ff835b168201809211610361575060018060a01b03166bffffffffffffffffffffffff60a01b600254161760025580f35b634e487b7160e01b835260119052602482fd5b60ff6001610333565b90801561038d575f19049061031d565b634e487b7160e01b835260128252602483fd5b90936b048a170391f7dc42444e8fa2808202935081159184041417156103ca571c9183905f610316565b634e487b7160e01b855260118352602485fd5b94909192506d2216e584f5fa1ea926041bedfe989081810291818304149015171561040e57811c938592919061030c565b634e487b7160e01b865260118452602486fd5b94909192506e5d6af8dedb81196699c329225ee6049081810291818304149015171561040e5790859291811c94610301565b94909192506f09aa508b5b7a84e1c677de54f3e99bc99081810291818304149015171561040e5790859291811c946102f6565b94909192506f31be135f97d08fd981231505542fcfa69081810291818304149015171561040e5790859291811c946102eb565b94909192506f70d869a156d2a1b890bb3df62baf32f79081810291818304149015171561040e5790859291811c946102e1565b94909192506fa9f746462d870fdf8a65dc1f90e061e59081810291818304149015171561040e5790859291811c946102d7565b94909192506fd097f3bdfd2022b8845ad8f792aa58259081810291818304149015171561040e5790859291811c946102cd565b94909192506fe7159475a2c29b7443b29c7fa6e889d99081810291818304149015171561040e5790859291811c946102c3565b94909192506ff3392b0822b70005940c7a398e4b70f39081810291818304149015171561040e5790859291811c946102b9565b94909192506ff987a7253ac413176f2b074cf7815e549081810291818304149015171561040e5790859291811c946102af565b94909192506ffcbe86c7900a88aedcffc83b479aa3a49081810291818304149015171561040e5790859291811c946102a5565b94909192506ffe5dee046a99a2a811c461f1969c30539081810291818304149015171561040e5790859291811c9461029b565b939091506fff2ea16466c96a3843ec78b326b52861908181029181830414901517156103ca5790849160801c93610290565b94909192506fff973b41fa98c081472e6896dfb254c09081810291818304149015171561040e579085929160801c94610289565b94909192506fffcb9843d60f6159c9db58835c9266449081810291818304149015171561040e579085929160801c94610280565b94909192506fffe5caca7e10e4e61c3624eaa0941cd09081810291818304149015171561040e579085929160801c94610277565b94909192506ffff2e50f5f656932ef12357cf3c7fdcc9081810291818304149015171561040e579085929160801c9461026e565b94909192506ffff97272373d413259a46990580e213a9081810291818304149015171561040e579085929160801c94610266565b6001600160881b03600160801b61025b565b835162461bcd60e51b8152602081850152601c60248201527f5469636b4d6174683a207469636b206f7574206f6620626f756e6473000000006044820152606490fd5b8061022b565b8480fd5b83346101d85760203660031901126101d857610800610ee6565b151560ff80196005541691161760055580f35b83823461012557816003193601126101255760025490516001600160a01b039091168152602090f35b50919034610125576020806003193601126101295781359267ffffffffffffffff808511610125573660238601121561012557848401359081116101255760249560059587369184891b0101116101295760ff8654166109e45761089f82610f5b565b966108ac82519889610f39565b8288526108b883610f5b565b9685890196601f19809901368937848154101561097d575b5050509594939192906108fa6108e582610f5b565b916108f289519384610f39565b808352610f5b565b8183019501368637865196879681880191885251809152606087019390855b81811061096357505050858303868301525180835291810193925b82811061094357505050500390f35b83516001600160a01b031685528695509381019392810192600101610934565b825160060b86528998509484019491840191600101610919565b855b85811061098c57506108d0565b61099581610ea6565b9054908c518310156109d25760031b1c60060b81841b8c018901525f1981146109c05760010161097f565b634e487b7160e01b8752601182528387fd5b634e487b7160e01b8952603284528589fd5b5162461bcd60e51b81528085018490526019818801527f4d6f636b506f6f6c3a206f6273657276652072657665727473000000000000006044820152606490fd5b50503461012557602036600319011261012557356001600160a01b03811690819003610121576bffffffffffffffffffffffff60a01b600254161760025580f35b8382346101255781600319360112610125576020906fffffffffffffffffffffffffffffffff600354169051908152f35b8382346101255781600319360112610125578160c09260018060a01b03600254169260015460b81c60020b81519485526020850152830152600160608301526001608083015260a0820152f35b5082346101d85760203660031901126101d85750610b0460809235610f73565b92939163ffffffff83519516855260060b602085015260018060a01b03169083015215156060820152f35b83823461012557816003193601126101255760209060ff6005541690519015158152f35b509190346101255760a0366003190112610125578035916001600160a01b039182841684036101255760249081358015158103610e1a5760443592606435868116036107e2576084359367ffffffffffffffff92838611610e165736602387011215610e165785850135938411610e165736838588010111610e165760ff60055460081c16610ddc5786821315610da15760025488169015610d135780610bfd610c05928461101f565b60601c61101f565b60601c9097610c1382610ffb565b976001541690813b15610d0f578a516340c10f1960e01b81526001600160a01b039091168682019081526020810193909352918791839182908490829060400103925af18015610d0557908691610cf1575b50505b333b156107e25784928288936084938b51978896879563fa461e3360e01b87528601528a828601526060604486015282606486015201848401378181018301859052601f01601f1916810103018183335af18015610ce757610cd3575b505082519182526020820152f35b610cdd8291610ef5565b6101d85780610cc5565b85513d84823e3d90fd5b610cfa90610ef5565b6107e257845f610c65565b89513d88823e3d90fd5b8780fd5b80610d27610d2f928460609c9b9c1b611032565b60601b611032565b9096610d3a82610ffb565b9887541690813b15610d0f578a516340c10f1960e01b81526001600160a01b039091168682019081526020810193909352918791839182908490829060400103925af18015610d0557610d8e575b50610c68565b610d9a90959195610ef5565b935f610d88565b895162461bcd60e51b8152602081870152601681850152754d6f636b506f6f6c3a206578616374496e206f6e6c7960501b6044820152606490fd5b895162461bcd60e51b815260208187015260158185015274135bd8dad41bdbdb0e881cddd85c0819985a5b1959605a1b6044820152606490fd5b8680fd5b8380fd5b838234610125578160031936011261012557905490516001600160a01b039091168152602090f35b83823461012557816003193601126101255760209060015460b81c60020b9051908152f35b5082346101d85760203660031901126101d857823592548310156101d85750610e95602092610ea6565b91905490519160031b1c60060b8152f35b90600454821015610ed25760045f52600760038360021c5f8051602061150a8339815191520193160290565b634e487b7160e01b5f52603260045260245ffd5b60043590811515820361012157565b67ffffffffffffffff8111610f0957604052565b634e487b7160e01b5f52604160045260245ffd5b6080810190811067ffffffffffffffff821117610f0957604052565b90601f8019910116810190811067ffffffffffffffff821117610f0957604052565b67ffffffffffffffff8111610f095760051b60200190565b90600654821015610ff05760065f52606060405192610f9184610f1d565b7ff652222313e28459528d920b65115c16c04f3efc82aaedc97be59f3f377c0d3f01549163ffffffff83168085528360201c60060b9485602082015260018060a01b038560581c169485604083015260f81c1515938491015293929190565b5f9150819081908190565b600160ff1b811461100b575f0390565b634e487b7160e01b5f52601160045260245ffd5b8181029291811591840414171561100b57565b811561103c570490565b634e487b7160e01b5f52601260045260245ffd5b60065490600160401b821015610f09576001820180600655821015610ed25760065f5263ffffffff81511690602081015160201b916affffffffffffff00000000600160581b600160f81b03604084015160581b1692606060ff60f81b910151151560f81b169316171717907ff652222313e28459528d920b65115c16c04f3efc82aaedc97be59f3f377c0d3f0155565b906040918251916060908184019067ffffffffffffffff9185811083821117610f09578652600285526020808601958736883751928311610f0957600160401b8311610f09576004958654848855808510611489575b505f938785528060021c90855b828110611436575060031981169003806113d7575b50505085549485156113c45760069681880b915f8051602061150a8339815191529081546001998a10156113b15783885266ffffffffffffff878c0b9760381b6dffffffffffffff00000000000000169216906dffffffffffffffffffffffffffff19161717905587541561134c575f19420197428911611339578951906111e082610f1d565b63ffffffff809a1682528482019384528a820192878452888301928a84528254908115611326578c90848b5251169551871b94519460ff60f81b9586955115156affffffffffffff000000009889600160581b600160f81b0398899360f81b169416179160581b1617177ff652222313e28459528d920b65115c16c04f3efc82aaedc97be59f3f377c0d3f558a81145f146112a15750505050505090869161129f97519661128d88610f1d565b42168752860152840152820152611050565b565b889c94989293979a9b95998551956112b887610f1d565b87421687528887019c8d5286019d8e5285019b808d52101561131357505251169451901b955160581b169351151560f81b1693161717177ff652222313e28459528d920b65115c16c04f3efc82aaedc97be59f3f377c0d4055565b634e487b7160e01b825260329052602490fd5b634e487b7160e01b8a526032835260248afd5b634e487b7160e01b865260118252602486fd5b989792919096505f1942019642881161139e5761129f9899506113929084519061137582610f1d565b63ffffffff809a1682528382015285858201528787820152611050565b82519661128d88610f1d565b634e487b7160e01b855260118a52602485fd5b634e487b7160e01b885260328452602488fd5b634e487b7160e01b845260328752602484fd5b918592865b8582821061140057505050505f8051602061150a83398151915201555f8080611159565b61142c849660019394955160060b908560070260031b9166ffffffffffffff809116831b921b19161790565b95019291016113dc565b86875b868c821061145c5750505f8051602061150a833981519152820155600101611144565b865191969260019266ffffffffffffff60078a0260031b81811b19909316911690911b1792019501611439565b6003850160021c60035f8051602061150a833981519152920160021c82019160076003881602806114d0575b50015b8181106114c55750611137565b5f81556001016114b8565b7f8a35acfbc15ff81a39ae7d344fd709f28e8600b4aa8c65c6b64bfe7fe36bd19a8301908154905f1990880360031b1c1690555f6114b556fe8a35acfbc15ff81a39ae7d344fd709f28e8600b4aa8c65c6b64bfe7fe36bd19ba26469706673582212208f90d6e14f01fcc81e1eb819b29b40fa04f5380fb5262eeb961f679ac64ff1dc64736f6c63430008140033","linkReferences":{}},"methodIdentifiers":{"currentTick()":"065e5360","fee()":"ddca3f43","liquidity()":"1a686502","observations(uint256)":"252c09d7","observe(uint32[])":"883bdbfd","observeReverts()":"22de7f46","poolLiquidity()":"3b228b3e","setObserveReverts(bool)":"99769579","setSqrtPrice(uint160)":"82a2423e","setSwapReverts(bool)":"c9b1d8f6","setTick(int24)":"c80b4290","setTickCumulatives(int56,int56)":"eb25c51f","slot0()":"3850c7bd","sqrtPriceX96()":"8db791d2","swap(address,bool,int256,uint160,bytes)":"128acb08","swapReverts()":"d2a0e2e6","tickCumulatives(uint256)":"064a34ea","token0()":"0dfe1681","token1()":"d21220a7"},"id":52}