{"abi":[{"type":"constructor","inputs":[{"name":"_asset","type":"address","internalType":"address"},{"name":"_strategy","type":"address","internalType":"address"},{"name":"_treasury","type":"address","internalType":"address"},{"name":"_admin","type":"address","internalType":"address"},{"name":"_name","type":"string","internalType":"string"},{"name":"_symbol","type":"string","internalType":"string"}],"stateMutability":"nonpayable"},{"type":"function","name":"ADMIN_TIMELOCK_DELAY","inputs":[],"outputs":[{"name":"","type":"uint256","internalType":"uint256"}],"stateMutability":"view"},{"type":"function","name":"DEFAULT_ADMIN_ROLE","inputs":[],"outputs":[{"name":"","type":"bytes32","internalType":"bytes32"}],"stateMutability":"view"},{"type":"function","name":"EMERGENCY_ROLE","inputs":[],"outputs":[{"name":"","type":"bytes32","internalType":"bytes32"}],"stateMutability":"view"},{"type":"function","name":"KEEPER_ROLE","inputs":[],"outputs":[{"name":"","type":"bytes32","internalType":"bytes32"}],"stateMutability":"view"},{"type":"function","name":"MAX_DEPOSIT_PER_TX","inputs":[],"outputs":[{"name":"","type":"uint256","internalType":"uint256"}],"stateMutability":"view"},{"type":"function","name":"MIN_INITIAL_SHARES","inputs":[],"outputs":[{"name":"","type":"uint256","internalType":"uint256"}],"stateMutability":"view"},{"type":"function","name":"allowance","inputs":[{"name":"owner","type":"address","internalType":"address"},{"name":"spender","type":"address","internalType":"address"}],"outputs":[{"name":"","type":"uint256","internalType":"uint256"}],"stateMutability":"view"},{"type":"function","name":"approve","inputs":[{"name":"spender","type":"address","internalType":"address"},{"name":"value","type":"uint256","internalType":"uint256"}],"outputs":[{"name":"","type":"bool","internalType":"bool"}],"stateMutability":"nonpayable"},{"type":"function","name":"asset","inputs":[],"outputs":[{"name":"","type":"address","internalType":"address"}],"stateMutability":"view"},{"type":"function","name":"balanceOf","inputs":[{"name":"account","type":"address","internalType":"address"}],"outputs":[{"name":"","type":"uint256","internalType":"uint256"}],"stateMutability":"view"},{"type":"function","name":"cancelAdminChange","inputs":[],"outputs":[],"stateMutability":"nonpayable"},{"type":"function","name":"compoundFees","inputs":[],"outputs":[],"stateMutability":"nonpayable"},{"type":"function","name":"convertToAssets","inputs":[{"name":"shares","type":"uint256","internalType":"uint256"}],"outputs":[{"name":"","type":"uint256","internalType":"uint256"}],"stateMutability":"view"},{"type":"function","name":"convertToShares","inputs":[{"name":"assets","type":"uint256","internalType":"uint256"}],"outputs":[{"name":"","type":"uint256","internalType":"uint256"}],"stateMutability":"view"},{"type":"function","name":"decimals","inputs":[],"outputs":[{"name":"","type":"uint8","internalType":"uint8"}],"stateMutability":"view"},{"type":"function","name":"deposit","inputs":[{"name":"assets","type":"uint256","internalType":"uint256"},{"name":"receiver","type":"address","internalType":"address"}],"outputs":[{"name":"shares","type":"uint256","internalType":"uint256"}],"stateMutability":"nonpayable"},{"type":"function","name":"depositDual","inputs":[{"name":"amount0","type":"uint256","internalType":"uint256"},{"name":"amount1","type":"uint256","internalType":"uint256"},{"name":"minShares","type":"uint256","internalType":"uint256"}],"outputs":[{"name":"shares","type":"uint256","internalType":"uint256"}],"stateMutability":"nonpayable"},{"type":"function","name":"depositWithMinShares","inputs":[{"name":"assets","type":"uint256","internalType":"uint256"},{"name":"minShares","type":"uint256","internalType":"uint256"}],"outputs":[{"name":"shares","type":"uint256","internalType":"uint256"}],"stateMutability":"nonpayable"},{"type":"function","name":"executeAdminChange","inputs":[],"outputs":[],"stateMutability":"nonpayable"},{"type":"function","name":"getRoleAdmin","inputs":[{"name":"role","type":"bytes32","internalType":"bytes32"}],"outputs":[{"name":"","type":"bytes32","internalType":"bytes32"}],"stateMutability":"view"},{"type":"function","name":"grantRole","inputs":[{"name":"role","type":"bytes32","internalType":"bytes32"},{"name":"account","type":"address","internalType":"address"}],"outputs":[],"stateMutability":"nonpayable"},{"type":"function","name":"hasRole","inputs":[{"name":"role","type":"bytes32","internalType":"bytes32"},{"name":"account","type":"address","internalType":"address"}],"outputs":[{"name":"","type":"bool","internalType":"bool"}],"stateMutability":"view"},{"type":"function","name":"lastFeeTimestamp","inputs":[],"outputs":[{"name":"","type":"uint256","internalType":"uint256"}],"stateMutability":"view"},{"type":"function","name":"managementFeeBps","inputs":[],"outputs":[{"name":"","type":"uint256","internalType":"uint256"}],"stateMutability":"view"},{"type":"function","name":"maxDeposit","inputs":[{"name":"","type":"address","internalType":"address"}],"outputs":[{"name":"","type":"uint256","internalType":"uint256"}],"stateMutability":"view"},{"type":"function","name":"maxMint","inputs":[{"name":"","type":"address","internalType":"address"}],"outputs":[{"name":"","type":"uint256","internalType":"uint256"}],"stateMutability":"view"},{"type":"function","name":"maxRedeem","inputs":[{"name":"owner","type":"address","internalType":"address"}],"outputs":[{"name":"","type":"uint256","internalType":"uint256"}],"stateMutability":"view"},{"type":"function","name":"maxWithdraw","inputs":[{"name":"owner","type":"address","internalType":"address"}],"outputs":[{"name":"","type":"uint256","internalType":"uint256"}],"stateMutability":"view"},{"type":"function","name":"mint","inputs":[{"name":"shares","type":"uint256","internalType":"uint256"},{"name":"receiver","type":"address","internalType":"address"}],"outputs":[{"name":"assets","type":"uint256","internalType":"uint256"}],"stateMutability":"nonpayable"},{"type":"function","name":"name","inputs":[],"outputs":[{"name":"","type":"string","internalType":"string"}],"stateMutability":"view"},{"type":"function","name":"pause","inputs":[],"outputs":[],"stateMutability":"nonpayable"},{"type":"function","name":"paused","inputs":[],"outputs":[{"name":"","type":"bool","internalType":"bool"}],"stateMutability":"view"},{"type":"function","name":"pendingEta","inputs":[],"outputs":[{"name":"","type":"uint256","internalType":"uint256"}],"stateMutability":"view"},{"type":"function","name":"pendingKind","inputs":[],"outputs":[{"name":"","type":"uint8","internalType":"enum MezRangeVault.PendingKind"}],"stateMutability":"view"},{"type":"function","name":"pendingValue","inputs":[],"outputs":[{"name":"","type":"uint256","internalType":"uint256"}],"stateMutability":"view"},{"type":"function","name":"performanceFeeBps","inputs":[],"outputs":[{"name":"","type":"uint256","internalType":"uint256"}],"stateMutability":"view"},{"type":"function","name":"previewDeposit","inputs":[{"name":"assets","type":"uint256","internalType":"uint256"}],"outputs":[{"name":"","type":"uint256","internalType":"uint256"}],"stateMutability":"view"},{"type":"function","name":"previewMint","inputs":[{"name":"shares","type":"uint256","internalType":"uint256"}],"outputs":[{"name":"","type":"uint256","internalType":"uint256"}],"stateMutability":"view"},{"type":"function","name":"previewRedeem","inputs":[{"name":"shares","type":"uint256","internalType":"uint256"}],"outputs":[{"name":"","type":"uint256","internalType":"uint256"}],"stateMutability":"view"},{"type":"function","name":"previewWithdraw","inputs":[{"name":"assets","type":"uint256","internalType":"uint256"}],"outputs":[{"name":"","type":"uint256","internalType":"uint256"}],"stateMutability":"view"},{"type":"function","name":"proposeManagementFee","inputs":[{"name":"_bps","type":"uint256","internalType":"uint256"}],"outputs":[],"stateMutability":"nonpayable"},{"type":"function","name":"proposePerformanceFee","inputs":[{"name":"_bps","type":"uint256","internalType":"uint256"}],"outputs":[],"stateMutability":"nonpayable"},{"type":"function","name":"proposeTreasury","inputs":[{"name":"_treasury","type":"address","internalType":"address"}],"outputs":[],"stateMutability":"nonpayable"},{"type":"function","name":"redeem","inputs":[{"name":"shares","type":"uint256","internalType":"uint256"},{"name":"receiver","type":"address","internalType":"address"},{"name":"owner","type":"address","internalType":"address"}],"outputs":[{"name":"assets","type":"uint256","internalType":"uint256"}],"stateMutability":"nonpayable"},{"type":"function","name":"redeemWithMinAssets","inputs":[{"name":"shares","type":"uint256","internalType":"uint256"},{"name":"minAssets","type":"uint256","internalType":"uint256"}],"outputs":[{"name":"assets","type":"uint256","internalType":"uint256"}],"stateMutability":"nonpayable"},{"type":"function","name":"renounceRole","inputs":[{"name":"role","type":"bytes32","internalType":"bytes32"},{"name":"callerConfirmation","type":"address","internalType":"address"}],"outputs":[],"stateMutability":"nonpayable"},{"type":"function","name":"revokeRole","inputs":[{"name":"role","type":"bytes32","internalType":"bytes32"},{"name":"account","type":"address","internalType":"address"}],"outputs":[],"stateMutability":"nonpayable"},{"type":"function","name":"strategy","inputs":[],"outputs":[{"name":"","type":"address","internalType":"contract MezRangeStrategyV2"}],"stateMutability":"view"},{"type":"function","name":"supportsInterface","inputs":[{"name":"interfaceId","type":"bytes4","internalType":"bytes4"}],"outputs":[{"name":"","type":"bool","internalType":"bool"}],"stateMutability":"view"},{"type":"function","name":"symbol","inputs":[],"outputs":[{"name":"","type":"string","internalType":"string"}],"stateMutability":"view"},{"type":"function","name":"totalAssets","inputs":[],"outputs":[{"name":"","type":"uint256","internalType":"uint256"}],"stateMutability":"view"},{"type":"function","name":"totalSupply","inputs":[],"outputs":[{"name":"","type":"uint256","internalType":"uint256"}],"stateMutability":"view"},{"type":"function","name":"transfer","inputs":[{"name":"to","type":"address","internalType":"address"},{"name":"value","type":"uint256","internalType":"uint256"}],"outputs":[{"name":"","type":"bool","internalType":"bool"}],"stateMutability":"nonpayable"},{"type":"function","name":"transferFrom","inputs":[{"name":"from","type":"address","internalType":"address"},{"name":"to","type":"address","internalType":"address"},{"name":"value","type":"uint256","internalType":"uint256"}],"outputs":[{"name":"","type":"bool","internalType":"bool"}],"stateMutability":"nonpayable"},{"type":"function","name":"treasury","inputs":[],"outputs":[{"name":"","type":"address","internalType":"address"}],"stateMutability":"view"},{"type":"function","name":"unpause","inputs":[],"outputs":[],"stateMutability":"nonpayable"},{"type":"function","name":"withdraw","inputs":[{"name":"assets","type":"uint256","internalType":"uint256"},{"name":"receiver","type":"address","internalType":"address"},{"name":"owner","type":"address","internalType":"address"}],"outputs":[{"name":"shares","type":"uint256","internalType":"uint256"}],"stateMutability":"nonpayable"},{"type":"event","name":"AdminChangeCancelled","inputs":[{"name":"kind","type":"uint8","indexed":true,"internalType":"enum MezRangeVault.PendingKind"}],"anonymous":false},{"type":"event","name":"AdminChangeProposed","inputs":[{"name":"kind","type":"uint8","indexed":true,"internalType":"enum MezRangeVault.PendingKind"},{"name":"value","type":"uint256","indexed":false,"internalType":"uint256"},{"name":"eta","type":"uint256","indexed":false,"internalType":"uint256"}],"anonymous":false},{"type":"event","name":"Approval","inputs":[{"name":"owner","type":"address","indexed":true,"internalType":"address"},{"name":"spender","type":"address","indexed":true,"internalType":"address"},{"name":"value","type":"uint256","indexed":false,"internalType":"uint256"}],"anonymous":false},{"type":"event","name":"Deposit","inputs":[{"name":"sender","type":"address","indexed":true,"internalType":"address"},{"name":"owner","type":"address","indexed":true,"internalType":"address"},{"name":"assets","type":"uint256","indexed":false,"internalType":"uint256"},{"name":"shares","type":"uint256","indexed":false,"internalType":"uint256"}],"anonymous":false},{"type":"event","name":"FeesCharged","inputs":[{"name":"performanceFee","type":"uint256","indexed":false,"internalType":"uint256"},{"name":"managementFee","type":"uint256","indexed":false,"internalType":"uint256"}],"anonymous":false},{"type":"event","name":"ManagementFeeUpdated","inputs":[{"name":"newBps","type":"uint256","indexed":false,"internalType":"uint256"}],"anonymous":false},{"type":"event","name":"Paused","inputs":[{"name":"account","type":"address","indexed":false,"internalType":"address"}],"anonymous":false},{"type":"event","name":"PerformanceFeeUpdated","inputs":[{"name":"newBps","type":"uint256","indexed":false,"internalType":"uint256"}],"anonymous":false},{"type":"event","name":"RoleAdminChanged","inputs":[{"name":"role","type":"bytes32","indexed":true,"internalType":"bytes32"},{"name":"previousAdminRole","type":"bytes32","indexed":true,"internalType":"bytes32"},{"name":"newAdminRole","type":"bytes32","indexed":true,"internalType":"bytes32"}],"anonymous":false},{"type":"event","name":"RoleGranted","inputs":[{"name":"role","type":"bytes32","indexed":true,"internalType":"bytes32"},{"name":"account","type":"address","indexed":true,"internalType":"address"},{"name":"sender","type":"address","indexed":true,"internalType":"address"}],"anonymous":false},{"type":"event","name":"RoleRevoked","inputs":[{"name":"role","type":"bytes32","indexed":true,"internalType":"bytes32"},{"name":"account","type":"address","indexed":true,"internalType":"address"},{"name":"sender","type":"address","indexed":true,"internalType":"address"}],"anonymous":false},{"type":"event","name":"SlippageDelta","inputs":[{"name":"delta","type":"uint256","indexed":false,"internalType":"uint256"}],"anonymous":false},{"type":"event","name":"Transfer","inputs":[{"name":"from","type":"address","indexed":true,"internalType":"address"},{"name":"to","type":"address","indexed":true,"internalType":"address"},{"name":"value","type":"uint256","indexed":false,"internalType":"uint256"}],"anonymous":false},{"type":"event","name":"TreasuryUpdated","inputs":[{"name":"newTreasury","type":"address","indexed":false,"internalType":"address"}],"anonymous":false},{"type":"event","name":"Unpaused","inputs":[{"name":"account","type":"address","indexed":false,"internalType":"address"}],"anonymous":false},{"type":"event","name":"Withdraw","inputs":[{"name":"sender","type":"address","indexed":true,"internalType":"address"},{"name":"receiver","type":"address","indexed":true,"internalType":"address"},{"name":"owner","type":"address","indexed":true,"internalType":"address"},{"name":"assets","type":"uint256","indexed":false,"internalType":"uint256"},{"name":"shares","type":"uint256","indexed":false,"internalType":"uint256"}],"anonymous":false},{"type":"error","name":"AccessControlBadConfirmation","inputs":[]},{"type":"error","name":"AccessControlUnauthorizedAccount","inputs":[{"name":"account","type":"address","internalType":"address"},{"name":"neededRole","type":"bytes32","internalType":"bytes32"}]},{"type":"error","name":"ERC20InsufficientAllowance","inputs":[{"name":"spender","type":"address","internalType":"address"},{"name":"allowance","type":"uint256","internalType":"uint256"},{"name":"needed","type":"uint256","internalType":"uint256"}]},{"type":"error","name":"ERC20InsufficientBalance","inputs":[{"name":"sender","type":"address","internalType":"address"},{"name":"balance","type":"uint256","internalType":"uint256"},{"name":"needed","type":"uint256","internalType":"uint256"}]},{"type":"error","name":"ERC20InvalidApprover","inputs":[{"name":"approver","type":"address","internalType":"address"}]},{"type":"error","name":"ERC20InvalidReceiver","inputs":[{"name":"receiver","type":"address","internalType":"address"}]},{"type":"error","name":"ERC20InvalidSender","inputs":[{"name":"sender","type":"address","internalType":"address"}]},{"type":"error","name":"ERC20InvalidSpender","inputs":[{"name":"spender","type":"address","internalType":"address"}]},{"type":"error","name":"EnforcedPause","inputs":[]},{"type":"error","name":"ExceedsMaxDeposit","inputs":[]},{"type":"error","name":"ExpectedPause","inputs":[]},{"type":"error","name":"InsufficientShares","inputs":[]},{"type":"error","name":"MaxSlippageExceeded","inputs":[]},{"type":"error","name":"NoPendingChange","inputs":[]},{"type":"error","name":"PendingChangeExists","inputs":[]},{"type":"error","name":"ReentrancyGuardReentrantCall","inputs":[]},{"type":"error","name":"SafeERC20FailedOperation","inputs":[{"name":"token","type":"address","internalType":"address"}]},{"type":"error","name":"TimelockNotElapsed","inputs":[]},{"type":"error","name":"ZeroAmount","inputs":[]}],"bytecode":{"object":"0x60c0604052346200045b5762003e25803803806200001d816200045f565b928339810160c0828203126200045b57620000388262000485565b906020916200004983850162000485565b90620000586040860162000485565b92620000676060870162000485565b60808701516001600160401b0397919691908881116200045b57836200008f9183016200049a565b9260a08201518981116200045b57620000a992016200049a565b96825181811162000366576003908154906001958683811c9316801562000450575b868410146200043c578190601f93848111620003e9575b50869084831160011462000386575f926200037a575b50505f1982851b1c191690861b1782555b8951928311620003665760049384548681811c911680156200035b575b82821014620003485782811162000300575b5080918411600114620002915750908291620001e49a5f9362000285575b505082851b925f19911b1c19161790555b7f9b779b17422d0df92223018b32b4d1fa46e071723d6817e2486d003becc55f00556103e8600755606460089081556080919091526001600160a01b039190911660a05260068054610100600160a81b0319169290911b610100600160a81b031691909117905542600955620001dd816200050a565b5062000589565b506040516137da90816200062b82396080518181816107740152818161090b01528181610de1015281816112bc0152818161160101528181611cfc015281816123fa0152818161265e015281816129fd0152612b5f015260a05181818161069801528181610ae201528181610e5b015281816112f701528181611588015281816116a201528181612446015281816126de015281816129c70152612d490152f35b015191505f8062000156565b9299601f198b16855f52845f20945f905b828210620002e8575050918b9391620001e49c88969410620002ce575b50505050811b01905562000167565b01519060f8845f19921b161c191690555f808080620002bf565b808986988294978701518155019701940190620002a2565b855f52815f208380870160051c8201928488106200033e575b0160051c019087905b8281106200033257505062000138565b5f815501879062000322565b9250819262000319565b602286634e487b7160e01b5f525260245ffd5b90607f169062000126565b634e487b7160e01b5f52604160045260245ffd5b015190505f80620000f8565b90889350601f19831691865f52885f20925f5b8a828210620003d25750508411620003ba575b505050811b01825562000109565b01515f1983871b60f8161c191690555f8080620003ac565b8385015186558c9790950194938401930162000399565b909150845f52865f208480850160051c82019289861062000432575b918a91869594930160051c01915b82811062000423575050620000e2565b5f81558594508a910162000413565b9250819262000405565b634e487b7160e01b5f52602260045260245ffd5b92607f1692620000cb565b5f80fd5b6040519190601f01601f191682016001600160401b038111838210176200036657604052565b51906001600160a01b03821682036200045b57565b919080601f840112156200045b5782516001600160401b0381116200036657602090620004d0601f8201601f191683016200045f565b928184528282870101116200045b575f5b818110620004f65750825f9394955001015290565b8581018301518482018401528201620004e1565b6001600160a01b03165f8181527f05b8ccbb9d4d8fb16ea74ce3c29a41f1b461fbdaff4714a0d9a8eb05499746bc602052604081205490919060ff16620005855781805260056020526040822081835260205260408220600160ff1982541617905533915f8051602062003e058339815191528180a4600190565b5090565b6001600160a01b03165f8181527ffbc93671eda18a3103415c6de11b46be272fd03129c33970fab0bfd26d35c8a060205260408120549091907fbf233dd2aafeb4d50879c4aa5c81e96d92f6e6945c906a58f9f2d1c1631b4b269060ff16620006255780835260056020526040832082845260205260408320600160ff198254161790555f8051602062003e05833981519152339380a4600190565b50509056fe60406080815260049081361015610014575f80fd5b5f90813560e01c806301e1d1141461229e57806301ffc9a71461224857806304b9e7711461218f57806306fdde031461209a57806307a2d13a14611156578063095ea7b314611ff05780630a28a47714611fd05780631157b26714611f4457806318160ddd14611f265780631dba2e5714611ee957806320df435914611eaf57806323b872dd14611e73578063248a9ca314611e4857806325efa62b14611e2b5780632f2ff15d14611e01578063313ce56714611de6578063357dbd2314611dc8578063364bc15a14611d8e57806336568abe14611d495780633813c35a14611d2b57806338d52e0f14611ce85780633c737118146111fb5780633f4ba83a14611191578063402d267d146105b257806341f1c0d9146111765780634cdad5061461115657806352cd195d146111375780635c975abb1461111457806361d027b3146110e857806369e67996146110c85780636e553f65146110a057806370a08231146104fc5780637697d463146110825780638456cb59146110285780638b169b361461100a57806391d1485414610fc357806394bf804d14610d9257806395d89b4114610c905780639cba665714610b2b578063a217fddf14610b11578063a8c62e7614610ace578063a9059cbb14610a9e578063b3d7f6b914610a7e578063b460af941461099c578063b738fd0d14610611578063b9d4e879146105f3578063ba087652146105d8578063c63d75b6146105b2578063c6e6f59214610395578063ce96cb771461057a578063d547741f14610536578063d905777e146104fc578063da674c58146104be578063dd62ed3e14610476578063e8a422fe146103bf578063ef8b30f7146103955763f110ed6714610291575f80fd5b34610391576020366003190112610391576102aa612301565b6102b2613087565b6001600160a01b0316801561035e57600a5460ff81168581101561034b5761033b5760039060ff191617600a5580600b556202a300420180421161032857917fcade8e56d15e5d0a53c2c4d10e614d7730d118d92bffc51ba518f008ae9c9be09183600394600c5582519182526020820152a280f35b634e487b7160e01b845260118552602484fd5b8251632871ce2d60e21b81528590fd5b634e487b7160e01b855260218652602485fd5b815162461bcd60e51b8152602081860152600d60248201526c5a65726f20747265617375727960981b6044820152606490fd5b5080fd5b5090346103bc5760203660031901126103bc57506103b560209235612528565b9051908152f35b80fd5b50346103915760203660031901126103915782356103db613087565b60c8811161044a57600a5460ff81168581101561034b5761033b5760029060ff191617600a5580600b556202a300420180421161032857917fcade8e56d15e5d0a53c2c4d10e614d7730d118d92bffc51ba518f008ae9c9be09183600294600c5582519182526020820152a280f35b815162461bcd60e51b815260208186015260066024820152654d617820322560d01b6044820152606490fd5b503461039157806003193601126103915780602092610493612301565b61049b61231b565b6001600160a01b0391821683526001865283832091168252845220549051908152f35b5090346103bc57506104dc906104d336612331565b92903390612625565b9182106104ed576020925051908152f35b51637546bf8160e11b81529050fd5b5034610391576020366003190112610391576020906103b561051c612301565b6001600160a01b03165f9081526020819052604090205490565b50829034610576578060031936011261057657610572913561056d600161055b61231b565b93838752600560205286200154613139565b6131d9565b5080f35b8280fd5b5034610391576020366003190112610391576020916103b59082906001600160a01b036105a5612301565b1681528085522054612558565b5034610391576020366003190112610391576020906105cf612301565b506103b561257b565b5034610391576020906103b56105ed36612347565b9161287b565b50346103915781600319360112610391576020906007549051908152f35b5082903461057657826003193601126105765761062c613715565b6106346136f7565b7ffc8737ab85eb45125971625a9ebdb75cc78e01d5c1fa80c4c6e5203f47bc4fab80845260209060058252828520338652825260ff83862054161561097e575061067c612c3d565b815163a480ca7960e01b815230818501526001600160a01b03937f00000000000000000000000000000000000000000000000000000000000000008516929084836024818a885af1908115610974578780948193610935575b506106fc9561070b60075496610705612710806106f28b856124f7565b049a8b9a896124f7565b0498899261258e565b9561258e565b98876108fc575b866108a2575b8415801590610899575b61076c575b50505050507f4fed68db354fc9a4a85e24ef5dc3a7bea31a6b507ecaaa263f65fa1c70ab647c94508351928352820152a160015f805160206137658339815191525580f35b6107998583837f0000000000000000000000000000000000000000000000000000000000000000166135e9565b885163d21220a760e01b815286818681865afa90811561088f578b8486948a999896946107d09460449991610862575b50166135e9565b89519a8b958694634e6a20ed60e11b865285015260248401525af1801561085857610800575b8480878180610727565b8085813d8311610851575b610815818361237c565b8101031261084d576108477f4fed68db354fc9a4a85e24ef5dc3a7bea31a6b507ecaaa263f65fa1c70ab647c95612867565b506107f6565b8580fd5b503d61080b565b84513d88823e3d90fd5b61088291508b3d8d11610888575b61087a818361237c565b81019061293f565b5f6107c9565b503d610870565b8a513d86823e3d90fd5b50891515610722565b885163d21220a760e01b815286818681865afa90811561088f576108da91899186916108df575b50838060065460081c169116613501565b610718565b6108f69150893d8b116108885761087a818361237c565b8e6108c9565b610930888260065460081c16837f000000000000000000000000000000000000000000000000000000000000000016613501565b610712565b9450509390508483813d831161096d575b610950818361237c565b81010312610969578251928201519093876106fc6106d5565b8680fd5b503d610946565b85513d89823e3d90fd5b825163e2517d3f60e01b815233818601526024810191909152604490fd5b5034610391576109ab36612347565b9391946109b6613715565b8515610a70576109c4612c3d565b6109cd866125ea565b9460018060a01b039186868484169687815280602052205410610a62575082602097610a0388610a0994883303610a52576133a5565b8761295e565b918451928352858784015216907ffbde797d201c681b91056529119e0b02407c7bb96a4a2c75c01fc9667232c8db843392a460015f805160206137658339815191525551908152f35b610a5d823383613430565b6133a5565b8551633999656760e01b8152fd5b8351631f2a200560e01b8152fd5b5090346103bc5760203660031901126103bc57506103b56020923561259b565b5034610391578060031936011261039157602090610ac7610abd612301565b602435903361324e565b5160018152f35b5034610391578160031936011261039157517f00000000000000000000000000000000000000000000000000000000000000006001600160a01b03168152602090f35b503461039157816003193601126103915751908152602090f35b50829034610576578260031936011261057657610b46613087565b60ff600a54169180831015610c7d578215610c6f57600c544210610c615750600b5491610b8060ff19600a5416600a555f600b555f600c55565b60018103610bbb5750816020917f9b49d0cd76012d9c67241c2f68f836efbaf50ea29901a250040671402d5263f59360075551908152a15b80f35b60028103610bfd57507f2147e2bc8c39e67f74b1a9e08896ea1485442096765942206af1f4bc8bcde91791602091610bf1612c3d565b8160085551908152a180f35b600314610c0957505080f35b60068054610100600160a81b031916600884901b610100600160a81b0316179055516001600160a01b0390911681527f7dae230f18360d76a040c81f050aa14eb9d6dc7901b20fc5d855e2a20fe814d190602090a180f35b905163333bd2cb60e11b8152fd5b905163147fde5f60e31b8152fd5b634e487b7160e01b845260219052602483fd5b5034610391578160031936011261039157805191809380549160019083821c92828516948515610d88575b6020958686108114610d7557858952908115610d515750600114610cf9575b610cf58787610ceb828c038361237c565b51918291826122ba565b0390f35b81529295507f8a35acfbc15ff81a39ae7d344fd709f28e8600b4aa8c65c6b64bfe7fe36bd19b5b828410610d3e5750505082610cf594610ceb92820101945f80610cda565b8054868501880152928601928101610d20565b60ff19168887015250505050151560051b8301019250610ceb82610cf55f80610cda565b634e487b7160e01b845260228352602484fd5b93607f1693610cbb565b50346103915780600319360112610391578235610dad61231b565b92610db6613715565b610dbe6136f7565b8115610fb357610dcc612c3d565b610dd58261259b565b936001600160a01b03917f0000000000000000000000000000000000000000000000000000000000000000831690610e0f8730338561357f565b60025415610f5e575b610e22858461335b565b85516370a0823160e01b815230898201526020988982602481875afa918215610f5457908a92918492610f23575b50604490610e8283897f00000000000000000000000000000000000000000000000000000000000000001680986135e9565b848a519687948593634e6a20ed60e11b85528401528160248401525af18015610f1757610ee1575b50508351928584528684015216905f80516020613785833981519152833392a360015f805160206137658339815191525551908152f35b8782813d8311610f10575b610ef6818361237c565b810103126103bc5750610f0890612867565b505f80610eaa565b503d610eec565b508551903d90823e3d90fd5b8092508391933d8311610f4d575b610f3b818361237c565b81010312610576575189916044610e50565b503d610f31565b88513d85823e3d90fd5b64e8d4a510008510610f7757610f72613316565b610e18565b855162461bcd60e51b81526020818a01526016602482015275125b9a5d1a585b081b5a5b9d081d1bdbc81cdb585b1b60521b6044820152606490fd5b8251631f2a200560e01b81528590fd5b5082346105765781600319360112610576578160209360ff92610fe461231b565b90358252600586528282206001600160a01b039091168252855220549151911615158152f35b50346103915781600319360112610391576020906009549051908152f35b503461039157816003193601126103915760207f62e78cea01bee320cd4e420270b5ea74000d11b0c9f74754ebdbfc544b05a258916110656130de565b61106d6136f7565b600160ff19600654161760065551338152a180f35b5034610391578160031936011261039157602090600c549051908152f35b5090346103bc57816003193601126103bc57506103b56020926110c161231b565b9035612625565b5090346103bc57506104dc906110dd36612331565b92903390339061287b565b5034610391578160031936011261039157600654905160089190911c6001600160a01b03168152602090f35b503461039157816003193601126103915760209060ff6006541690519015158152f35b50346103915781600319360112610391576020905164e8d4a510008152f35b5090346103bc5760203660031901126103bc57506103b560209235612558565b5034610391578160031936011261039157515f198152602090f35b5082346105765782600319360112610576576111ab6130de565b6006549060ff8216156111ed575060ff1916600655513381527f5db9ee0a495bf2e6ff9c91a7834c1ba4fdd244a5e8aa4e537bd38aeae4b073aa90602090a180f35b8251638dfc202b60e01b8152fd5b503461039157606036600319011261039157823591602480359161121d613715565b6112256136f7565b8415948580611ce0575b611cd05761123b612c3d565b831515938285611684575b61125090836123b2565b9485156116745760025492831593848015611665575b15611644575086985b891561163457156115f9575b5061156c575b5061154e575b611291853361335b565b604435851061153e5783516370a0823160e01b80825230888301526020979091906001600160a01b037f00000000000000000000000000000000000000000000000000000000000000008116908a848881855afa938415611534578694611505575b50807f00000000000000000000000000000000000000000000000000000000000000001691895163d21220a760e01b968782528d828781885afa9182156114fb57918a8f928e8796958d946114dc575b505196879384928352308b840152165afa9283156114d257918893918e979695938593611493575b50868481611482575b50505081611421575b506044949596508a519889968795634e6a20ed60e11b87528601528401525af18015611415576113df575b50508151908152828482015233905f80516020613785833981519152833392a360015f805160206137658339815191525551908152f35b8582813d831161140e575b6113f4818361237c565b810103126103bc575061140690612867565b505f806113a8565b503d6113ea565b508351903d90823e3d90fd5b9250929450929489519081528b818681875afa908115611478579261145981868f99989695604498958c9788916114615750166135e9565b86959461137d565b61088291508c8d3d106108885761087a818361237c565b8a513d89823e3d90fd5b61148b926135e9565b5f8684611374565b925093509193949581813d83116114cb575b6114af818361237c565b810103126114c757918c95949391889351915f61136b565b8780fd5b503d6114a5565b8b513d8a823e3d90fd5b6114f4919450853d87116108885761087a818361237c565b925f611343565b8c513d8b823e3d90fd5b9093508a81813d831161152d575b61151d818361237c565b8101031261084d5751925f6112f3565b503d611513565b89513d88823e3d90fd5b8351637546bf8160e11b81528690fd5b61155f64e8d4a5100086101561281b565b611567613316565b611287565b855163d21220a760e01b81526001600160a01b03906020818b817f000000000000000000000000000000000000000000000000000000000000000086165afa9081156115ef57906115cb93929186916115d1575b50309133911661357f565b5f611281565b6115e9915060203d81116108885761087a818361237c565b5f6115c0565b88513d87823e3d90fd5b61162e9030337f00000000000000000000000000000000000000000000000000000000000000006001600160a01b031661357f565b5f61127b565b8851631f2a200560e01b81528b90fd5b61165161165f91896124f7565b6116596123d3565b9061250a565b9861126f565b5061166e6123d3565b15611266565b8651631f2a200560e01b81528990fd5b8651635fa1b2df60e11b81526001600160a01b039060209081818d817f000000000000000000000000000000000000000000000000000000000000000087165afa908115611478578791611c9b575b5060020b86811215611c9557600160ff1b8114611c83578087035b620d89e88111611c41578c9188916001811615611c2f576001600160881b036ffffcb933bd6fad37aa2d162d1a5940015b169360028216611bfd575b8116611bcb575b60088116611b99575b60108116611b67575b848116611b35575b8c8116611b03575b608090818116611ad0575b6101008116611a9d575b6102008116611a6a575b6104008116611a37575b6108008116611a04575b61100081166119d1575b612000811661199e575b614000811661196b575b6180008116611938575b620100008116611905575b6202000081166118d3575b620400008116611890575b6208000016611853575b5013611833575b6112509392916118019163ffffffff811661182a5760ff895b16911c6123b2565b1680611810575b509050611246565b611824915061181f8185612f7e565b612f7e565b5f611808565b60ff60016117f9565b8015611841575f19046117e0565b634e487b7160e01b875260128c528787fd5b90926b048a170391f7dc42444e8fa28082029350811591840414171561187d571c9087905f6117d9565b50634e487b7160e01b885260118d528888fd5b93909192506d2216e584f5fa1ea926041bedfe98908181029181830414901517156118c157811c92899291906117cf565b634e487b7160e01b8a5260118f528a8afd5b93909192506e5d6af8dedb81196699c329225ee604908181029181830414901517156118c15790899291811c936117c4565b93909192506f09aa508b5b7a84e1c677de54f3e99bc9908181029181830414901517156118c15790899291811c936117b9565b93909192506f31be135f97d08fd981231505542fcfa6908181029181830414901517156118c15790899291811c936117ae565b93909192506f70d869a156d2a1b890bb3df62baf32f7908181029181830414901517156118c15790899291811c936117a4565b93909192506fa9f746462d870fdf8a65dc1f90e061e5908181029181830414901517156118c15790899291811c9361179a565b93909192506fd097f3bdfd2022b8845ad8f792aa5825908181029181830414901517156118c15790899291811c93611790565b93909192506fe7159475a2c29b7443b29c7fa6e889d9908181029181830414901517156118c15790899291811c93611786565b93909192506ff3392b0822b70005940c7a398e4b70f3908181029181830414901517156118c15790899291811c9361177c565b93909192506ff987a7253ac413176f2b074cf7815e54908181029181830414901517156118c15790899291811c93611772565b93909192506ffcbe86c7900a88aedcffc83b479aa3a4908181029181830414901517156118c15790899291811c93611768565b93909192506ffe5dee046a99a2a811c461f1969c3053908181029181830414901517156118c15790899291811c9361175e565b929091506fff2ea16466c96a3843ec78b326b528619081810291818304149015171561187d5790889160801c92611753565b929091506fff973b41fa98c081472e6896dfb254c09081810291818304149015171561187d5790889160801c9261174b565b929091506fffcb9843d60f6159c9db58835c9266449081810291818304149015171561187d5790889160801c92611743565b929091506fffe5caca7e10e4e61c3624eaa0941cd09081810291818304149015171561187d5790889160801c9261173a565b929091506ffff2e50f5f656932ef12357cf3c7fdcc9081810291818304149015171561187d5790889160801c92611731565b509150916ffff97272373d413259a46990580e213a9081810291818304149015171561187d5760801c9188918e61172a565b6001600160881b03600160801b61171f565b8a5162461bcd60e51b8152808e01849052601c818b01527f5469636b4d6174683a207469636b206f7574206f6620626f756e6473000000006044820152606490fd5b634e487b7160e01b875260118c528787fd5b806116ee565b90508181813d8311611cc9575b611cb2818361237c565b8101031261096957611cc390612931565b5f6116d3565b503d611ca8565b8451631f2a200560e01b81528790fd5b50831561122f565b5034610391578160031936011261039157517f00000000000000000000000000000000000000000000000000000000000000006001600160a01b03168152602090f35b50346103915781600319360112610391576020906008549051908152f35b5034610391578060031936011261039157611d6261231b565b90336001600160a01b03831603611d7f57506105729192356131d9565b5163334bd91960e11b81528390fd5b5034610391578160031936011261039157602090517ffc8737ab85eb45125971625a9ebdb75cc78e01d5c1fa80c4c6e5203f47bc4fab8152f35b5034610391578160031936011261039157602090600b549051908152f35b50346103915781600319360112610391576020905160128152f35b508290346105765780600319360112610576576105729135611e26600161055b61231b565b61315b565b5034610391578160031936011261039157602090516202a3008152f35b5082346105765760203660031901126105765781602093600192358152600585522001549051908152f35b503461039157606036600319011261039157602090610ac7611e93612301565b611e9b61231b565b60443591611eaa833383613430565b61324e565b5034610391578160031936011261039157602090517fbf233dd2aafeb4d50879c4aa5c81e96d92f6e6945c906a58f9f2d1c1631b4b268152f35b503461039157816003193601126103915760ff600a541690519183821015611f1357602083838152f35b634e487b7160e01b815260218452602490fd5b50346103915781600319360112610391576020906002549051908152f35b508234610576578260031936011261057657611f5e613087565b60ff600a54169181831015611fbd578215611fb05750507f0b29c3dd71e628dcf0f998966b3357dd474d67b3730f2a8526890ac1fdb708518280a2610bb860ff19600a5416600a555f600b555f600c55565b5163147fde5f60e31b8152fd5b634e487b7160e01b845260218252602484fd5b5090346103bc5760203660031901126103bc57506103b5602092356125ea565b50823461057657816003193601126105765761200a612301565b602435903315612083576001600160a01b031691821561206c57508083602095338152600187528181208582528752205582519081527f8c5be1e5ebec7d5bd14f71427d1e84f3dd0314c0f7b2291e5b200ac8c7c3b925843392a35160018152f35b8351634a1406b160e11b8152908101859052602490fd5b835163e602df0560e01b8152808401869052602490fd5b50829034610576578260031936011261057657805191836003549060019082821c928281168015612185575b6020958686108214612172575084885290811561215057506001146120f7575b610cf58686610ceb828b038361237c565b929550600383527fc2575a0e9e593c00f959f8c92f12db2869c3395a3b0502d05e2516446f71f85b5b82841061213d5750505082610cf594610ceb9282010194866120e6565b8054868501880152928601928101612120565b60ff191687860152505050151560051b8301019250610ceb82610cf5866120e6565b634e487b7160e01b845260229052602483fd5b93607f16936120c6565b50346103915760203660031901126103915782356121ab613087565b6107d0811161221b57600a5460ff81168581101561034b5761033b5760019060ff191617600a5580600b556202a300420180421161032857917fcade8e56d15e5d0a53c2c4d10e614d7730d118d92bffc51ba518f008ae9c9be09183600194600c5582519182526020820152a280f35b815162461bcd60e51b815260208186015260076024820152664d61782032302560c81b6044820152606490fd5b50823461057657602036600319011261057657359063ffffffff60e01b82168092036105765760209250637965db0b60e01b821491821561228d575b50519015158152f35b6301ffc9a760e01b14915083612284565b50346103915781600319360112610391576020906103b56123d3565b602080825282518183018190529093925f5b8281106122ed57505060409293505f838284010152601f8019910116010190565b8181018601518482016040015285016122cc565b600435906001600160a01b038216820361231757565b5f80fd5b602435906001600160a01b038216820361231757565b6040906003190112612317576004359060243590565b606090600319011261231757600435906001600160a01b03906024358281168103612317579160443590811681036123175790565b90601f8019910116810190811067ffffffffffffffff82111761239e57604052565b634e487b7160e01b5f52604160045260245ffd5b919082018092116123bf57565b634e487b7160e01b5f52601160045260245ffd5b6040516370a0823160e01b8152306004820152602091906001600160a01b039083816024817f000000000000000000000000000000000000000000000000000000000000000086165afa9182156124b95784915f936124c4575b506040516306a61f7560e51b81529190829060049082907f0000000000000000000000000000000000000000000000000000000000000000165afa9384156124b9575f94612486575b50509161248391926123b2565b90565b81813d83116124b2575b61249a818361237c565b810103126124ae575192506124835f612476565b8380fd5b503d612490565b6040513d5f823e3d90fd5b9182819492943d83116124f0575b6124dc818361237c565b810103126103bc575051908390600461242d565b503d6124d2565b818102929181159184041417156123bf57565b8115612514570490565b634e487b7160e01b5f52601260045260245ffd5b60025480158015612549575b6125455761165190612483926124f7565b5090565b506125526123d3565b15612534565b600254801561254557612576612483926125706123d3565b906124f7565b61250a565b60ff6006541661258a575f1990565b5f90565b919082039182116123bf57565b60025490811580156125db575b6125d657816125bc6125c1926125706123d3565b6123b2565b5f198101919082116123bf576124839161250a565b905090565b506125e46123d3565b156125a8565b6002548015612545576126009061260e926124f7565b6126086123d3565b906123b2565b5f1981019081116123bf57612483906116596123d3565b9061262e613715565b6126366136f7565b811561280957612644612c3d565b61264d82612528565b918215612809576001600160a01b037f000000000000000000000000000000000000000000000000000000000000000081169061268c8330338561357f565b600254156127eb575b61269f858561335b565b6040938451926370a0823160e01b84523060048501526020938481602481855afa9081156127e1579085915f916127b2575b50916044836127055f95887f00000000000000000000000000000000000000000000000000000000000000001680956135e9565b89519485938492634e6a20ed60e11b845260048401528160248401525af180156127a857908791612762575b505f8051602061378583398151915293865195865285015216923392a39060015f8051602061376583398151915255565b90508381813d83116127a1575b612779818361237c565b81010312612317575f805160206137858339815191529361279a8892612867565b5093612731565b503d61276f565b86513d5f823e3d90fd5b9182813d83116127da575b6127c7818361237c565b810103126103bc575051849060446126d1565b503d6127bd565b87513d5f823e3d90fd5b6127fc64e8d4a5100086101561281b565b612804613316565b612695565b604051631f2a200560e01b8152600490fd5b1561282257565b60405162461bcd60e51b815260206004820152601960248201527f496e697469616c206465706f73697420746f6f20736d616c6c000000000000006044820152606490fd5b51906001600160801b038216820361231757565b919091612886613715565b80156128095760018060a01b0380831692835f525f6020528260405f20541061291f57846128d6916128b6612c3d565b6128d0856128c381612558565b92883303610a52576133a5565b8461295e565b9360405192858452602084015216907ffbde797d201c681b91056529119e0b02407c7bb96a4a2c75c01fc9667232c8db60403392a49060015f8051602061376583398151915255565b604051633999656760e01b8152600490fd5b51908160020b820361231757565b9081602091031261231757516001600160a01b03811681036123175790565b92915f809161296f866002546123b2565b956001600160801b038080612982612d31565b168981612c2a57505050845b16928315612b485750604051639babddf560e01b815260048101939093526001600160a01b0382811660248501529660208085604481897f00000000000000000000000000000000000000000000000000000000000000008e165af1948515612b3d578695612b0e575b5084987f00000000000000000000000000000000000000000000000000000000000000001695604051906370a0823160e01b825230600483015282826024818b5afa928315612b01578193612ad0575b50505080612a9a575b5050505050505b82818110612a64575050565b612a916020917fa01b5a65fd7abbb89acbce061d8546fd8aed2db3e08fd444a7d3650a9aa217a09361258e565b604051908152a1565b612aa792612576916124f7565b9283612ab5575b8080612a51565b612ac69496506125bc918491613501565b915f808080612aae565b9091809350813d8311612afa575b612ae8818361237c565b810103126103bc5750515f8080612a48565b503d612ade565b50604051903d90823e3d90fd5b9080955081813d8311612b36575b612b26818361237c565b8101031261084d5751935f6129f8565b503d612b1c565b6040513d88823e3d90fd5b6040516370a0823160e01b815230600482015290977f00000000000000000000000000000000000000000000000000000000000000006001600160a01b031695939450919290602081602481895afa918215612c1e578092612bea575b505080612bb7575b5050505050612a58565b612bc492612576916124f7565b9182612bd2575b8080612bad565b8293955090612be19291613501565b915f8080612bcb565b9091506020823d8211612c16575b81612c056020938361237c565b810103126103bc5750515f80612ba5565b3d9150612bf8565b604051903d90823e3d90fd5b612576612c3792866124f7565b1661298e565b6002548015612d1657612c526009544261258e565b908115612d12576301e13380612c7f612c696123d3565b93612710612c79600854876124f7565b046124f7565b049182151580612d09575b612c98575b50505042600955565b61165983612ca9612caf94826124f7565b9261258e565b80612cbb575b80612c8f565b7f4fed68db354fc9a4a85e24ef5dc3a7bea31a6b507ecaaa263f65fa1c70ab647c91612cf660409260018060a01b0360065460081c1661335b565b8151905f82526020820152a15f80612cb5565b50808310612c8a565b5050565b5042600955565b51906001600160a01b038216820361231757565b604080516312aa0daf60e01b81526001600160a01b037f00000000000000000000000000000000000000000000000000000000000000008116939290916020908181600481895afa908115612f00575f91612f48575b5015612f40578151631e46e62f60e21b8152948186600481845afa958615612f00575f96612f0a575b5094816004959684519687809263ceefe5d160e01b82525afa948515612f00575f95612ed1575b5082519463133f757160e31b8652600486015284602481610180968794165afa928315612ec7575f93612e0d575b505050905090565b84813d8311612ec0575b612e21818361237c565b810103126105765783516bffffffffffffffffffffffff8116036105765790612e4e612e56928501612d1d565b508301612d1d565b50612e6360608301612d1d565b50608082015162ffffff8116036103bc5750612e8160a08201612931565b50612e8e60c08201612931565b50612eb6610160612ea160e08401612867565b92612eaf6101408201612867565b5001612867565b50805f8080612e05565b503d612e17565b82513d5f823e3d90fd5b90948282813d8311612ef9575b612ee8818361237c565b810103126103bc575051935f612dd7565b503d612ede565b83513d5f823e3d90fd5b8281813d8311612f39575b612f1f818361237c565b8101031261096957519584871687036103bc575081612db0565b503d612f15565b505f93505050565b8281813d8311612f77575b612f5d818361237c565b8101031261039157519081151582036103bc57505f612d87565b503d612f53565b90801561304c57600160601b905f19828409928060601b9283808610950394808603951461303f5784831115613007578291098119600181018091116123bf578216809204600280826003021880830282030280830282030280830282030280830282030280830282030280920290030293600183805f03040190848311900302920304170290565b60405162461bcd60e51b815260206004820152601060248201526f4c6971416d743a206f766572666c6f7760801b6044820152606490fd5b505090612483925061250a565b60405162461bcd60e51b81526020600482015260136024820152724c6971416d743a20646976206279207a65726f60681b6044820152606490fd5b335f9081527f05b8ccbb9d4d8fb16ea74ce3c29a41f1b461fbdaff4714a0d9a8eb05499746bc602052604081205460ff16156130c05750565b6044906040519063e2517d3f60e01b82523360048301526024820152fd5b335f9081527ffbc93671eda18a3103415c6de11b46be272fd03129c33970fab0bfd26d35c8a060205260409020547fbf233dd2aafeb4d50879c4aa5c81e96d92f6e6945c906a58f9f2d1c1631b4b269060ff16156130c05750565b805f52600560205260405f20335f5260205260ff60405f205416156130c05750565b905f918083526005602052604083209160018060a01b03169182845260205260ff604084205416155f146131d45780835260056020526040832082845260205260408320600160ff198254161790557f2f8788117e7eff1d82e926ec794901d17c78024a50270940304540a733656f0d339380a4600190565b505090565b905f918083526005602052604083209160018060a01b03169182845260205260ff6040842054165f146131d4578083526005602052604083208284526020526040832060ff1981541690557ff6391f5c32d9c69d2a47ea670b442974b53935d1edc7fd64eb21e047a839171b339380a4600190565b916001600160a01b038084169283156132fe57169283156132e6575f90838252816020526040822054908382106132b4575091604082825f80516020613745833981519152958760209652828652038282205586815220818154019055604051908152a3565b60405163391434e360e21b81526001600160a01b03919091166004820152602481019190915260448101839052606490fd5b60405163ec442f0560e01b81525f6004820152602490fd5b604051634b637e8f60e11b81525f6004820152602490fd5b60025464e8d4a51000908181018091116123bf576002555f5f80516020613745833981519152602061dead9384845283825260408420818154019055604051908152a3565b6001600160a01b03169081156132e6575f805160206137458339815191526020826133895f946002546123b2565b60025584845283825260408420818154019055604051908152a3565b906001600160a01b0382169081156132fe575f92828452836020526040842054908282106133fe5750815f80516020613745833981519152926020928587528684520360408620558060025403600255604051908152a3565b60405163391434e360e21b81526001600160a01b03919091166004820152602481019190915260448101829052606490fd5b9160018060a01b03809316915f9383855260016020526040938486209183169182875260205284862054925f19841061346d575b50505050505050565b8484106134d1575080156134b95781156134a15785526001602052838520908552602052039120555f808080808080613464565b8451634a1406b160e11b815260048101879052602490fd5b845163e602df0560e01b815260048101879052602490fd5b8551637dc7a0d960e11b81526001600160a01b039190911660048201526024810184905260448101859052606490fd5b60405163a9059cbb60e01b5f9081526001600160a01b039384166004526024949094529260209060448180855af160015f5114811615613560575b836040521561354a57505050565b635274afe760e01b835216600482015260249150fd5b600181151661357657813b15153d15161661353c565b833d5f823e3d90fd5b6040516323b872dd60e01b5f9081526001600160a01b03938416600452938316602452604494909452909160209060648180855af160015f51148116156135d3575b836040525f6060521561354a57505050565b600181151661357657813b15153d1516166135c1565b60405163095ea7b360e01b5f8181526001600160a01b0394851660048190526024879052919591929060209060448180885af160015f51148116156136ea575b816040521561363b575b505050505050565b60205f878152846004528060245260448180885af160015f51148116156136cb575b81604052156136b45750906020915f9160405196835260045260245260448180855af160015f511481161561369e575b836040521561354a57808080613633565b600181151661357657813b15153d15161661368d565b635274afe760e01b81528385166004820152602490fd5b60018115166136e157843b15153d15161661365d565b503d5f823e3d90fd5b843b15153d151616613629565b60ff6006541661370357565b60405163d93c066560e01b8152600490fd5b5f8051602061376583398151915260028154146137325760029055565b604051633ee5aeb560e01b8152600490fdfeddf252ad1be2c89b69c2b068fc378daa952ba7f163c4a11628f55a4df523b3ef9b779b17422d0df92223018b32b4d1fa46e071723d6817e2486d003becc55f00dcbc1c05240f31ff3ad067ef1ee35ce4997762752e3a095284754544f4c709d7a2646970667358221220231b40cf11778cd18a7ce0b6fb70524ef78a2424b1e58ef62d46dd8ef0eedfdf64736f6c634300081400332f8788117e7eff1d82e926ec794901d17c78024a50270940304540a733656f0d","linkReferences":{}},"methodIdentifiers":{"ADMIN_TIMELOCK_DELAY()":"25efa62b","DEFAULT_ADMIN_ROLE()":"a217fddf","EMERGENCY_ROLE()":"20df4359","KEEPER_ROLE()":"364bc15a","MAX_DEPOSIT_PER_TX()":"41f1c0d9","MIN_INITIAL_SHARES()":"52cd195d","allowance(address,address)":"dd62ed3e","approve(address,uint256)":"095ea7b3","asset()":"38d52e0f","balanceOf(address)":"70a08231","cancelAdminChange()":"1157b267","compoundFees()":"b738fd0d","convertToAssets(uint256)":"07a2d13a","convertToShares(uint256)":"c6e6f592","decimals()":"313ce567","deposit(uint256,address)":"6e553f65","depositDual(uint256,uint256,uint256)":"3c737118","depositWithMinShares(uint256,uint256)":"da674c58","executeAdminChange()":"9cba6657","getRoleAdmin(bytes32)":"248a9ca3","grantRole(bytes32,address)":"2f2ff15d","hasRole(bytes32,address)":"91d14854","lastFeeTimestamp()":"8b169b36","managementFeeBps()":"3813c35a","maxDeposit(address)":"402d267d","maxMint(address)":"c63d75b6","maxRedeem(address)":"d905777e","maxWithdraw(address)":"ce96cb77","mint(uint256,address)":"94bf804d","name()":"06fdde03","pause()":"8456cb59","paused()":"5c975abb","pendingEta()":"7697d463","pendingKind()":"1dba2e57","pendingValue()":"357dbd23","performanceFeeBps()":"b9d4e879","previewDeposit(uint256)":"ef8b30f7","previewMint(uint256)":"b3d7f6b9","previewRedeem(uint256)":"4cdad506","previewWithdraw(uint256)":"0a28a477","proposeManagementFee(uint256)":"e8a422fe","proposePerformanceFee(uint256)":"04b9e771","proposeTreasury(address)":"f110ed67","redeem(uint256,address,address)":"ba087652","redeemWithMinAssets(uint256,uint256)":"69e67996","renounceRole(bytes32,address)":"36568abe","revokeRole(bytes32,address)":"d547741f","strategy()":"a8c62e76","supportsInterface(bytes4)":"01ffc9a7","symbol()":"95d89b41","totalAssets()":"01e1d114","totalSupply()":"18160ddd","transfer(address,uint256)":"a9059cbb","transferFrom(address,address,uint256)":"23b872dd","treasury()":"61d027b3","unpause()":"3f4ba83a","withdraw(uint256,address,address)":"b460af94"},"id":1}