{"abi":[{"type":"constructor","inputs":[{"name":"_asset","type":"address","internalType":"address"},{"name":"_strategy","type":"address","internalType":"address"},{"name":"_treasury","type":"address","internalType":"address"},{"name":"_admin","type":"address","internalType":"address"},{"name":"_name","type":"string","internalType":"string"},{"name":"_symbol","type":"string","internalType":"string"}],"stateMutability":"nonpayable"},{"type":"function","name":"DEFAULT_ADMIN_ROLE","inputs":[],"outputs":[{"name":"","type":"bytes32","internalType":"bytes32"}],"stateMutability":"view"},{"type":"function","name":"EMERGENCY_ROLE","inputs":[],"outputs":[{"name":"","type":"bytes32","internalType":"bytes32"}],"stateMutability":"view"},{"type":"function","name":"KEEPER_ROLE","inputs":[],"outputs":[{"name":"","type":"bytes32","internalType":"bytes32"}],"stateMutability":"view"},{"type":"function","name":"MAX_DEPOSIT_PER_TX","inputs":[],"outputs":[{"name":"","type":"uint256","internalType":"uint256"}],"stateMutability":"view"},{"type":"function","name":"allowance","inputs":[{"name":"owner","type":"address","internalType":"address"},{"name":"spender","type":"address","internalType":"address"}],"outputs":[{"name":"","type":"uint256","internalType":"uint256"}],"stateMutability":"view"},{"type":"function","name":"approve","inputs":[{"name":"spender","type":"address","internalType":"address"},{"name":"value","type":"uint256","internalType":"uint256"}],"outputs":[{"name":"","type":"bool","internalType":"bool"}],"stateMutability":"nonpayable"},{"type":"function","name":"asset","inputs":[],"outputs":[{"name":"","type":"address","internalType":"address"}],"stateMutability":"view"},{"type":"function","name":"balanceOf","inputs":[{"name":"account","type":"address","internalType":"address"}],"outputs":[{"name":"","type":"uint256","internalType":"uint256"}],"stateMutability":"view"},{"type":"function","name":"compoundFees","inputs":[],"outputs":[],"stateMutability":"nonpayable"},{"type":"function","name":"convertToAssets","inputs":[{"name":"shares","type":"uint256","internalType":"uint256"}],"outputs":[{"name":"","type":"uint256","internalType":"uint256"}],"stateMutability":"view"},{"type":"function","name":"convertToShares","inputs":[{"name":"assets","type":"uint256","internalType":"uint256"}],"outputs":[{"name":"","type":"uint256","internalType":"uint256"}],"stateMutability":"view"},{"type":"function","name":"decimals","inputs":[],"outputs":[{"name":"","type":"uint8","internalType":"uint8"}],"stateMutability":"view"},{"type":"function","name":"deposit","inputs":[{"name":"assets","type":"uint256","internalType":"uint256"},{"name":"receiver","type":"address","internalType":"address"}],"outputs":[{"name":"shares","type":"uint256","internalType":"uint256"}],"stateMutability":"nonpayable"},{"type":"function","name":"depositWithMinShares","inputs":[{"name":"assets","type":"uint256","internalType":"uint256"},{"name":"minShares","type":"uint256","internalType":"uint256"}],"outputs":[{"name":"shares","type":"uint256","internalType":"uint256"}],"stateMutability":"nonpayable"},{"type":"function","name":"getRoleAdmin","inputs":[{"name":"role","type":"bytes32","internalType":"bytes32"}],"outputs":[{"name":"","type":"bytes32","internalType":"bytes32"}],"stateMutability":"view"},{"type":"function","name":"grantRole","inputs":[{"name":"role","type":"bytes32","internalType":"bytes32"},{"name":"account","type":"address","internalType":"address"}],"outputs":[],"stateMutability":"nonpayable"},{"type":"function","name":"hasRole","inputs":[{"name":"role","type":"bytes32","internalType":"bytes32"},{"name":"account","type":"address","internalType":"address"}],"outputs":[{"name":"","type":"bool","internalType":"bool"}],"stateMutability":"view"},{"type":"function","name":"lastFeeTimestamp","inputs":[],"outputs":[{"name":"","type":"uint256","internalType":"uint256"}],"stateMutability":"view"},{"type":"function","name":"managementFeeBps","inputs":[],"outputs":[{"name":"","type":"uint256","internalType":"uint256"}],"stateMutability":"view"},{"type":"function","name":"maxDeposit","inputs":[{"name":"","type":"address","internalType":"address"}],"outputs":[{"name":"","type":"uint256","internalType":"uint256"}],"stateMutability":"pure"},{"type":"function","name":"maxMint","inputs":[{"name":"","type":"address","internalType":"address"}],"outputs":[{"name":"","type":"uint256","internalType":"uint256"}],"stateMutability":"pure"},{"type":"function","name":"maxRedeem","inputs":[{"name":"owner","type":"address","internalType":"address"}],"outputs":[{"name":"","type":"uint256","internalType":"uint256"}],"stateMutability":"view"},{"type":"function","name":"maxWithdraw","inputs":[{"name":"owner","type":"address","internalType":"address"}],"outputs":[{"name":"","type":"uint256","internalType":"uint256"}],"stateMutability":"view"},{"type":"function","name":"mint","inputs":[{"name":"shares","type":"uint256","internalType":"uint256"},{"name":"receiver","type":"address","internalType":"address"}],"outputs":[{"name":"assets","type":"uint256","internalType":"uint256"}],"stateMutability":"nonpayable"},{"type":"function","name":"name","inputs":[],"outputs":[{"name":"","type":"string","internalType":"string"}],"stateMutability":"view"},{"type":"function","name":"pause","inputs":[],"outputs":[],"stateMutability":"nonpayable"},{"type":"function","name":"paused","inputs":[],"outputs":[{"name":"","type":"bool","internalType":"bool"}],"stateMutability":"view"},{"type":"function","name":"performanceFeeBps","inputs":[],"outputs":[{"name":"","type":"uint256","internalType":"uint256"}],"stateMutability":"view"},{"type":"function","name":"previewDeposit","inputs":[{"name":"assets","type":"uint256","internalType":"uint256"}],"outputs":[{"name":"","type":"uint256","internalType":"uint256"}],"stateMutability":"view"},{"type":"function","name":"previewMint","inputs":[{"name":"shares","type":"uint256","internalType":"uint256"}],"outputs":[{"name":"","type":"uint256","internalType":"uint256"}],"stateMutability":"view"},{"type":"function","name":"previewRedeem","inputs":[{"name":"shares","type":"uint256","internalType":"uint256"}],"outputs":[{"name":"","type":"uint256","internalType":"uint256"}],"stateMutability":"view"},{"type":"function","name":"previewWithdraw","inputs":[{"name":"assets","type":"uint256","internalType":"uint256"}],"outputs":[{"name":"","type":"uint256","internalType":"uint256"}],"stateMutability":"view"},{"type":"function","name":"redeem","inputs":[{"name":"shares","type":"uint256","internalType":"uint256"},{"name":"receiver","type":"address","internalType":"address"},{"name":"owner","type":"address","internalType":"address"}],"outputs":[{"name":"assets","type":"uint256","internalType":"uint256"}],"stateMutability":"nonpayable"},{"type":"function","name":"redeemWithMinAssets","inputs":[{"name":"shares","type":"uint256","internalType":"uint256"},{"name":"minAssets","type":"uint256","internalType":"uint256"}],"outputs":[{"name":"assets","type":"uint256","internalType":"uint256"}],"stateMutability":"nonpayable"},{"type":"function","name":"renounceRole","inputs":[{"name":"role","type":"bytes32","internalType":"bytes32"},{"name":"callerConfirmation","type":"address","internalType":"address"}],"outputs":[],"stateMutability":"nonpayable"},{"type":"function","name":"revokeRole","inputs":[{"name":"role","type":"bytes32","internalType":"bytes32"},{"name":"account","type":"address","internalType":"address"}],"outputs":[],"stateMutability":"nonpayable"},{"type":"function","name":"setManagementFee","inputs":[{"name":"_bps","type":"uint256","internalType":"uint256"}],"outputs":[],"stateMutability":"nonpayable"},{"type":"function","name":"setPerformanceFee","inputs":[{"name":"_bps","type":"uint256","internalType":"uint256"}],"outputs":[],"stateMutability":"nonpayable"},{"type":"function","name":"setTreasury","inputs":[{"name":"_treasury","type":"address","internalType":"address"}],"outputs":[],"stateMutability":"nonpayable"},{"type":"function","name":"strategy","inputs":[],"outputs":[{"name":"","type":"address","internalType":"contract MezRangeStrategyV2"}],"stateMutability":"view"},{"type":"function","name":"supportsInterface","inputs":[{"name":"interfaceId","type":"bytes4","internalType":"bytes4"}],"outputs":[{"name":"","type":"bool","internalType":"bool"}],"stateMutability":"view"},{"type":"function","name":"symbol","inputs":[],"outputs":[{"name":"","type":"string","internalType":"string"}],"stateMutability":"view"},{"type":"function","name":"totalAssets","inputs":[],"outputs":[{"name":"","type":"uint256","internalType":"uint256"}],"stateMutability":"view"},{"type":"function","name":"totalSupply","inputs":[],"outputs":[{"name":"","type":"uint256","internalType":"uint256"}],"stateMutability":"view"},{"type":"function","name":"transfer","inputs":[{"name":"to","type":"address","internalType":"address"},{"name":"value","type":"uint256","internalType":"uint256"}],"outputs":[{"name":"","type":"bool","internalType":"bool"}],"stateMutability":"nonpayable"},{"type":"function","name":"transferFrom","inputs":[{"name":"from","type":"address","internalType":"address"},{"name":"to","type":"address","internalType":"address"},{"name":"value","type":"uint256","internalType":"uint256"}],"outputs":[{"name":"","type":"bool","internalType":"bool"}],"stateMutability":"nonpayable"},{"type":"function","name":"treasury","inputs":[],"outputs":[{"name":"","type":"address","internalType":"address"}],"stateMutability":"view"},{"type":"function","name":"unpause","inputs":[],"outputs":[],"stateMutability":"nonpayable"},{"type":"function","name":"withdraw","inputs":[{"name":"assets","type":"uint256","internalType":"uint256"},{"name":"receiver","type":"address","internalType":"address"},{"name":"owner","type":"address","internalType":"address"}],"outputs":[{"name":"shares","type":"uint256","internalType":"uint256"}],"stateMutability":"nonpayable"},{"type":"event","name":"Approval","inputs":[{"name":"owner","type":"address","indexed":true,"internalType":"address"},{"name":"spender","type":"address","indexed":true,"internalType":"address"},{"name":"value","type":"uint256","indexed":false,"internalType":"uint256"}],"anonymous":false},{"type":"event","name":"Deposit","inputs":[{"name":"sender","type":"address","indexed":true,"internalType":"address"},{"name":"owner","type":"address","indexed":true,"internalType":"address"},{"name":"assets","type":"uint256","indexed":false,"internalType":"uint256"},{"name":"shares","type":"uint256","indexed":false,"internalType":"uint256"}],"anonymous":false},{"type":"event","name":"FeesCharged","inputs":[{"name":"performanceFee","type":"uint256","indexed":false,"internalType":"uint256"},{"name":"managementFee","type":"uint256","indexed":false,"internalType":"uint256"}],"anonymous":false},{"type":"event","name":"Paused","inputs":[{"name":"account","type":"address","indexed":false,"internalType":"address"}],"anonymous":false},{"type":"event","name":"PerformanceFeeUpdated","inputs":[{"name":"newBps","type":"uint256","indexed":false,"internalType":"uint256"}],"anonymous":false},{"type":"event","name":"RoleAdminChanged","inputs":[{"name":"role","type":"bytes32","indexed":true,"internalType":"bytes32"},{"name":"previousAdminRole","type":"bytes32","indexed":true,"internalType":"bytes32"},{"name":"newAdminRole","type":"bytes32","indexed":true,"internalType":"bytes32"}],"anonymous":false},{"type":"event","name":"RoleGranted","inputs":[{"name":"role","type":"bytes32","indexed":true,"internalType":"bytes32"},{"name":"account","type":"address","indexed":true,"internalType":"address"},{"name":"sender","type":"address","indexed":true,"internalType":"address"}],"anonymous":false},{"type":"event","name":"RoleRevoked","inputs":[{"name":"role","type":"bytes32","indexed":true,"internalType":"bytes32"},{"name":"account","type":"address","indexed":true,"internalType":"address"},{"name":"sender","type":"address","indexed":true,"internalType":"address"}],"anonymous":false},{"type":"event","name":"Transfer","inputs":[{"name":"from","type":"address","indexed":true,"internalType":"address"},{"name":"to","type":"address","indexed":true,"internalType":"address"},{"name":"value","type":"uint256","indexed":false,"internalType":"uint256"}],"anonymous":false},{"type":"event","name":"TreasuryUpdated","inputs":[{"name":"newTreasury","type":"address","indexed":false,"internalType":"address"}],"anonymous":false},{"type":"event","name":"Unpaused","inputs":[{"name":"account","type":"address","indexed":false,"internalType":"address"}],"anonymous":false},{"type":"event","name":"Withdraw","inputs":[{"name":"sender","type":"address","indexed":true,"internalType":"address"},{"name":"receiver","type":"address","indexed":true,"internalType":"address"},{"name":"owner","type":"address","indexed":true,"internalType":"address"},{"name":"assets","type":"uint256","indexed":false,"internalType":"uint256"},{"name":"shares","type":"uint256","indexed":false,"internalType":"uint256"}],"anonymous":false},{"type":"error","name":"AccessControlBadConfirmation","inputs":[]},{"type":"error","name":"AccessControlUnauthorizedAccount","inputs":[{"name":"account","type":"address","internalType":"address"},{"name":"neededRole","type":"bytes32","internalType":"bytes32"}]},{"type":"error","name":"ERC20InsufficientAllowance","inputs":[{"name":"spender","type":"address","internalType":"address"},{"name":"allowance","type":"uint256","internalType":"uint256"},{"name":"needed","type":"uint256","internalType":"uint256"}]},{"type":"error","name":"ERC20InsufficientBalance","inputs":[{"name":"sender","type":"address","internalType":"address"},{"name":"balance","type":"uint256","internalType":"uint256"},{"name":"needed","type":"uint256","internalType":"uint256"}]},{"type":"error","name":"ERC20InvalidApprover","inputs":[{"name":"approver","type":"address","internalType":"address"}]},{"type":"error","name":"ERC20InvalidReceiver","inputs":[{"name":"receiver","type":"address","internalType":"address"}]},{"type":"error","name":"ERC20InvalidSender","inputs":[{"name":"sender","type":"address","internalType":"address"}]},{"type":"error","name":"ERC20InvalidSpender","inputs":[{"name":"spender","type":"address","internalType":"address"}]},{"type":"error","name":"EnforcedPause","inputs":[]},{"type":"error","name":"ExceedsMaxDeposit","inputs":[]},{"type":"error","name":"ExpectedPause","inputs":[]},{"type":"error","name":"InsufficientShares","inputs":[]},{"type":"error","name":"MaxSlippageExceeded","inputs":[]},{"type":"error","name":"ReentrancyGuardReentrantCall","inputs":[]},{"type":"error","name":"SafeERC20FailedOperation","inputs":[{"name":"token","type":"address","internalType":"address"}]},{"type":"error","name":"ZeroAmount","inputs":[]}],"bytecode":{"object":"0x60c060405234620004315762002ca6803803806200001d8162000435565b928339810160c082820312620004315762000038826200045b565b90602091620000498385016200045b565b9062000058604086016200045b565b9262000067606087016200045b565b60808701516001600160401b0397919691908881116200043157836200008f91830162000470565b9260a08201518981116200043157620000a9920162000470565b9682518181116200033c576003908154906001958683811c9316801562000426575b8684101462000412578190601f93848111620003bf575b5086908483116001146200035c575f9262000350575b50505f1982851b1c191690861b1782555b89519283116200033c5760049384548681811c9116801562000331575b828210146200031e57828111620002d6575b5080918411600114620002675750908291620001e49a5f936200025b575b505082851b925f19911b1c19161790555b7f9b779b17422d0df92223018b32b4d1fa46e071723d6817e2486d003becc55f00556103e8600755606460089081556080919091526001600160a01b039190911660a05260068054610100600160a81b0319169290911b610100600160a81b031691909117905542600955620001dd81620004e0565b506200055f565b50604051612685908162000601823960805181818161067f0152818161081c01528181610b9701528181610fc60152818161150b015281816117660152611b5d015260a05181818161059e015281816109f801528181610c0801528181611557015281816117dd01528181611a840152611d450152f35b015191505f8062000156565b9299601f198b16855f52845f20945f905b828210620002be575050918b9391620001e49c88969410620002a4575b50505050811b01905562000167565b01519060f8845f19921b161c191690555f80808062000295565b80898698829497870151815501970194019062000278565b855f52815f208380870160051c82019284881062000314575b0160051c019087905b8281106200030857505062000138565b5f8155018790620002f8565b92508192620002ef565b602286634e487b7160e01b5f525260245ffd5b90607f169062000126565b634e487b7160e01b5f52604160045260245ffd5b015190505f80620000f8565b90889350601f19831691865f52885f20925f5b8a828210620003a8575050841162000390575b505050811b01825562000109565b01515f1983871b60f8161c191690555f808062000382565b8385015186558c979095019493840193016200036f565b909150845f52865f208480850160051c82019289861062000408575b918a91869594930160051c01915b828110620003f9575050620000e2565b5f81558594508a9101620003e9565b92508192620003db565b634e487b7160e01b5f52602260045260245ffd5b92607f1692620000cb565b5f80fd5b6040519190601f01601f191682016001600160401b038111838210176200033c57604052565b51906001600160a01b03821682036200043157565b919080601f84011215620004315782516001600160401b0381116200033c57602090620004a6601f8201601f1916830162000435565b9281845282828701011162000431575f5b818110620004cc5750825f9394955001015290565b8581018301518482018401528201620004b7565b6001600160a01b03165f8181527f05b8ccbb9d4d8fb16ea74ce3c29a41f1b461fbdaff4714a0d9a8eb05499746bc602052604081205490919060ff166200055b5781805260056020526040822081835260205260408220600160ff1982541617905533915f8051602062002c868339815191528180a4600190565b5090565b6001600160a01b03165f8181527ffbc93671eda18a3103415c6de11b46be272fd03129c33970fab0bfd26d35c8a060205260408120549091907fbf233dd2aafeb4d50879c4aa5c81e96d92f6e6945c906a58f9f2d1c1631b4b269060ff16620005fb5780835260056020526040832082845260205260408320600160ff198254161790555f8051602062002c86833981519152339380a4600190565b50509056fe60406080815260049081361015610014575f80fd5b5f91823560e01c806301e1d114146113ae57806301ffc9a71461135957806306fdde031461126557806307a2d13a14610f0c578063095ea7b3146111bc5780630a28a4771461119c57806318160ddd1461117d57806320df43591461114257806323b872dd14611105578063248a9ca3146110db5780632f2ff15d146110b2578063313ce56714611096578063364bc15a1461105b57806336568abe146110145780633813c35a14610ff557806338d52e0f14610fb15780633f4ba83a14610f48578063402d267d146104b757806341f1c0d914610f2c5780634cdad50614610f0c5780635c975abb14610ee857806361d027b314610ebb57806369e6799614610e9b5780636e553f6514610e7357806370897b2314610dee57806370a08231146104045780638456cb5914610d935780638b169b3614610d7457806391d1485414610d2e57806394bf804d14610b4657806395d89b4114610a42578063a217fddf14610a27578063a8c62e76146109e3578063a9059cbb146109b2578063b3d7f6b914610992578063b460af94146108a6578063b738fd0d14610518578063b9d4e879146104f9578063ba087652146104dd578063c63d75b6146104b7578063c6e6f5921461034f578063ce96cb771461047e578063d547741f1461043f578063d905777e14610404578063da674c58146103c6578063dd62ed3e14610379578063ef8b30f71461034f578063f0f44260146102955763fe56e23214610239575f80fd5b3461029157602036600319011261029157803591610255611ff7565b60c8831161026557505060085580f35b906020606492519162461bcd60e51b835282015260066024820152654d617820322560d01b6044820152fd5b8280fd5b509034610291576020366003190112610291576102b0611412565b6102b8611ff7565b6001600160a01b03811692831561031c575060068054610100600160a81b03191660089290921b610100600160a81b0316919091179055519081527f7dae230f18360d76a040c81f050aa14eb9d6dc7901b20fc5d855e2a20fe814d190602090a180f35b606490602084519162461bcd60e51b8352820152600d60248201526c5a65726f20747265617375727960981b6044820152fd5b509134610376576020366003190112610376575061036f60209235611635565b9051908152f35b80fd5b5050346103c257806003193601126103c25780602092610397611412565b61039f61142c565b6001600160a01b0391821683526001865283832091168252845220549051908152f35b5080fd5b50913461037657506103e4906103db36611442565b9290339061172d565b9182106103f5576020925051908152f35b51637546bf8160e11b81529050fd5b5050346103c25760203660031901126103c25760209061036f610425611412565b6001600160a01b03165f9081526020819052604090205490565b50903461029157806003193601126102915761047a9135610475600161046361142c565b93838752600560205286200154612030565b6120d0565b5080f35b5050346103c25760203660031901126103c25760209161036f9082906001600160a01b036104aa611412565b1681528085522054611673565b5050346103c25760203660031901126103c2576020906104d5611412565b50515f198152f35b5050346103c25760209061036f6104f336611458565b91611936565b5050346103c257816003193601126103c2576020906007549051908152f35b509034610291578260031936011261029157610532612600565b61053a6125e2565b7ffc8737ab85eb45125971625a9ebdb75cc78e01d5c1fa80c4c6e5203f47bc4fab9182845260209260058452828520338652845260ff83862054161561088b5750610583611c30565b815163a480ca7960e01b815230828201526001600160a01b037f00000000000000000000000000000000000000000000000000000000000000008116949192869291908585602481878b5af19182156108815784958593610846575b50966106079761061660075497610610612710806105fd8c85611604565b049c8d9b89611604565b049b8c92611696565b95611696565b988761080d575b806107a8575b50831580159061079f575b610677575b505050507f4fed68db354fc9a4a85e24ef5dc3a7bea31a6b507ecaaa263f65fa1c70ab647c94508351928352820152a160015f805160206126308339815191525580f35b6106a48483837f0000000000000000000000000000000000000000000000000000000000000000166124d4565b875163d21220a760e01b815285818581865afa90811561079557926106db8b82899897958b956044988791610768575b50166124d4565b89519a8b958694634e6a20ed60e11b865285015260248401525af1801561075e5761070a575b84808080610633565b8085813d8311610757575b61071f818361148d565b810103126103c2576107517f4fed68db354fc9a4a85e24ef5dc3a7bea31a6b507ecaaa263f65fa1c70ab647c95611922565b50610701565b503d610715565b84513d84823e3d90fd5b61078891508b3d8d1161078e575b610780818361148d565b8101906119f4565b5f6106d4565b503d610776565b89513d89823e3d90fd5b5088151561062e565b885163d21220a760e01b815286818681875afa90811561080357906107e0929189916107e6575b50838060065460081c1691166123ec565b5f610623565b6107fd9150883d8a1161078e57610780818361148d565b5f6107cf565b8a513d8a823e3d90fd5b610841888360065460081c16847f0000000000000000000000000000000000000000000000000000000000000000166123ec565b61061d565b955091508585813d811161087a575b61085f818361148d565b8101031261087657845194830151916106076105df565b8380fd5b503d610855565b86513d86823e3d90fd5b604492519163e2517d3f60e01b835233908301526024820152fd5b509190346103c2576108b736611458565b9391946108c2612600565b6108ca6125e2565b8515610984576108d8611c30565b6108e1866116f2565b9460018060a01b0391868684841696878152806020522054106109765750826020976109178861091d948833036109665761227d565b87611a13565b918451928352858784015216907ffbde797d201c681b91056529119e0b02407c7bb96a4a2c75c01fc9667232c8db843392a460015f805160206126308339815191525551908152f35b61097182338361231b565b61227d565b8551633999656760e01b8152fd5b8351631f2a200560e01b8152fd5b509134610376576020366003190112610376575061036f602092356116a3565b5050346103c257806003193601126103c2576020906109dc6109d2611412565b6024359033612145565b5160018152f35b5050346103c257816003193601126103c257517f00000000000000000000000000000000000000000000000000000000000000006001600160a01b03168152602090f35b5050346103c257816003193601126103c25751908152602090f35b509190346103c257816003193601126103c257805191809380549160019083821c92828516948515610b3c575b6020958686108114610b2957858952908115610b055750600114610aad575b610aa98787610a9f828c038361148d565b51918291826113cb565b0390f35b81529295507f8a35acfbc15ff81a39ae7d344fd709f28e8600b4aa8c65c6b64bfe7fe36bd19b5b828410610af25750505082610aa994610a9f92820101945f80610a8e565b8054868501880152928601928101610ad4565b60ff19168887015250505050151560051b8301019250610a9f82610aa95f80610a8e565b634e487b7160e01b845260228352602484fd5b93607f1693610a6f565b509190346103c257806003193601126103c2578235610b6361142c565b92610b6c612600565b610b746125e2565b8115610d1e57610b82611c30565b610b8b826116a3565b936001600160a01b03917f0000000000000000000000000000000000000000000000000000000000000000831690610bc58730338561246a565b610bcf8584612220565b85516370a0823160e01b815230898201526020988982602481875afa918215610d1457908a92918492610ce3575b50604490610c2f83897f00000000000000000000000000000000000000000000000000000000000000001680986124d4565b848a519687948593634e6a20ed60e11b85528401528160248401525af18015610cd757610ca1575b50508351928584528684015216907fdcbc1c05240f31ff3ad067ef1ee35ce4997762752e3a095284754544f4c709d7833392a360015f805160206126308339815191525551908152f35b8782813d8311610cd0575b610cb6818361148d565b810103126103765750610cc890611922565b505f80610c57565b503d610cac565b508551903d90823e3d90fd5b8092508391933d8311610d0d575b610cfb818361148d565b81010312610291575189916044610bfd565b503d610cf1565b88513d85823e3d90fd5b8251631f2a200560e01b81528590fd5b50346102915781600319360112610291578160209360ff92610d4e61142c565b90358252600586528282206001600160a01b039091168252855220549151911615158152f35b5050346103c257816003193601126103c2576020906009549051908152f35b5050346103c257816003193601126103c25760207f62e78cea01bee320cd4e420270b5ea74000d11b0c9f74754ebdbfc544b05a25891610dd1611f7e565b610dd96125e2565b600160ff19600654161760065551338152a180f35b50903461029157602036600319011261029157813591610e0c611ff7565b6107d08311610e475750816020917f9b49d0cd76012d9c67241c2f68f836efbaf50ea29901a250040671402d5263f59360075551908152a180f35b6020606492519162461bcd60e51b835282015260076024820152664d61782032302560c81b6044820152fd5b5091346103765781600319360112610376575061036f602092610e9461142c565b903561172d565b50913461037657506103e490610eb036611442565b929033903390611936565b5050346103c257816003193601126103c257600654905160089190911c6001600160a01b03168152602090f35b5050346103c257816003193601126103c25760209060ff6006541690519015158152f35b509134610376576020366003190112610376575061036f60209235611673565b5050346103c257816003193601126103c257515f198152602090f35b5034610291578260031936011261029157610f61611f7e565b6006549060ff821615610fa3575060ff1916600655513381527f5db9ee0a495bf2e6ff9c91a7834c1ba4fdd244a5e8aa4e537bd38aeae4b073aa90602090a180f35b8251638dfc202b60e01b8152fd5b5050346103c257816003193601126103c257517f00000000000000000000000000000000000000000000000000000000000000006001600160a01b03168152602090f35b5050346103c257816003193601126103c2576020906008549051908152f35b509190346103c257806003193601126103c25761102f61142c565b90336001600160a01b0383160361104c575061047a9192356120d0565b5163334bd91960e11b81528390fd5b5050346103c257816003193601126103c257602090517ffc8737ab85eb45125971625a9ebdb75cc78e01d5c1fa80c4c6e5203f47bc4fab8152f35b5050346103c257816003193601126103c2576020905160128152f35b50903461029157806003193601126102915761047a91356110d6600161046361142c565b612052565b50346102915760203660031901126102915781602093600192358152600585522001549051908152f35b5050346103c25760603660031901126103c2576020906109dc611126611412565b61112e61142c565b6044359161113d83338361231b565b612145565b5050346103c257816003193601126103c257602090517fbf233dd2aafeb4d50879c4aa5c81e96d92f6e6945c906a58f9f2d1c1631b4b268152f35b5050346103c257816003193601126103c2576020906002549051908152f35b509134610376576020366003190112610376575061036f602092356116f2565b50346102915781600319360112610291576111d5611412565b60243590331561124e576001600160a01b031691821561123757508083602095338152600187528181208582528752205582519081527f8c5be1e5ebec7d5bd14f71427d1e84f3dd0314c0f7b2291e5b200ac8c7c3b925843392a35160018152f35b8351634a1406b160e11b8152908101859052602490fd5b835163e602df0560e01b8152808401869052602490fd5b509034610291578260031936011261029157805191836003549060019082821c92828116801561134f575b602095868610821461133c575084885290811561131a57506001146112c1575b610aa98686610a9f828b038361148d565b929550600383527fc2575a0e9e593c00f959f8c92f12db2869c3395a3b0502d05e2516446f71f85b5b8284106113075750505082610aa994610a9f92820101945f6112b0565b80548685018801529286019281016112ea565b60ff191687860152505050151560051b8301019250610a9f82610aa95f6112b0565b634e487b7160e01b845260229052602483fd5b93607f1693611290565b503461029157602036600319011261029157359063ffffffff60e01b82168092036102915760209250637965db0b60e01b821491821561139d575b50519015158152f35b6301ffc9a760e01b1491505f611394565b5050346103c257816003193601126103c25760209061036f6114e4565b602080825282518183018190529093925f5b8281106113fe57505060409293505f838284010152601f8019910116010190565b8181018601518482016040015285016113dd565b600435906001600160a01b038216820361142857565b5f80fd5b602435906001600160a01b038216820361142857565b6040906003190112611428576004359060243590565b606090600319011261142857600435906001600160a01b03906024358281168103611428579160443590811681036114285790565b90601f8019910116810190811067ffffffffffffffff8211176114af57604052565b634e487b7160e01b5f52604160045260245ffd5b919082018092116114d057565b634e487b7160e01b5f52601160045260245ffd5b6040516370a0823160e01b8152306004820152602091906001600160a01b039083816024817f000000000000000000000000000000000000000000000000000000000000000086165afa9182156115c65784915f936115d1575b506040516306a61f7560e51b81529190829060049082907f0000000000000000000000000000000000000000000000000000000000000000165afa9384156115c6575f94611597575b50509161159491926114c3565b90565b81813d83116115bf575b6115ab818361148d565b81010312610876575192506115945f611587565b503d6115a1565b6040513d5f823e3d90fd5b9182819492943d83116115fd575b6115e9818361148d565b81010312610376575051908390600461153e565b503d6115df565b818102929181159184041417156114d057565b8115611621570490565b634e487b7160e01b5f52601260045260245ffd5b60025480158015611664575b611660576116529061159492611604565b61165a6114e4565b90611617565b5090565b5061166d6114e4565b15611641565b6002548015611660576116916115949261168b6114e4565b90611604565b611617565b919082039182116114d057565b60025490811580156116e3575b6116de57816116c46116c99261168b6114e4565b6114c3565b5f198101919082116114d05761159491611617565b905090565b506116ec6114e4565b156116b0565b6002548015611660576117089061171692611604565b6117106114e4565b906114c3565b5f1981019081116114d0576115949061165a6114e4565b90611736612600565b61173e6125e2565b81156119105761174c611c30565b61175582611635565b918215611910576001600160a01b037f00000000000000000000000000000000000000000000000000000000000000008116906117948330338561246a565b61179e8585612220565b6040938451926370a0823160e01b84523060048501526020938481602481855afa908115611906579085915f916118d7575b50916044836118045f95887f00000000000000000000000000000000000000000000000000000000000000001680956124d4565b89519485938492634e6a20ed60e11b845260048401528160248401525af180156118cd57908791611874575b507fdcbc1c05240f31ff3ad067ef1ee35ce4997762752e3a095284754544f4c709d793865195865285015216923392a39060015f8051602061263083398151915255565b90508381813d83116118c6575b61188b818361148d565b81010312611428577fdcbc1c05240f31ff3ad067ef1ee35ce4997762752e3a095284754544f4c709d7936118bf8892611922565b5093611830565b503d611881565b86513d5f823e3d90fd5b9182813d83116118ff575b6118ec818361148d565b81010312610376575051849060446117d0565b503d6118e2565b87513d5f823e3d90fd5b604051631f2a200560e01b8152600490fd5b51906001600160801b038216820361142857565b919091611941612600565b6119496125e2565b80156119105760018060a01b0380831692835f525f6020528260405f2054106119e2578461199991611979611c30565b6119938561198681611673565b928833036109665761227d565b84611a13565b9360405192858452602084015216907ffbde797d201c681b91056529119e0b02407c7bb96a4a2c75c01fc9667232c8db60403392a49060015f8051602061263083398151915255565b604051633999656760e01b8152600490fd5b9081602091031261142857516001600160a01b03811681036114285790565b9092915f915f92611a26826002546114c3565b916001600160801b038080611a39611d2d565b168581611c1d57505050855b16928315611b45575050604051639babddf560e01b81526004810192909252506001600160a01b039182166024820152906020908290604490829086907f0000000000000000000000000000000000000000000000000000000000000000165af1918215611b39578092611b05575b5050915b8210611ac057565b60405162461bcd60e51b815260206004820152601d60248201527f496e73756666696369656e74206173736574732077697468647261776e0000006044820152606490fd5b9091506020823d8211611b31575b81611b206020938361148d565b810103126103765750515f80611ab4565b3d9150611b13565b604051903d90823e3d90fd5b6040516370a0823160e01b81523060048201529297957f00000000000000000000000000000000000000000000000000000000000000006001600160a01b03169594509192909190602081602481895afa918215611b39578092611be9575b505080611bb6575b5050505050611ab8565b611bc39261169191611604565b9182611bd1575b8080611bac565b8293955090611be092916123ec565b915f8080611bca565b9091506020823d8211611c15575b81611c046020938361148d565b810103126103765750515f80611ba4565b3d9150611bf7565b611691611c2a9286611604565b16611a45565b611c3c60095442611696565b80158015611d01575b611cfe576301e13380611c6f611c596114e4565b92612710611c6960085486611604565b04611604565b049081151580611cf5575b611c87575b505042600955565b611ca19061165a83611c9b60025482611604565b92611696565b8015611c7f577f4fed68db354fc9a4a85e24ef5dc3a7bea31a6b507ecaaa263f65fa1c70ab647c91611ce260409260018060a01b0360065460081c16612220565b8151905f82526020820152a15f80611c7f565b50808210611c7a565b50565b5060025415611c45565b51906001600160a01b038216820361142857565b51908160020b820361142857565b604080516312aa0daf60e01b81526001600160a01b037f00000000000000000000000000000000000000000000000000000000000000008116939290916020908181600481895afa908115611efc575f91611f48575b5015611f40578151631e46e62f60e21b8152948186600481845afa958615611efc575f96611f06575b5094816004959684519687809263ceefe5d160e01b82525afa948515611efc575f95611ecd575b5082519463133f757160e31b8652600486015284602481610180968794165afa928315611ec3575f93611e09575b505050905090565b84813d8311611ebc575b611e1d818361148d565b810103126102915783516bffffffffffffffffffffffff8116036102915790611e4a611e52928501611d0b565b508301611d0b565b50611e5f60608301611d0b565b50608082015162ffffff8116036103765750611e7d60a08201611d1f565b50611e8a60c08201611d1f565b50611eb2610160611e9d60e08401611922565b92611eab6101408201611922565b5001611922565b50805f8080611e01565b503d611e13565b82513d5f823e3d90fd5b90948282813d8311611ef5575b611ee4818361148d565b81010312610376575051935f611dd3565b503d611eda565b83513d5f823e3d90fd5b8281813d8311611f39575b611f1b818361148d565b81010312611f355751958487168703610376575081611dac565b8680fd5b503d611f11565b505f93505050565b8281813d8311611f77575b611f5d818361148d565b810103126103c2575190811515820361037657505f611d83565b503d611f53565b335f9081527ffbc93671eda18a3103415c6de11b46be272fd03129c33970fab0bfd26d35c8a060205260409020547fbf233dd2aafeb4d50879c4aa5c81e96d92f6e6945c906a58f9f2d1c1631b4b269060ff1615611fd95750565b6044906040519063e2517d3f60e01b82523360048301526024820152fd5b335f9081527f05b8ccbb9d4d8fb16ea74ce3c29a41f1b461fbdaff4714a0d9a8eb05499746bc602052604081205460ff1615611fd95750565b805f52600560205260405f20335f5260205260ff60405f20541615611fd95750565b905f918083526005602052604083209160018060a01b03169182845260205260ff604084205416155f146120cb5780835260056020526040832082845260205260408320600160ff198254161790557f2f8788117e7eff1d82e926ec794901d17c78024a50270940304540a733656f0d339380a4600190565b505090565b905f918083526005602052604083209160018060a01b03169182845260205260ff6040842054165f146120cb578083526005602052604083208284526020526040832060ff1981541690557ff6391f5c32d9c69d2a47ea670b442974b53935d1edc7fd64eb21e047a839171b339380a4600190565b916001600160a01b0380841692831561220857169283156121f0575f90838252816020526040822054908382106121be575091604082827fddf252ad1be2c89b69c2b068fc378daa952ba7f163c4a11628f55a4df523b3ef958760209652828652038282205586815220818154019055604051908152a3565b60405163391434e360e21b81526001600160a01b03919091166004820152602481019190915260448101839052606490fd5b60405163ec442f0560e01b81525f6004820152602490fd5b604051634b637e8f60e11b81525f6004820152602490fd5b6001600160a01b03169081156121f0577fddf252ad1be2c89b69c2b068fc378daa952ba7f163c4a11628f55a4df523b3ef6020826122615f946002546114c3565b60025584845283825260408420818154019055604051908152a3565b906001600160a01b038216908115612208575f92828452836020526040842054908282106122e95750817fddf252ad1be2c89b69c2b068fc378daa952ba7f163c4a11628f55a4df523b3ef926020928587528684520360408620558060025403600255604051908152a3565b60405163391434e360e21b81526001600160a01b03919091166004820152602481019190915260448101829052606490fd5b9160018060a01b03809316915f9383855260016020526040938486209183169182875260205284862054925f198410612358575b50505050505050565b8484106123bc575080156123a457811561238c5785526001602052838520908552602052039120555f80808080808061234f565b8451634a1406b160e11b815260048101879052602490fd5b845163e602df0560e01b815260048101879052602490fd5b8551637dc7a0d960e11b81526001600160a01b039190911660048201526024810184905260448101859052606490fd5b60405163a9059cbb60e01b5f9081526001600160a01b039384166004526024949094529260209060448180855af160015f511481161561244b575b836040521561243557505050565b635274afe760e01b835216600482015260249150fd5b600181151661246157813b15153d151616612427565b833d5f823e3d90fd5b6040516323b872dd60e01b5f9081526001600160a01b03938416600452938316602452604494909452909160209060648180855af160015f51148116156124be575b836040525f6060521561243557505050565b600181151661246157813b15153d1516166124ac565b60405163095ea7b360e01b5f8181526001600160a01b0394851660048190526024879052919591929060209060448180885af160015f51148116156125d5575b8160405215612526575b505050505050565b60205f878152846004528060245260448180885af160015f51148116156125b6575b816040521561259f5750906020915f9160405196835260045260245260448180855af160015f5114811615612589575b83604052156124355780808061251e565b600181151661246157813b15153d151616612578565b635274afe760e01b81528385166004820152602490fd5b60018115166125cc57843b15153d151616612548565b503d5f823e3d90fd5b843b15153d151616612514565b60ff600654166125ee57565b60405163d93c066560e01b8152600490fd5b5f80516020612630833981519152600281541461261d5760029055565b604051633ee5aeb560e01b8152600490fdfe9b779b17422d0df92223018b32b4d1fa46e071723d6817e2486d003becc55f00a2646970667358221220b9fe2b17ebb834f5e0409a9618b789d74c79405d2801aa82a8d9d510334b59ee64736f6c634300081400332f8788117e7eff1d82e926ec794901d17c78024a50270940304540a733656f0d","linkReferences":{}},"methodIdentifiers":{"DEFAULT_ADMIN_ROLE()":"a217fddf","EMERGENCY_ROLE()":"20df4359","KEEPER_ROLE()":"364bc15a","MAX_DEPOSIT_PER_TX()":"41f1c0d9","allowance(address,address)":"dd62ed3e","approve(address,uint256)":"095ea7b3","asset()":"38d52e0f","balanceOf(address)":"70a08231","compoundFees()":"b738fd0d","convertToAssets(uint256)":"07a2d13a","convertToShares(uint256)":"c6e6f592","decimals()":"313ce567","deposit(uint256,address)":"6e553f65","depositWithMinShares(uint256,uint256)":"da674c58","getRoleAdmin(bytes32)":"248a9ca3","grantRole(bytes32,address)":"2f2ff15d","hasRole(bytes32,address)":"91d14854","lastFeeTimestamp()":"8b169b36","managementFeeBps()":"3813c35a","maxDeposit(address)":"402d267d","maxMint(address)":"c63d75b6","maxRedeem(address)":"d905777e","maxWithdraw(address)":"ce96cb77","mint(uint256,address)":"94bf804d","name()":"06fdde03","pause()":"8456cb59","paused()":"5c975abb","performanceFeeBps()":"b9d4e879","previewDeposit(uint256)":"ef8b30f7","previewMint(uint256)":"b3d7f6b9","previewRedeem(uint256)":"4cdad506","previewWithdraw(uint256)":"0a28a477","redeem(uint256,address,address)":"ba087652","redeemWithMinAssets(uint256,uint256)":"69e67996","renounceRole(bytes32,address)":"36568abe","revokeRole(bytes32,address)":"d547741f","setManagementFee(uint256)":"fe56e232","setPerformanceFee(uint256)":"70897b23","setTreasury(address)":"f0f44260","strategy()":"a8c62e76","supportsInterface(bytes4)":"01ffc9a7","symbol()":"95d89b41","totalAssets()":"01e1d114","totalSupply()":"18160ddd","transfer(address,uint256)":"a9059cbb","transferFrom(address,address,uint256)":"23b872dd","treasury()":"61d027b3","unpause()":"3f4ba83a","withdraw(uint256,address,address)":"b460af94"},"id":2}