{"abi":[{"type":"constructor","inputs":[{"name":"_positionManager","type":"address","internalType":"address"},{"name":"_pool","type":"address","internalType":"address"},{"name":"_swapRouter","type":"address","internalType":"address"},{"name":"_strategy","type":"uint8","internalType":"enum MezRangeStrategy.StrategyType"},{"name":"_admin","type":"address","internalType":"address"}],"stateMutability":"nonpayable"},{"type":"function","name":"DEFAULT_ADMIN_ROLE","inputs":[],"outputs":[{"name":"","type":"bytes32","internalType":"bytes32"}],"stateMutability":"view"},{"type":"function","name":"EMERGENCY_ROLE","inputs":[],"outputs":[{"name":"","type":"bytes32","internalType":"bytes32"}],"stateMutability":"view"},{"type":"function","name":"KEEPER_ROLE","inputs":[],"outputs":[{"name":"","type":"bytes32","internalType":"bytes32"}],"stateMutability":"view"},{"type":"function","name":"STRATEGY_WIDTHS","inputs":[{"name":"","type":"uint256","internalType":"uint256"}],"outputs":[{"name":"","type":"uint24","internalType":"uint24"}],"stateMutability":"view"},{"type":"function","name":"VAULT_ROLE","inputs":[],"outputs":[{"name":"","type":"bytes32","internalType":"bytes32"}],"stateMutability":"view"},{"type":"function","name":"addLiquidity","inputs":[{"name":"amount0","type":"uint256","internalType":"uint256"},{"name":"amount1","type":"uint256","internalType":"uint256"}],"outputs":[{"name":"liquidity","type":"uint128","internalType":"uint128"}],"stateMutability":"nonpayable"},{"type":"function","name":"checkCompound","inputs":[{"name":"","type":"bytes","internalType":"bytes"}],"outputs":[{"name":"upkeepNeeded","type":"bool","internalType":"bool"},{"name":"performData","type":"bytes","internalType":"bytes"}],"stateMutability":"view"},{"type":"function","name":"checkUpkeep","inputs":[{"name":"","type":"bytes","internalType":"bytes"}],"outputs":[{"name":"upkeepNeeded","type":"bool","internalType":"bool"},{"name":"performData","type":"bytes","internalType":"bytes"}],"stateMutability":"view"},{"type":"function","name":"collectAndCompound","inputs":[],"outputs":[{"name":"fees0","type":"uint256","internalType":"uint256"},{"name":"fees1","type":"uint256","internalType":"uint256"}],"stateMutability":"nonpayable"},{"type":"function","name":"collectFees","inputs":[{"name":"recipient","type":"address","internalType":"address"}],"outputs":[{"name":"fees0","type":"uint256","internalType":"uint256"},{"name":"fees1","type":"uint256","internalType":"uint256"}],"stateMutability":"nonpayable"},{"type":"function","name":"currentTickLower","inputs":[],"outputs":[{"name":"","type":"int24","internalType":"int24"}],"stateMutability":"view"},{"type":"function","name":"currentTickUpper","inputs":[],"outputs":[{"name":"","type":"int24","internalType":"int24"}],"stateMutability":"view"},{"type":"function","name":"fee","inputs":[],"outputs":[{"name":"","type":"uint24","internalType":"uint24"}],"stateMutability":"view"},{"type":"function","name":"getRoleAdmin","inputs":[{"name":"role","type":"bytes32","internalType":"bytes32"}],"outputs":[{"name":"","type":"bytes32","internalType":"bytes32"}],"stateMutability":"view"},{"type":"function","name":"grantRole","inputs":[{"name":"role","type":"bytes32","internalType":"bytes32"},{"name":"account","type":"address","internalType":"address"}],"outputs":[],"stateMutability":"nonpayable"},{"type":"function","name":"hasRole","inputs":[{"name":"role","type":"bytes32","internalType":"bytes32"},{"name":"account","type":"address","internalType":"address"}],"outputs":[{"name":"","type":"bool","internalType":"bool"}],"stateMutability":"view"},{"type":"function","name":"lastRebalanceTimestamp","inputs":[],"outputs":[{"name":"","type":"uint256","internalType":"uint256"}],"stateMutability":"view"},{"type":"function","name":"minPoolAgeSecs","inputs":[],"outputs":[{"name":"","type":"uint32","internalType":"uint32"}],"stateMutability":"view"},{"type":"function","name":"onERC721Received","inputs":[{"name":"","type":"address","internalType":"address"},{"name":"","type":"address","internalType":"address"},{"name":"","type":"uint256","internalType":"uint256"},{"name":"","type":"bytes","internalType":"bytes"}],"outputs":[{"name":"","type":"bytes4","internalType":"bytes4"}],"stateMutability":"pure"},{"type":"function","name":"pause","inputs":[],"outputs":[],"stateMutability":"nonpayable"},{"type":"function","name":"paused","inputs":[],"outputs":[{"name":"","type":"bool","internalType":"bool"}],"stateMutability":"view"},{"type":"function","name":"performUpkeep","inputs":[{"name":"","type":"bytes","internalType":"bytes"}],"outputs":[],"stateMutability":"nonpayable"},{"type":"function","name":"pool","inputs":[],"outputs":[{"name":"","type":"address","internalType":"contract IUniswapV3Pool"}],"stateMutability":"view"},{"type":"function","name":"positionActive","inputs":[],"outputs":[{"name":"","type":"bool","internalType":"bool"}],"stateMutability":"view"},{"type":"function","name":"positionManager","inputs":[],"outputs":[{"name":"","type":"address","internalType":"contract INonfungiblePositionManager"}],"stateMutability":"view"},{"type":"function","name":"positionTokenId","inputs":[],"outputs":[{"name":"","type":"uint256","internalType":"uint256"}],"stateMutability":"view"},{"type":"function","name":"rebalance","inputs":[],"outputs":[],"stateMutability":"nonpayable"},{"type":"function","name":"rebalanceCount","inputs":[],"outputs":[{"name":"","type":"uint256","internalType":"uint256"}],"stateMutability":"view"},{"type":"function","name":"removeLiquidity","inputs":[{"name":"liquidity","type":"uint128","internalType":"uint128"},{"name":"recipient","type":"address","internalType":"address"}],"outputs":[{"name":"amount0","type":"uint256","internalType":"uint256"},{"name":"amount1","type":"uint256","internalType":"uint256"}],"stateMutability":"nonpayable"},{"type":"function","name":"removeLiquidityAsToken0","inputs":[{"name":"liquidity","type":"uint128","internalType":"uint128"},{"name":"recipient","type":"address","internalType":"address"}],"outputs":[{"name":"assetsOut","type":"uint256","internalType":"uint256"}],"stateMutability":"nonpayable"},{"type":"function","name":"renounceRole","inputs":[{"name":"role","type":"bytes32","internalType":"bytes32"},{"name":"callerConfirmation","type":"address","internalType":"address"}],"outputs":[],"stateMutability":"nonpayable"},{"type":"function","name":"rescueTokens","inputs":[{"name":"token","type":"address","internalType":"address"},{"name":"to","type":"address","internalType":"address"},{"name":"amount","type":"uint256","internalType":"uint256"}],"outputs":[],"stateMutability":"nonpayable"},{"type":"function","name":"revokeRole","inputs":[{"name":"role","type":"bytes32","internalType":"bytes32"},{"name":"account","type":"address","internalType":"address"}],"outputs":[],"stateMutability":"nonpayable"},{"type":"function","name":"setMinPoolAgeSecs","inputs":[{"name":"_secs","type":"uint32","internalType":"uint32"}],"outputs":[],"stateMutability":"nonpayable"},{"type":"function","name":"setSlippage","inputs":[{"name":"_bps","type":"uint256","internalType":"uint256"}],"outputs":[],"stateMutability":"nonpayable"},{"type":"function","name":"setStrategy","inputs":[{"name":"_strategy","type":"uint8","internalType":"enum MezRangeStrategy.StrategyType"}],"outputs":[],"stateMutability":"nonpayable"},{"type":"function","name":"setTwapSeconds","inputs":[{"name":"_seconds","type":"uint32","internalType":"uint32"}],"outputs":[],"stateMutability":"nonpayable"},{"type":"function","name":"shouldRebalance","inputs":[],"outputs":[{"name":"","type":"bool","internalType":"bool"}],"stateMutability":"view"},{"type":"function","name":"slippageBps","inputs":[],"outputs":[{"name":"","type":"uint256","internalType":"uint256"}],"stateMutability":"view"},{"type":"function","name":"strategy","inputs":[],"outputs":[{"name":"","type":"uint8","internalType":"enum MezRangeStrategy.StrategyType"}],"stateMutability":"view"},{"type":"function","name":"supportsInterface","inputs":[{"name":"interfaceId","type":"bytes4","internalType":"bytes4"}],"outputs":[{"name":"","type":"bool","internalType":"bool"}],"stateMutability":"view"},{"type":"function","name":"swapRouter","inputs":[],"outputs":[{"name":"","type":"address","internalType":"contract IUniswapV3SwapRouter"}],"stateMutability":"view"},{"type":"function","name":"tickSpacing","inputs":[],"outputs":[{"name":"","type":"int24","internalType":"int24"}],"stateMutability":"view"},{"type":"function","name":"token0","inputs":[],"outputs":[{"name":"","type":"address","internalType":"contract IERC20"}],"stateMutability":"view"},{"type":"function","name":"token1","inputs":[],"outputs":[{"name":"","type":"address","internalType":"contract IERC20"}],"stateMutability":"view"},{"type":"function","name":"totalFeesCollected0","inputs":[],"outputs":[{"name":"","type":"uint256","internalType":"uint256"}],"stateMutability":"view"},{"type":"function","name":"totalFeesCollected1","inputs":[],"outputs":[{"name":"","type":"uint256","internalType":"uint256"}],"stateMutability":"view"},{"type":"function","name":"totalValue","inputs":[],"outputs":[{"name":"value0","type":"uint256","internalType":"uint256"}],"stateMutability":"view"},{"type":"function","name":"twapSeconds","inputs":[],"outputs":[{"name":"","type":"uint32","internalType":"uint32"}],"stateMutability":"view"},{"type":"function","name":"unpause","inputs":[],"outputs":[],"stateMutability":"nonpayable"},{"type":"event","name":"FeesCollected","inputs":[{"name":"amount0","type":"uint256","indexed":false,"internalType":"uint256"},{"name":"amount1","type":"uint256","indexed":false,"internalType":"uint256"}],"anonymous":false},{"type":"event","name":"Paused","inputs":[{"name":"account","type":"address","indexed":false,"internalType":"address"}],"anonymous":false},{"type":"event","name":"PositionClosed","inputs":[{"name":"tokenId","type":"uint256","indexed":true,"internalType":"uint256"},{"name":"amount0","type":"uint256","indexed":false,"internalType":"uint256"},{"name":"amount1","type":"uint256","indexed":false,"internalType":"uint256"}],"anonymous":false},{"type":"event","name":"PositionOpened","inputs":[{"name":"tokenId","type":"uint256","indexed":true,"internalType":"uint256"},{"name":"tickLower","type":"int24","indexed":false,"internalType":"int24"},{"name":"tickUpper","type":"int24","indexed":false,"internalType":"int24"},{"name":"liquidity","type":"uint128","indexed":false,"internalType":"uint128"}],"anonymous":false},{"type":"event","name":"Rebalanced","inputs":[{"name":"oldLower","type":"int24","indexed":false,"internalType":"int24"},{"name":"oldUpper","type":"int24","indexed":false,"internalType":"int24"},{"name":"newLower","type":"int24","indexed":false,"internalType":"int24"},{"name":"newUpper","type":"int24","indexed":false,"internalType":"int24"},{"name":"feesCollected0","type":"uint256","indexed":false,"internalType":"uint256"},{"name":"feesCollected1","type":"uint256","indexed":false,"internalType":"uint256"}],"anonymous":false},{"type":"event","name":"RoleAdminChanged","inputs":[{"name":"role","type":"bytes32","indexed":true,"internalType":"bytes32"},{"name":"previousAdminRole","type":"bytes32","indexed":true,"internalType":"bytes32"},{"name":"newAdminRole","type":"bytes32","indexed":true,"internalType":"bytes32"}],"anonymous":false},{"type":"event","name":"RoleGranted","inputs":[{"name":"role","type":"bytes32","indexed":true,"internalType":"bytes32"},{"name":"account","type":"address","indexed":true,"internalType":"address"},{"name":"sender","type":"address","indexed":true,"internalType":"address"}],"anonymous":false},{"type":"event","name":"RoleRevoked","inputs":[{"name":"role","type":"bytes32","indexed":true,"internalType":"bytes32"},{"name":"account","type":"address","indexed":true,"internalType":"address"},{"name":"sender","type":"address","indexed":true,"internalType":"address"}],"anonymous":false},{"type":"event","name":"SlippageUpdated","inputs":[{"name":"newSlippageBps","type":"uint256","indexed":false,"internalType":"uint256"}],"anonymous":false},{"type":"event","name":"StrategyChanged","inputs":[{"name":"newStrategy","type":"uint8","indexed":false,"internalType":"enum MezRangeStrategy.StrategyType"}],"anonymous":false},{"type":"event","name":"TokensSwappedForRebalance","inputs":[{"name":"amountIn","type":"uint256","indexed":false,"internalType":"uint256"},{"name":"amountOut","type":"uint256","indexed":false,"internalType":"uint256"},{"name":"zeroForOne","type":"bool","indexed":false,"internalType":"bool"}],"anonymous":false},{"type":"event","name":"Unpaused","inputs":[{"name":"account","type":"address","indexed":false,"internalType":"address"}],"anonymous":false},{"type":"error","name":"AccessControlBadConfirmation","inputs":[]},{"type":"error","name":"AccessControlUnauthorizedAccount","inputs":[{"name":"account","type":"address","internalType":"address"},{"name":"neededRole","type":"bytes32","internalType":"bytes32"}]},{"type":"error","name":"EnforcedPause","inputs":[]},{"type":"error","name":"ExpectedPause","inputs":[]},{"type":"error","name":"NoActivePosition","inputs":[]},{"type":"error","name":"NotInRange","inputs":[]},{"type":"error","name":"PositionAlreadyActive","inputs":[]},{"type":"error","name":"ReentrancyGuardReentrantCall","inputs":[]},{"type":"error","name":"SafeERC20FailedOperation","inputs":[{"name":"token","type":"address","internalType":"address"}]},{"type":"error","name":"SlippageExceeded","inputs":[]},{"type":"error","name":"ZeroLiquidity","inputs":[]}],"bytecode":{"object":"0x610160604081815234620004735760a08262004de5803803809162000025828562000477565b83398101031262000473576200003b826200049b565b6020916200004b8385016200049b565b93620000598282016200049b565b9460608201519360039283861015620004735760806200007a91016200049b565b60017f9b779b17422d0df92223018b32b4d1fa46e071723d6817e2486d003becc55f008190558551919491606081016001600160401b038111828210176200045f57875261025881526107d08982015261177087820152905f92835b8181106200043357505050600291909155506032600955600a80546001600160401b03191665012c0000012c1790556001600160a01b0390811660805290811660a081905295811660c0528251630dfe168160e01b8152958590879060049082905afa958615620003a5575f96620003f2575b50806004961660e052848160a0511684519788809263d21220a760e01b82525afa958615620003a5575f96620003af575b5084816004926101009816885260a0511684519283809263ddca3f4360e01b82525afa948515620003a5575f9562000357575b50506200020490620001ca62ffffff6101209680885216620004b0565b9361014094855267ff000000000000006004549160381b169067ff00000000000000191617600455620001fd8162000537565b50620005b5565b50519161476f93846200065685396080518481816103f3015281816107d401528181610cc7015281816114d601528181611a86015281816130b9015281816136b1015261377e015260a05184818161076701528181610d0801528181611a0201528181611c6001528181612228015281816124820152818161289a015281816132b901526135d9015260c051848181610a7001528181612c4b0152612e90015260e0518481816104220152818161065f01528181610bdd0152818161122a01528181611d1d015281816128e601528181612c2101528181612f18015261316d01525183818161044d015281816106a30152818161096601528181610c6a015281816111740152818161290901528181612cd201528181612e6601526131bd0152518281816105c301528181610dd201528181612c9f01528181612ee5015261337b0152518181816109ad01526123a00152f35b81819693963d83116200039d575b62000371818362000477565b810103126200039957519062ffffff8216820362000396575092620002045f620001ad565b80fd5b5080fd5b503d62000365565b83513d5f823e3d90fd5b90958582813d8311620003ea575b620003c9818362000477565b8101031262000396575084620003e16004926200049b565b9691506200017a565b503d620003bd565b958587813d83116200042b575b6200040b818362000477565b8101031262000396575080620004236004976200049b565b965062000149565b503d620003ff565b90918a849561ffff839651169062ffffff858702871b92831b921b1916179501910192919092620000d6565b634e487b7160e01b5f52604160045260245ffd5b5f80fd5b601f909101601f19168101906001600160401b038211908210176200045f57604052565b51906001600160a01b03821682036200047357565b62ffffff166064811462000531576101f481146200052b57610bb88114620005255761271014620005205760405162461bcd60e51b815260206004820152601560248201527f5469636b4d6174683a20696e76616c69642066656500000000000000000000006044820152606490fd5b60c890565b50603c90565b50600a90565b50600190565b6001600160a01b03165f8181527fad3228b676f7d3cd4284a5443f17f1962b36e491b30a40b2405849e597ba5fb5602052604081205490919060ff16620005b157818052816020526040822081835260205260408220600160ff1982541617905533915f8051602062004dc58339815191528180a4600190565b5090565b6001600160a01b03165f8181527f3c1b1854ab1360abbb06c8d4c6b2672d4b8cedc5eff522ab19e51d5cb8fdbd4660205260408120549091907fbf233dd2aafeb4d50879c4aa5c81e96d92f6e6945c906a58f9f2d1c1631b4b269060ff166200065057808352826020526040832082845260205260408320600160ff198254161790555f8051602062004dc5833981519152339380a4600190565b50509056fe60806040818152600480361015610014575f80fd5b5f92833560e01c90816301ffc9a714611d4c575080630dfe168114611d0857806312aa0daf14611ce5578063150b7a0214611c8f57806316f0115b14611c4b57806319fc9b6f1461199e57806320df435914611963578063248a9ca31461193a578063293c5d43146118c25780632f2ff15d14611899578063364bc15a1461185e57806336568abe146118175780633b98db16146117855780633f4ba83a1461172d5780634585e33b146116625780634b85f96c1461163d5780634b9085d51461161b578063578c71d9146115fc5780635c975abb146115d85780636e04ff0d14611505578063791b98bc146114c15780637d7c2a1c146114635780637e4673cc1461143d5780638456cb59146113e357806391d148541461139e578063955add081461132457806396bad8441461130557806398c4f1ac146112ca5780639b76e2071461128e5780639babddf51461119e5780639cd441da14610b9e578063a217fddf14610b83578063a480ca7914610b11578063a8c62e7614610ae4578063ae2c1d5f14610abe578063b83d815714610a9f578063c31c9c0714610a5b578063c82cfae614610a3c578063cea9d26f146109f2578063ceefe5d1146109d3578063d0c93a7c14610995578063d21220a714610951578063d4c3eea014610625578063d547741f146105e7578063ddca3f43146105a7578063e90e5ae914610584578063e96527fb14610383578063f0fa55a9146102f6578063f9cb494a146102d35763fea59bd614610246575f80fd5b346102cf5760203660031901126102cf5780359163ffffffff83168084036102cb57603c906102736142b8565b1061029e57505067ffffffff00000000600a549160201b169067ffffffff00000000191617600a5580f35b906020606492519162461bcd60e51b835282015260076024820152664d696e2036307360c81b6044820152fd5b8480fd5b8280fd5b50346102cf57826003193601126102cf57602092505460081c60020b9051908152f35b5090346102cf5760203660031901126102cf578135916103146142b8565b6101f4831161034f5750816020917ff5a802650e0a86db227cc342f06327d2ca0ff5cf2b12e0084fc5d8a7db2c54fd9360095551908152a180f35b6020606492519162461bcd60e51b8352820152600f60248201526e4d617820352520736c69707061676560881b6044820152fd5b50823461058157806003193601126105815761039d61434c565b6103a56146ea565b6103ad6146ad565b60ff82541615610572576103c03061371e565b9190928315801590610569575b6103f1575b505060015f8051602061471a8339815191525582519182526020820152f35b7f00000000000000000000000000000000000000000000000000000000000000006001600160a01b031661044685827f000000000000000000000000000000000000000000000000000000000000000061459f565b61047184827f000000000000000000000000000000000000000000000000000000000000000061459f565b60035491603c4201804211610556579161050694939160609389519361049685611f4a565b8452886020850152878a850152858585015285608085015260a084015284895180978195829463219f5d1760e01b8452830191909160a08060c083019480518452602081015160208501526040810151604085015260608101516060850152608081015160808501520151910152565b03925af190811561054b575061051d575b806103d2565b61053d9060603d8111610544575b6105358183611f9c565b81019061209e565b5050610517565b503d61052b565b8551903d90823e3d90fd5b634e487b7160e01b855260118252602485fd5b508215156103cd565b509051630cf2fcaf60e21b8152fd5b80fd5b5050346105a357816003193601126105a3576020906006549051908152f35b5080fd5b5050346105a357816003193601126105a3576020905162ffffff7f0000000000000000000000000000000000000000000000000000000000000000168152f35b5090346102cf57806003193601126102cf57610621913561061c600161060b611dba565b9383875286602052862001546143a7565b614444565b5080f35b50913461058157806003193601126105815781516370a0823160e01b80825230858301526020949192916001600160a01b039186856024817f000000000000000000000000000000000000000000000000000000000000000087165afa948515610918578495610922575b50855190815230828201528681602481867f0000000000000000000000000000000000000000000000000000000000000000165afa9081156109185784916108e7575b50815484928360ff831661074d575b505050906106ef9161207d565b90811561073c57610706610701612468565b613d22565b1690811561073c57916107298261072461072f946107349796613a66565b613a66565b9261207d565b61207d565b905b51908152f35b50506107479161207d565b90610736565b8851633850c7bd60e01b81529650909493509060c08686817f000000000000000000000000000000000000000000000000000000000000000088165afa9586156108dd5782966108a8575b506107b66107ab8260081c60020b613d22565b918a1c60020b613d22565b600354895163133f757160e31b8152968701526101809182876024817f00000000000000000000000000000000000000000000000000000000000000008a165afa96871561089e5784938598610844575b50506108349261083c9492610821926106ef98999a61396b565b92906001600160801b038093169061207d565b96169061207d565b915f806106e2565b6106ef97985061083c9550610834945061082192918161087892903d10610897575b6108708183611f9c565b8101906122ba565b9d9a509a98505050945050505050929499985092509294819450610807565b503d610866565b8a513d86823e3d90fd5b6108ca91965060c03d81116108d6575b6108c28183611f9c565b810190611fee565b5050505050945f610798565b503d6108b8565b88513d84823e3d90fd5b90508681813d8311610911575b6108fe8183611f9c565b8101031261090d57515f6106d3565b8380fd5b503d6108f4565b86513d86823e3d90fd5b9094508681813d831161094a575b61093a8183611f9c565b8101031261090d5751935f610690565b503d610930565b5050346105a357816003193601126105a357517f00000000000000000000000000000000000000000000000000000000000000006001600160a01b03168152602090f35b5050346105a357816003193601126105a357602090517f000000000000000000000000000000000000000000000000000000000000000060020b8152f35b5050346105a357816003193601126105a3576020906003549051908152f35b833461058157606036600319011261058157610a39610a0f611da0565b610a17611dba565b610a1f6142b8565b610a276146cb565b604435916001600160a01b03166144b7565b80f35b5050346105a357816003193601126105a3576020906005549051908152f35b5050346105a357816003193601126105a357517f00000000000000000000000000000000000000000000000000000000000000006001600160a01b03168152602090f35b5050346105a357816003193601126105a3576020906008549051908152f35b5050346105a357816003193601126105a357602090610adb612207565b90519015158152f35b5091346105815780600319360112610581575060ff610b0d925460381c16905191829182611ebb565b0390f35b5091346105815760203660031901126105815750610b2d611da0565b610b3561423f565b610b3d6146ea565b610b456146ad565b60ff83541615610b7557610b589061371e565b60015f8051602061471a8339815191525582519182526020820152f35b5051630cf2fcaf60e21b8152fd5b5050346105a357816003193601126105a35751908152602090f35b508290346105a357826003193601126105a3578035926024928335610bc161423f565b610bc96146ea565b610bd16146ad565b610bd9612367565b90967f000000000000000000000000000000000000000000000000000000000000000092610c0982303387614535565b801590811561116c575b5080611163575b611150575b50610c2a8188612879565b83516370a0823160e01b8082523087830152602098919790936001600160a01b03818116949291908b8b8481895afa9a8b1561114657889b611113575b507f000000000000000000000000000000000000000000000000000000000000000091818316928a51988952308c8a01528d898681875afa98891561110957918c97969593918e95938c9b6110bf575b508a8392610cf592610cf060c0967f000000000000000000000000000000000000000000000000000000000000000016998a809461459f565b61459f565b8b51633850c7bd60e01b81529c8d9182907f0000000000000000000000000000000000000000000000000000000000000000165afa9a8b156110b557899b611090575b508b8b610d5c8a610d4889613d22565b938493610d548a613d22565b9485916138e5565b916001600160801b039d8e8416156110805790610d7a93929161396b565b90600954906127109182039082821161106e579082610d9c82610da39461206a565b049361206a565b049160ff885416155f14610f7857603c420193844211610f6757508e8c5199610dcb8b611f65565b8a528901527f000000000000000000000000000000000000000000000000000000000000000062ffffff168b8901528560020b988960608a01528560020b9d8e60808b015260a08a015260c089015260e0880152610100870152306101208701526101408601528751808096634418b22b60e11b825286820190610e4e916120e9565b0381895a94608095f1938415610f5d57918a91899594938895610eee575b507fe1b61fd8135460b22abc435eec8e97ab772042997e8696d312015dd44aedd91e969492606096949263ffffff006001938b6003558554931b66ffffff00000000169266ffffffffffffff19169160081b161717179055809887519384528a8401521685820152a25b60015f8051602061471a833981519152555191168152f35b63ffffff0098507fe1b61fd8135460b22abc435eec8e97ab772042997e8696d312015dd44aedd91e979550926060969492610f426001939560803d8111610f56575b610f3a8183611f9c565b8101906120c0565b50509a909a97995050929496509290610e6c565b503d610f30565b87513d88823e3d90fd5b634e487b7160e01b8c52601189528bfd5b5093509350939450946003999697995496603c42019485421161105d57509161101a9795939160609795938c5197610faf89611f4a565b88528d8801528b87015286860152608085015260a084015285885180968195829463219f5d1760e01b8452830191909160a08060c083019480518452602081015160208501526040810151604085015260608101516060850152608081015160808501520151910152565b03925af19182156110525791611032575b5091610ed6565b61104a915060603d8111610544576105358183611f9c565b50508461102b565b8451903d90823e3d90fd5b634e487b7160e01b8a526011875289fd5b634e487b7160e01b8d5260118a52858dfd5b8d51630200e8a960e31b81528a90fd5b6110a9919b5060c03d81116108d6576108c28183611f9c565b5050505050998d610d38565b8a513d8b823e3d90fd5b92949697985092945098508d81813d8311611102575b6110df8183611f9c565b810103126110fe5751978b9695948d9490939092909190610cf5610cb7565b8980fd5b503d6110d5565b8b513d8c823e3d90fd5b909a508b81813d831161113f575b61112b8183611f9c565b8101031261113b5751998c610c67565b8780fd5b503d611121565b89513d8a823e3d90fd5b61115c9060011c612c18565b5087610c1f565b50801515610c1a565b6111989030337f0000000000000000000000000000000000000000000000000000000000000000614535565b89610c13565b5090346102cf576111ae36611dfd565b9290936111b961423f565b6111c16146ea565b6111c96146ad565b5060ff81541615611280576001600160801b0384161561127257506111ef6020936135b8565b6111f83061371e565b9290809380611255575b50508280611224575b505060015f8051602061471a8339815191525551908152f35b61124e917f00000000000000000000000000000000000000000000000000000000000000006144b7565b5f8261120b565b61126a92945061126490612e5d565b9061207d565b915f80611202565b9051630200e8a960e31b8152fd5b9051630cf2fcaf60e21b8152fd5b50346102cf5760203660031901126102cf5735916003831015610581575062ffffff6112bb602093611e8d565b90549060031b1c169051908152f35b5050346105a357816003193601126105a357602090517f31e0210044b4f6757ce6aa31f9c6e8d4896d24a755014887391a926c5224d9598152f35b5050346105a357816003193601126105a3576020906007549051908152f35b50346102cf5760203660031901126102cf578035600381101561090d577feb9d30f0e37c2d16a999489bf3fde496b34446189d6332e0bb2bd2e027de002b926113989261136f6142b8565b805467ff000000000000001916603884901b67ff00000000000000161790555191829182611ebb565b0390a180f35b50346102cf57816003193601126102cf578160209360ff926113be611dba565b903582528186528282206001600160a01b039091168252855220549151911615158152f35b5050346105a357816003193601126105a35760207f62e78cea01bee320cd4e420270b5ea74000d11b0c9f74754ebdbfc544b05a258916114216142f1565b6114296146ad565b600160ff198154161760015551338152a180f35b5050346105a357816003193601126105a357600a549051602091821c63ffffffff168152f35b5090346102cf57826003193601126102cf5761147d61434c565b6114856146ea565b61148d6146ad565b60ff825416156114b457826114a061309c565b60015f8051602061471a8339815191525580f35b51630cf2fcaf60e21b8152fd5b5050346105a357816003193601126105a357517f00000000000000000000000000000000000000000000000000000000000000006001600160a01b03168152602090f35b5090346102cf5760203660031901126102cf5781356001600160401b03811161090d576115359036908401611dd0565b505060ff60015416159182611562575b5080610b0d91519361155685611f81565b84525192839283611e71565b815163ae2c1d5f60e01b8152919250602090829081305afa80156115cc578390611592575b919050610b0d611545565b506020813d82116115c4575b816115ab60209383611f9c565b810103126102cf576115bf610b0d91612427565b611587565b3d915061159e565b505051903d90823e3d90fd5b5050346105a357816003193601126105a35760209060ff6001541690519015158152f35b5050346105a357816003193601126105a3576020906009549051908152f35b50346102cf57826003193601126102cf576020925054905190821c60020b8152f35b5050346105a357816003193601126105a35760209063ffffffff600a54169051908152f35b5090346102cf5760203660031901126102cf5781356001600160401b03811161090d576116929036908401611dd0565b505061169c61434c565b6116a46146ea565b6116ac6146ad565b805163ae2c1d5f60e01b81526020818481305afa9081156117235784916116ea575b50156116dd57826114a061309c565b51636311fcc960e11b8152fd5b90506020813d821161171b575b8161170460209383611f9c565b8101031261090d5761171590612427565b5f6116ce565b3d91506116f7565b82513d86823e3d90fd5b5050346105a357816003193601126105a35760207f5db9ee0a495bf2e6ff9c91a7834c1ba4fdd244a5e8aa4e537bd38aeae4b073aa9161176b6142f1565b6117736146cb565b60ff196001541660015551338152a180f35b50346102cf5760203660031901126102cf578035906001600160401b03821161090d576117b760ff9236908301611dd0565b505054169081611809575b816117d8575b80610b0d91519361155685611f81565b9050610b0d600854610e106117ed8242612049565b1090811591611800575b509190506117c8565b9050155f6117f7565b60015460ff161591506117c2565b509190346105a357806003193601126105a357611832611dba565b90336001600160a01b0383160361184f5750610621919235614444565b5163334bd91960e11b81528390fd5b5050346105a357816003193601126105a357602090517ffc8737ab85eb45125971625a9ebdb75cc78e01d5c1fa80c4c6e5203f47bc4fab8152f35b5090346102cf57806003193601126102cf5761062191356118bd600161060b611dba565b6143c8565b50346102cf5760203660031901126102cf5780359163ffffffff831680930361090d576118ed6142b8565b603c831061190857505063ffffffff19600a541617600a5580f35b906020606492519162461bcd60e51b8352820152600c60248201526b04d696e2036307320545741560a41b6044820152fd5b50346102cf5760203660031901126102cf57816020936001923581528085522001549051908152f35b5050346105a357816003193601126105a357602090517fbf233dd2aafeb4d50879c4aa5c81e96d92f6e6945c906a58f9f2d1c1631b4b268152f35b508290346105a3576119af36611dfd565b916119b861423f565b6119c06146ea565b6119c86146ad565b805460ff811615611c3c576001600160801b0390818416938415611c2c578751633850c7bd60e01b81526001600160a01b039260c08287817f000000000000000000000000000000000000000000000000000000000000000088165afa9182156110b55790611a5f9392918a92611c07575b50611a59611a4d8260081c60020b613d22565b9160201c60020b613d22565b9161396b565b906009549061271091820390828211611bf4579082610d9c82611a819461206a565b0494827f0000000000000000000000000000000000000000000000000000000000000000169560035492603c420192834211611be157918b9391611af99593855194611acc86611f00565b855260208501528484015260608301526080820152815180938192630624e65f60e11b835288830161218c565b03818a895af18015611bd7579188959391611b52979593611bbb575b5060035494865195611b2687611f2f565b86521660208501528085850152606084015285845180968195829463fc6f786560e01b845283016121c9565b03925af1908115611bb1578291611b82575b5060015f8051602061471a8339815191525582519182526020820152f35b9050611ba49150823d8411611baa575b611b9c8183611f9c565b810190612176565b83611b64565b503d611b92565b83513d84823e3d90fd5b611bd190873d8911611baa57611b9c8183611f9c565b50611b15565b88513d89823e3d90fd5b634e487b7160e01b8b526011885260248bfd5b634e487b7160e01b8a526011875260248afd5b611c2091925060c03d81116108d6576108c28183611f9c565b5050505050908b611a3a565b8751630200e8a960e31b81528490fd5b508451630cf2fcaf60e21b8152fd5b5050346105a357816003193601126105a357517f00000000000000000000000000000000000000000000000000000000000000006001600160a01b03168152602090f35b50913461058157608036600319011261058157611caa611da0565b50611cb3611dba565b50606435906001600160401b0382116105815750602092611cd691369101611dd0565b505051630a85bd0160e11b8152f35b5091346105815780600319360112610581575060ff602092541690519015158152f35b5050346105a357816003193601126105a357517f00000000000000000000000000000000000000000000000000000000000000006001600160a01b03168152602090f35b925050346102cf5760203660031901126102cf573563ffffffff60e01b81168091036102cf5760209250637965db0b60e01b8114908115611d8f575b5015158152f35b6301ffc9a760e01b1490505f611d88565b600435906001600160a01b0382168203611db657565b5f80fd5b602435906001600160a01b0382168203611db657565b9181601f84011215611db6578235916001600160401b038311611db65760208381860195010111611db657565b6040906003190112611db6576004356001600160801b0381168103611db657906024356001600160a01b0381168103611db65790565b91908251928382525f5b848110611e5d575050825f602080949584010152601f8019910116010190565b602081830181015184830182015201611e3d565b604090611e8a9392151581528160208201520190611e33565b90565b906003821015611ea7576003600a80840460020193060290565b634e487b7160e01b5f52603260045260245ffd5b919060208301926003821015611ece5752565b634e487b7160e01b5f52602160045260245ffd5b8115611eec570490565b634e487b7160e01b5f52601260045260245ffd5b60a081019081106001600160401b03821117611f1b57604052565b634e487b7160e01b5f52604160045260245ffd5b608081019081106001600160401b03821117611f1b57604052565b60c081019081106001600160401b03821117611f1b57604052565b61016081019081106001600160401b03821117611f1b57604052565b602081019081106001600160401b03821117611f1b57604052565b90601f801991011681019081106001600160401b03821117611f1b57604052565b51906001600160a01b0382168203611db657565b51908160020b8203611db657565b519061ffff82168203611db657565b91908260c0910312611db65761200382611fbd565b9161201060208201611fd1565b9161201d60408301611fdf565b9161202a60608201611fdf565b9160a061203960808401611fdf565b92015160ff81168103611db65790565b9190820391821161205657565b634e487b7160e01b5f52601160045260245ffd5b8181029291811591840414171561205657565b9190820180921161205657565b51906001600160801b0382168203611db657565b90816060910312611db6576120b28161208a565b916040602083015192015190565b9190826080910312611db6578151916120db6020820161208a565b916060604083015192015190565b91909161016081019260018060a01b0380825116835280602083015116602084015262ffffff6040830151166040840152606082015160020b6060840152608082015160020b608084015260a082015160a084015260c082015160c084015260e082015160e084015261010080830151908401526101209081830151169083015261014080910151910152565b9190826040910312611db6576020825192015190565b91909160808060a0830194805184526001600160801b03602082015116602085015260408101516040850152606081015160608501520151910152565b919091606060808201938051835260018060a01b036020820151166020840152816001600160801b0391826040820151166040860152015116910152565b60045460ff8116156122b557604051633850c7bd60e01b815260c0816004817f00000000000000000000000000000000000000000000000000000000000000006001600160a01b03165afa9081156122aa575f91612286575b5060020b8160081c60020b811291821561227957505090565b60201c60020b1315919050565b61229e915060c03d81116108d6576108c28183611f9c565b5050505090505f612260565b6040513d5f823e3d90fd5b505f90565b919082610180910312611db65781516bffffffffffffffffffffffff81168103611db657916122eb60208201611fbd565b916122f860408301611fbd565b9161230560608201611fbd565b91608082015162ffffff81168103611db6579161232460a08201611fd1565b9161233160c08301611fd1565b9161233e60e0820161208a565b916101008201519161012081015191611e8a610160612360610140850161208a565b930161208a565b61236f612468565b60ff60045460381c166003811015611ece57627fffff6123e26123946123e793611e8d565b90549060031b1c6123d77f000000000000000000000000000000000000000000000000000000000000000093849260011c1660020b6123dc836123d7838a613c84565b613cbf565b96613ca1565b613ca1565b620d89e719808360020b12612411575b50620d89e8808260020b1361240b57509091565b90509091565b91505f6123f7565b51908160060b8203611db657565b51908115158203611db657565b6001600160401b038111611f1b5760051b60200190565b805115611ea75760200190565b805160011015611ea75760400190565b6040805163252c09d760e01b81525f6004808301829052917f00000000000000000000000000000000000000000000000000000000000000006001600160a01b0316906024906080818381865afa90811561091857849085926127f9575b50816127d6575b5015612794578451906001600160401b03606083018181118482101761278257908691885260028452602086818601958a36883763ffffffff9687600a541697886125178461244b565b528361252284612458565b528c5196879363883bdbfd60e01b8552868a8601928601525180915260448401929185905b8783831061276257505050505081900381895afa9283928894612656575b5050506125c15750508451633850c7bd60e01b81529360c09285925082905afa9283156125b7575091612596575090565b6125ae915060c03d81116108d6576108c28183611f9c565b50505050905090565b51903d90823e3d90fd5b919495509291506125db6125d482612458565b519161244b565b5160060b9060060b0393667fffffffffffff1993667fffffffffffff8613858712176126455760030b9460060b9385156126345784145f19861416612624575050500560020b90565b634e487b7160e01b825260119052fd5b50634e487b7160e01b825260129052fd5b50634e487b7160e01b825260119052fd5b90919293503d8089843e61266a8184611f9c565b8201918a818403126127425780518281116110fe57810183601f820112156110fe5790818c95949392516126a96126a082612434565b97519788611f9c565b808752858088019160051b8301019185831161275e5786809101915b83831061274657509150508101519182116110fe570181601f820112156127425780519083808d6127016126f886612434565b91519182611f9c565b848152019260051b8201019283116110fe578301905b82821061272b5750505050905f8080612565565b83809161273784611fbd565b815201910190612717565b8880fd5b819061275184612419565b81520191019086906126c5565b8c80fd5b8451821686528e97508a9650948501949390930192600190910190612547565b634e487b7160e01b8652604187528286fd5b836017606492602088519362461bcd60e51b85528401528201527f506f6f6c20746f6f20796f756e6720666f7220545741500000000000000000006044820152fd5b90506127e963ffffffff80921642612049565b90600a5460201c1611155f6124cd565b9150506080813d8211612858575b8161281460809383611f9c565b8101031261090d5780519063ffffffff821682036102cb5760608161283e60206128519401612419565b5061284a898201611fbd565b5001612427565b905f6124c6565b3d9150612807565b6001600160801b03918216908216039190821161205657565b60408051633850c7bd60e01b81526004926001600160a01b039060c08386817f000000000000000000000000000000000000000000000000000000000000000086165afa928315612bc4575f93612b97575b506128db6128e191969396613d22565b92613d22565b5f92827f000000000000000000000000000000000000000000000000000000000000000016927f000000000000000000000000000000000000000000000000000000000000000016935b8660ff821610612940575b5050505050505050565b85516370a0823160e01b80825230898301526024906020808484818b5afa938415612b5e575f94612b68575b508951918252308b830152808284818c5afa908115612b5e575f91612b32575b509050821580612b2a575b612b1d576129a683878d613867565b6129b1828d886138b0565b926001600160801b038281169182158080612b13575b612b01571580612af6575b612a7d575b5084161015612a455750506129ee9085858c61396b565b5080821115612a3e57612a0091612049565b8015612a3857612a0f90612c18565b505b60ff809116908114612a255760010161292b565b601187634e487b7160e01b5f525260245ffd5b50612936565b5050612936565b909250612a55915085858c61396b565b809150821115612a3e57612a6891612049565b8015612a3857612a7790612e5d565b50612a11565b858216808411908115612ae45783612a958988612860565b16915b15612ade575083915b606491828102928184041490151715612acc57501115612ac1575f6129d7565b505050505050612936565b8f601190634e487b7160e01b5f52525ffd5b91612aa1565b83612aef878a612860565b1691612a98565b5081861615156129d2565b50505050505050505050505050505050565b50828716156129c7565b5050505050505050505050565b508015612997565b82813d8311612b57575b612b468183611f9c565b81010312610581575051805f61298c565b503d612b3c565b8a513d5f823e3d90fd5b90938482813d8311612b90575b612b7f8183611f9c565b81010312610581575051925f61296c565b503d612b75565b6128e1919350612bb76128db9160c03d81116108d6576108c28183611f9c565b50505050509391506128cb565b84513d5f823e3d90fd5b6020815260a06080612beb845183602086015260c0850190611e33565b93600180841b03602082015116604085015260408101516060850152606081015182850152015191015290565b908115612df3577f0000000000000000000000000000000000000000000000000000000000000000916001600160a01b037f00000000000000000000000000000000000000000000000000000000000000008116612c7783828761459f565b60408051958316606090811b6bffffffffffffffffffffffff199081166020808a01919091527f000000000000000000000000000000000000000000000000000000000000000060e81b6001600160e81b03191660348a01527f000000000000000000000000000000000000000000000000000000000000000090951690911b1660378701529194612d1681604b81015b03601f198101835282611f9c565b603c4201804211612056575f928792612d7092612d3288612df8565b90875192612d3f84611f00565b83523086840152878301528760608301526080820152855194858094819363c04b8d5960e01b835260048301612bce565b03925af1908115612de9575f91612dbb575b50916001606092847f067be47ce1de108edc0b6c140e84263b9290a3a45740ed5b06559108df794a3995978251948552840152820152a1565b908582813d8311612de2575b612dd18183611f9c565b810103126105815750516001612d82565b503d612dc7565b82513d5f823e3d90fd5b5f9150565b6001600160a01b03612e0b610701612468565b1680158015612e55575b612e4f57612e2681612e2e9361206a565b60601c61206a565b60601c6009549061271091820382811161205657612e4b9161206a565b0490565b50505f90565b508115612e15565b908115612df3577f0000000000000000000000000000000000000000000000000000000000000000916001600160a01b037f0000000000000000000000000000000000000000000000000000000000000000811690612ebd83838761459f565b60408051958216606090811b6bffffffffffffffffffffffff199081166020808a01919091527f000000000000000000000000000000000000000000000000000000000000000060e81b6001600160e81b03191660348a01527f000000000000000000000000000000000000000000000000000000000000000090941690911b1660378701529094612f5281604b8101612d08565b603c420180421161205657612fa8918791612f6c87613041565b90855192612f7984611f00565b8352308484015285830152866060830152608082015283518093819263c04b8d5960e01b835260048301612bce565b03815f80975af19081156115cc578391612ff4575b5081519384529483018590528201527f067be47ce1de108edc0b6c140e84263b9290a3a45740ed5b06559108df794a3990606090a1565b90508581813d831161303a575b61300b8183611f9c565b810103126102cf57517f067be47ce1de108edc0b6c140e84263b9290a3a45740ed5b06559108df794a39612fbd565b503d613001565b6001600160a01b03613054610701612468565b1680158015613094575b612e4f576130728161307a9360601b611ee2565b60601b611ee2565b6009549061271091820382811161205657612e4b9161206a565b50811561305e565b60048054905f906130ac3061371e565b92909160018060a01b03807f000000000000000000000000000000000000000000000000000000000000000016906003549260409384519063133f757160e31b82528282015261018060249181818481895afa9182156135ae578892613585575b50506001600160801b03811661356d575b50600354843b1561356957855190630852cd8d60e31b8252838201528681838183895af1801561355f57613533575b50815460ff1916825561315e612367565b96909461316b8887612879565b7f00000000000000000000000000000000000000000000000000000000000000008581169088516370a0823160e01b808252308883015260209889838981885afa9283156134b4578793613504575b507f000000000000000000000000000000000000000000000000000000000000000090808216948d51938452308b8501528b848b81895afa9384156134fa57908b9392918a956134c7575b5085158015906134be575b613293575b505050505050505050600754925f19841461262457505050917f2fce403d8019d62be8d8646f70b4d7d1ee427ee3316b94dc398f088ffad3035d97959391600160c098969401600755426008558251968060081c60020b8852811c60020b9087015260020b9085015260020b6060840152608083015260a0820152a1565b848960c094610cf089836132a69661459f565b8d51633850c7bd60e01b815292839182907f0000000000000000000000000000000000000000000000000000000000000000165afa9081156134b457908d8c613317938a93613487575b506132fd61330391613d22565b91613d22565b9061331185878484876138e5565b9261396b565b9190600954906127109182039082821161347557908261333a826133419461206a565b049461206a565b0492603c42019485421161346357926133ea95928f928f938f8f9560809b988e9d9a9782519a6133708c611f65565b8b528a015262ffffff7f0000000000000000000000000000000000000000000000000000000000000000169089015260020b606088015260020b8987015260a086015260c085015260e0840152610100830152306101208301526101408201528a51948580948193634418b22b60e11b83528b83016120e9565b03925af1908115613459578291613438575b506003556001835488861b66ffffff00000000169066ffffffffffffff191663ffffff008860081b1617171783555f8080808087818080613215565b613450915060803d8111610f5657610f3a8183611f9c565b5050505f6133fc565b87513d84823e3d90fd5b634e487b7160e01b895260118b528989fd5b634e487b7160e01b8a5260118c528a8afd5b6133039193506134a76132fd9160c03d81116108d6576108c28183611f9c565b50505050509391506132f0565b8c513d89823e3d90fd5b50841515613210565b8d809296508195503d83116134f3575b6134e18183611f9c565b81010312611db6578a9251935f613205565b503d6134d7565b8e513d8b823e3d90fd5b9092508981813d831161352c575b61351c8183611f9c565b81010312611db65751915f6131ba565b503d613512565b6001600160401b03819792971161354d578552945f61314d565b5060418692634e487b7160e01b835252fd5b86513d89823e3d90fd5b8680fd5b613576906135b8565b61357f3061371e565b5061311e565b61359b9250803d10610897576108708183611f9c565b5050505096505050505050505f8061310d565b87513d8a823e3d90fd5b60408051633850c7bd60e01b815290916001600160a01b039160c0816004817f000000000000000000000000000000000000000000000000000000000000000087165afa908115612bc4576136269183915f916136fb575b50600454611a59611a4d8260081c60020b613d22565b9190926003549360095490612710918203828111612056578261364c826136539461206a565b049561206a565b0493603c4201804211612056575f9587956001600160801b036136ad9688519561367c87611f00565b865216602085015286840152606083015260808201528351948580948193630624e65f60e11b83526004830161218c565b03927f0000000000000000000000000000000000000000000000000000000000000000165af18015612de9576136e1575050565b816136f792903d10611baa57611b9c8183611f9c565b5050565b613713915060c03d81116108d6576108c28183611f9c565b50505050505f613610565b905f9060035461377a604094859283519061373882611f2f565b81526001600160a01b0391821660208201526001600160801b038482018190526060820152835163fc6f786560e01b81529586938492839190600483016121c9565b03927f0000000000000000000000000000000000000000000000000000000000000000165af1928315613845575f928394613802575b507f49d512bf9cb224241c05691e73eb9fab078cf350c7dbcbcf66788f1fc0cc8b0b90849380956137e38260055461207d565b6005556137f28160065461207d565b60065582519182526020820152a1565b8161383d9295507f49d512bf9cb224241c05691e73eb9fab078cf350c7dbcbcf66788f1fc0cc8b0b94503d8611611baa57611b9c8183611f9c565b9390926137b0565b513d5f823e3d90fd5b6001600160a01b03918216908216039190821161205657565b611e8a926138a59290916001600160a01b0390818316828216116138aa575b61389e90613898838516848316613b6f565b9361384e565b1691613bb3565b613c35565b91613886565b611e8a926138a59290916001600160a01b03916138d89190838116848316116138df5761384e565b1690613a66565b9061384e565b9093906001600160a01b0383811681871611613963575b8181169086811682116139165750505050611e8a92613867565b84929495939516115f146139575782916139349161393a9594613867565b936138b0565b6001600160801b038181169083161015613952575090565b905090565b915050611e8a926138b0565b9492946138fc565b9093925f929091836001600160a01b03808416818916116139d8575b8281169088811682116139a657505050506139a39293946139e0565b91565b9091929495508316115f146139cc5750906139c683611e8a9493836139e0565b94613a32565b94611e8a939250613a32565b969296613987565b611e8a9290916001600160a01b0391613a249183811684861611613a2c575b8380613a0b878461384e565b169116916001600160801b0360601b9060601b16613bb3565b911690611ee2565b936139ff565b611e8a92916001600160801b03916001600160a01b0391613a5e9190838116848316116138df5761384e565b169116613b6f565b908015613b3457600160601b905f19828409928060601b92838086109503948086039514613b275784831115613aef57829109811960018101809111612056578216809204600280826003021880830282030280830282030280830282030280830282030280830282030280920290030293600183805f03040190848311900302920304170290565b60405162461bcd60e51b815260206004820152601060248201526f4c6971416d743a206f766572666c6f7760801b6044820152606490fd5b505090611e8a9250611ee2565b60405162461bcd60e51b81526020600482015260136024820152724c6971416d743a20646976206279207a65726f60681b6044820152606490fd5b5f198282099082810292838084109303928084039314613baa57600160601b9183831115613aef570990828211900360a01b910360601c1790565b50505060601c90565b918015613b34575f198284099282810292838086109503948086039514613b275784831115613aef57829109811960018101809111612056578216809204600280826003021880830282030280830282030280830282030280830282030280830282030280920290030293600183805f03040190848311900302920304170290565b6001600160801b0390818111613c49571690565b60405162461bcd60e51b8152602060048201526013602482015272098d2e282dae87440deeccae4ccd8deee62647606b1b6044820152606490fd5b600291820b910b0390627fffff198212627fffff83131761205657565b9060020b9060020b0190627fffff198212627fffff83131761205657565b60020b908060020b918215611eec57627fffff1981145f19841416612056578280820560020b02908160020b9182036120565781935f82129182613d13575b5050613d0957505090565b611e8a9250613c84565b0760020b151590505f80613cfe565b60020b5f81121561423957600160ff1b811461205657805f035b620d89e881116141f45760018116156141e2576001600160881b036ffffcb933bd6fad37aa2d162d1a5940015b1691600282166141b6575b60049182811661418a575b6008811661415e575b60108116614132575b60208116614106575b604081166140da575b6080908181166140af575b6101008116614084575b6102008116614059575b610400811661402e575b6108008116614003575b6110008116613fd8575b6120008116613fad575b6140008116613f82575b6180008116613f57575b620100008116613f2c575b620200008116613f02575b620400008116613ec6575b6208000016613e8a575b505f12613e67575b5063ffffffff8116613e5c57613e585f915b6001600160a01b039260ff169060201c61207d565b1690565b613e58600191613e43565b8115613e7757505f19045f613e31565b601290634e487b7160e01b5f525260245ffd5b6b048a170391f7dc42444e8fa293919391828102928184041490151715613eb3571c915f613e29565b601183634e487b7160e01b5f525260245ffd5b936d2216e584f5fa1ea926041bedfe9890818102918183041490151715613eef57811c93613e1f565b601184634e487b7160e01b5f525260245ffd5b936e5d6af8dedb81196699c329225ee60490818102918183041490151715613eef57811c93613e14565b936f09aa508b5b7a84e1c677de54f3e99bc990818102918183041490151715613eef57811c93613e09565b936f31be135f97d08fd981231505542fcfa690818102918183041490151715613eef57811c93613dfe565b936f70d869a156d2a1b890bb3df62baf32f790818102918183041490151715613eef57811c93613df4565b936fa9f746462d870fdf8a65dc1f90e061e590818102918183041490151715613eef57811c93613dea565b936fd097f3bdfd2022b8845ad8f792aa582590818102918183041490151715613eef57811c93613de0565b936fe7159475a2c29b7443b29c7fa6e889d990818102918183041490151715613eef57811c93613dd6565b936ff3392b0822b70005940c7a398e4b70f390818102918183041490151715613eef57811c93613dcc565b936ff987a7253ac413176f2b074cf7815e5490818102918183041490151715613eef57811c93613dc2565b936ffcbe86c7900a88aedcffc83b479aa3a490818102918183041490151715613eef57811c93613db8565b936ffe5dee046a99a2a811c461f1969c305390818102918183041490151715613eef57811c93613dae565b926fff2ea16466c96a3843ec78b326b5286190818102918183041490151715613eb35760801c92613da3565b926fff973b41fa98c081472e6896dfb254c090818102918183041490151715613eb35760801c92613d9a565b926fffcb9843d60f6159c9db58835c92664490818102918183041490151715613eb35760801c92613d91565b926fffe5caca7e10e4e61c3624eaa0941cd090818102918183041490151715613eb35760801c92613d88565b926ffff2e50f5f656932ef12357cf3c7fdcc90818102918183041490151715613eb35760801c92613d7f565b916ffff97272373d413259a46990580e213a908181029181830414901517156120565760801c91613d74565b6001600160881b03600160801b613d69565b60405162461bcd60e51b815260206004820152601c60248201527f5469636b4d6174683a207469636b206f7574206f6620626f756e6473000000006044820152606490fd5b80613d3c565b335f9081527f57c45785f0bfdd0436a24ca59ce8cf4a246623230045d7db55b0ff1db74c582260205260409020547f31e0210044b4f6757ce6aa31f9c6e8d4896d24a755014887391a926c5224d9599060ff161561429a5750565b6044906040519063e2517d3f60e01b82523360048301526024820152fd5b335f9081527fad3228b676f7d3cd4284a5443f17f1962b36e491b30a40b2405849e597ba5fb5602052604081205460ff161561429a5750565b335f9081527f3c1b1854ab1360abbb06c8d4c6b2672d4b8cedc5eff522ab19e51d5cb8fdbd4660205260409020547fbf233dd2aafeb4d50879c4aa5c81e96d92f6e6945c906a58f9f2d1c1631b4b269060ff161561429a5750565b335f9081527f0363fc6b1c9d3a5e0ab0c2ddc08deb0f30108829db06e84f370d2858ffe78c4660205260409020547ffc8737ab85eb45125971625a9ebdb75cc78e01d5c1fa80c4c6e5203f47bc4fab9060ff161561429a5750565b805f525f60205260405f20335f5260205260ff60405f2054161561429a5750565b905f9180835282602052604083209160018060a01b03169182845260205260ff604084205416155f1461443f57808352826020526040832082845260205260408320600160ff198254161790557f2f8788117e7eff1d82e926ec794901d17c78024a50270940304540a733656f0d339380a4600190565b505090565b905f9180835282602052604083209160018060a01b03169182845260205260ff6040842054165f1461443f5780835282602052604083208284526020526040832060ff1981541690557ff6391f5c32d9c69d2a47ea670b442974b53935d1edc7fd64eb21e047a839171b339380a4600190565b60405163a9059cbb60e01b5f9081526001600160a01b039384166004526024949094529260209060448180855af160015f5114811615614516575b836040521561450057505050565b635274afe760e01b835216600482015260249150fd5b600181151661452c57813b15153d1516166144f2565b833d5f823e3d90fd5b6040516323b872dd60e01b5f9081526001600160a01b03938416600452938316602452604494909452909160209060648180855af160015f5114811615614589575b836040525f6060521561450057505050565b600181151661452c57813b15153d151616614577565b60405163095ea7b360e01b5f8181526001600160a01b0394851660048190526024879052919591929060209060448180885af160015f51148116156146a0575b81604052156145f1575b505050505050565b60205f878152846004528060245260448180885af160015f5114811615614681575b816040521561466a5750906020915f9160405196835260045260245260448180855af160015f5114811615614654575b8360405215614500578080806145e9565b600181151661452c57813b15153d151616614643565b635274afe760e01b81528385166004820152602490fd5b600181151661469757843b15153d151616614613565b503d5f823e3d90fd5b843b15153d1516166145df565b60ff600154166146b957565b60405163d93c066560e01b8152600490fd5b60ff60015416156146d857565b604051638dfc202b60e01b8152600490fd5b5f8051602061471a83398151915260028154146147075760029055565b604051633ee5aeb560e01b8152600490fdfe9b779b17422d0df92223018b32b4d1fa46e071723d6817e2486d003becc55f00a264697066735822122053939eb3230b11c7768ae5e6d74ee592c712bd8092a596f70f3af9a6bec454ee64736f6c634300081400332f8788117e7eff1d82e926ec794901d17c78024a50270940304540a733656f0d","linkReferences":{}},"methodIdentifiers":{"DEFAULT_ADMIN_ROLE()":"a217fddf","EMERGENCY_ROLE()":"20df4359","KEEPER_ROLE()":"364bc15a","STRATEGY_WIDTHS(uint256)":"9b76e207","VAULT_ROLE()":"98c4f1ac","addLiquidity(uint256,uint256)":"9cd441da","checkCompound(bytes)":"3b98db16","checkUpkeep(bytes)":"6e04ff0d","collectAndCompound()":"e96527fb","collectFees(address)":"a480ca79","currentTickLower()":"f9cb494a","currentTickUpper()":"4b9085d5","fee()":"ddca3f43","getRoleAdmin(bytes32)":"248a9ca3","grantRole(bytes32,address)":"2f2ff15d","hasRole(bytes32,address)":"91d14854","lastRebalanceTimestamp()":"b83d8157","minPoolAgeSecs()":"7e4673cc","onERC721Received(address,address,uint256,bytes)":"150b7a02","pause()":"8456cb59","paused()":"5c975abb","performUpkeep(bytes)":"4585e33b","pool()":"16f0115b","positionActive()":"12aa0daf","positionManager()":"791b98bc","positionTokenId()":"ceefe5d1","rebalance()":"7d7c2a1c","rebalanceCount()":"96bad844","removeLiquidity(uint128,address)":"19fc9b6f","removeLiquidityAsToken0(uint128,address)":"9babddf5","renounceRole(bytes32,address)":"36568abe","rescueTokens(address,address,uint256)":"cea9d26f","revokeRole(bytes32,address)":"d547741f","setMinPoolAgeSecs(uint32)":"fea59bd6","setSlippage(uint256)":"f0fa55a9","setStrategy(uint8)":"955add08","setTwapSeconds(uint32)":"293c5d43","shouldRebalance()":"ae2c1d5f","slippageBps()":"578c71d9","strategy()":"a8c62e76","supportsInterface(bytes4)":"01ffc9a7","swapRouter()":"c31c9c07","tickSpacing()":"d0c93a7c","token0()":"0dfe1681","token1()":"d21220a7","totalFeesCollected0()":"c82cfae6","totalFeesCollected1()":"e90e5ae9","totalValue()":"d4c3eea0","twapSeconds()":"4b85f96c","unpause()":"3f4ba83a"},"id":0}