{"abi":[{"type":"function","name":"exactInput","inputs":[{"name":"params","type":"tuple","internalType":"struct IUniswapV3SwapRouter.ExactInputParams","components":[{"name":"path","type":"bytes","internalType":"bytes"},{"name":"recipient","type":"address","internalType":"address"},{"name":"deadline","type":"uint256","internalType":"uint256"},{"name":"amountIn","type":"uint256","internalType":"uint256"},{"name":"amountOutMinimum","type":"uint256","internalType":"uint256"}]}],"outputs":[{"name":"amountOut","type":"uint256","internalType":"uint256"}],"stateMutability":"payable"},{"type":"function","name":"setRevert","inputs":[{"name":"_shouldRevert","type":"bool","internalType":"bool"}],"outputs":[],"stateMutability":"nonpayable"},{"type":"function","name":"shouldRevert","inputs":[],"outputs":[{"name":"","type":"bool","internalType":"bool"}],"stateMutability":"view"}],"bytecode":{"object":"0x6080806040523461001657610371908161001b8239f35b5f80fdfe6080604052600480361015610012575f80fd5b5f803560e01c9182638fb5f171146101f5578263c04b8d591461004457505063d3072d821461003f575f80fd5b61022f565b60206003199281843601126101f25782359367ffffffffffffffff85116101ee5760a08585019186360301126101ee57815460ff166101ac5761008a8161009192610250565b36916102be565b82810151603790910151604080516323b872dd60e01b81523381880190815230602082015260648901359281018390529097919691938691899190829088908290606001039260601c5af193841561018a576100fc6024889561012f9a899861018f575b5001610327565b6040805163a9059cbb60e01b81526001600160a01b03909216938201938452602084019590955297889485938492910190565b039260601c5af192831561018a576101589361015c575b50506040519081529081906020820190565b0390f35b8161017b92903d10610183575b6101738183610297565b810190610304565b508280610146565b503d610169565b61031c565b6101a590893d8b11610183576101738183610297565b508b6100f5565b62461bcd60e51b6080526020608452601b60a4527f4d6f636b53776170526f757465723a2073776170206661696c6564000000000060c452607f1960e4016080fd5b5080fd5b80fd5b346101ee5760203660031901126101ee573561021081610221565b60ff80198354169115151617815580f35b8015150361022b57565b5f80fd5b3461022b575f36600319011261022b57602060ff5f54166040519015158152f35b903590601e198136030182121561022b570180359067ffffffffffffffff821161022b5760200191813603831361022b57565b634e487b7160e01b5f52604160045260245ffd5b90601f8019910116810190811067ffffffffffffffff8211176102b957604052565b610283565b92919267ffffffffffffffff82116102b957604051916102e8601f8201601f191660200184610297565b82948184528183011161022b578281602093845f960137010152565b9081602091031261022b575161031981610221565b90565b6040513d5f823e3d90fd5b356001600160a01b038116810361022b579056fea2646970667358221220fa6c76c767b2fe299364f69090d9e2c0c27b01a347616e606949ab3a8cd4ab5564736f6c63430008140033","linkReferences":{}},"methodIdentifiers":{"exactInput((bytes,address,uint256,uint256,uint256))":"c04b8d59","setRevert(bool)":"8fb5f171","shouldRevert()":"d3072d82"},"id":52}