{"abi":[{"type":"function","name":"burn","inputs":[{"name":"tokenId","type":"uint256","internalType":"uint256"}],"outputs":[],"stateMutability":"payable"},{"type":"function","name":"burned","inputs":[{"name":"","type":"uint256","internalType":"uint256"}],"outputs":[{"name":"","type":"bool","internalType":"bool"}],"stateMutability":"view"},{"type":"function","name":"collect","inputs":[{"name":"params","type":"tuple","internalType":"struct INonfungiblePositionManager.CollectParams","components":[{"name":"tokenId","type":"uint256","internalType":"uint256"},{"name":"recipient","type":"address","internalType":"address"},{"name":"amount0Max","type":"uint128","internalType":"uint128"},{"name":"amount1Max","type":"uint128","internalType":"uint128"}]}],"outputs":[{"name":"amount0","type":"uint256","internalType":"uint256"},{"name":"amount1","type":"uint256","internalType":"uint256"}],"stateMutability":"payable"},{"type":"function","name":"decreaseLiquidity","inputs":[{"name":"params","type":"tuple","internalType":"struct INonfungiblePositionManager.DecreaseLiquidityParams","components":[{"name":"tokenId","type":"uint256","internalType":"uint256"},{"name":"liquidity","type":"uint128","internalType":"uint128"},{"name":"amount0Min","type":"uint256","internalType":"uint256"},{"name":"amount1Min","type":"uint256","internalType":"uint256"},{"name":"deadline","type":"uint256","internalType":"uint256"}]}],"outputs":[{"name":"amount0","type":"uint256","internalType":"uint256"},{"name":"amount1","type":"uint256","internalType":"uint256"}],"stateMutability":"payable"},{"type":"function","name":"increaseLiquidity","inputs":[{"name":"params","type":"tuple","internalType":"struct INonfungiblePositionManager.IncreaseLiquidityParams","components":[{"name":"tokenId","type":"uint256","internalType":"uint256"},{"name":"amount0Desired","type":"uint256","internalType":"uint256"},{"name":"amount1Desired","type":"uint256","internalType":"uint256"},{"name":"amount0Min","type":"uint256","internalType":"uint256"},{"name":"amount1Min","type":"uint256","internalType":"uint256"},{"name":"deadline","type":"uint256","internalType":"uint256"}]}],"outputs":[{"name":"liquidity","type":"uint128","internalType":"uint128"},{"name":"amount0","type":"uint256","internalType":"uint256"},{"name":"amount1","type":"uint256","internalType":"uint256"}],"stateMutability":"payable"},{"type":"function","name":"mint","inputs":[{"name":"params","type":"tuple","internalType":"struct INonfungiblePositionManager.MintParams","components":[{"name":"token0","type":"address","internalType":"address"},{"name":"token1","type":"address","internalType":"address"},{"name":"fee","type":"uint24","internalType":"uint24"},{"name":"tickLower","type":"int24","internalType":"int24"},{"name":"tickUpper","type":"int24","internalType":"int24"},{"name":"amount0Desired","type":"uint256","internalType":"uint256"},{"name":"amount1Desired","type":"uint256","internalType":"uint256"},{"name":"amount0Min","type":"uint256","internalType":"uint256"},{"name":"amount1Min","type":"uint256","internalType":"uint256"},{"name":"recipient","type":"address","internalType":"address"},{"name":"deadline","type":"uint256","internalType":"uint256"}]}],"outputs":[{"name":"tokenId","type":"uint256","internalType":"uint256"},{"name":"liquidity","type":"uint128","internalType":"uint128"},{"name":"amount0","type":"uint256","internalType":"uint256"},{"name":"amount1","type":"uint256","internalType":"uint256"}],"stateMutability":"payable"},{"type":"function","name":"nextTokenId","inputs":[],"outputs":[{"name":"","type":"uint256","internalType":"uint256"}],"stateMutability":"view"},{"type":"function","name":"posAmount0","inputs":[{"name":"","type":"uint256","internalType":"uint256"}],"outputs":[{"name":"","type":"uint256","internalType":"uint256"}],"stateMutability":"view"},{"type":"function","name":"posAmount1","inputs":[{"name":"","type":"uint256","internalType":"uint256"}],"outputs":[{"name":"","type":"uint256","internalType":"uint256"}],"stateMutability":"view"},{"type":"function","name":"posLiquidity","inputs":[{"name":"","type":"uint256","internalType":"uint256"}],"outputs":[{"name":"","type":"uint128","internalType":"uint128"}],"stateMutability":"view"},{"type":"function","name":"posOwed0","inputs":[{"name":"","type":"uint256","internalType":"uint256"}],"outputs":[{"name":"","type":"uint128","internalType":"uint128"}],"stateMutability":"view"},{"type":"function","name":"posOwed1","inputs":[{"name":"","type":"uint256","internalType":"uint256"}],"outputs":[{"name":"","type":"uint128","internalType":"uint128"}],"stateMutability":"view"},{"type":"function","name":"posTickLower","inputs":[{"name":"","type":"uint256","internalType":"uint256"}],"outputs":[{"name":"","type":"int24","internalType":"int24"}],"stateMutability":"view"},{"type":"function","name":"posTickUpper","inputs":[{"name":"","type":"uint256","internalType":"uint256"}],"outputs":[{"name":"","type":"int24","internalType":"int24"}],"stateMutability":"view"},{"type":"function","name":"posToken0","inputs":[{"name":"","type":"uint256","internalType":"uint256"}],"outputs":[{"name":"","type":"address","internalType":"address"}],"stateMutability":"view"},{"type":"function","name":"posToken1","inputs":[{"name":"","type":"uint256","internalType":"uint256"}],"outputs":[{"name":"","type":"address","internalType":"address"}],"stateMutability":"view"},{"type":"function","name":"positions","inputs":[{"name":"tokenId","type":"uint256","internalType":"uint256"}],"outputs":[{"name":"","type":"uint96","internalType":"uint96"},{"name":"","type":"address","internalType":"address"},{"name":"","type":"address","internalType":"address"},{"name":"","type":"address","internalType":"address"},{"name":"","type":"uint24","internalType":"uint24"},{"name":"","type":"int24","internalType":"int24"},{"name":"","type":"int24","internalType":"int24"},{"name":"","type":"uint128","internalType":"uint128"},{"name":"","type":"uint256","internalType":"uint256"},{"name":"","type":"uint256","internalType":"uint256"},{"name":"","type":"uint128","internalType":"uint128"},{"name":"","type":"uint128","internalType":"uint128"}],"stateMutability":"view"},{"type":"function","name":"seedFees","inputs":[{"name":"tokenId","type":"uint256","internalType":"uint256"},{"name":"fees0","type":"uint128","internalType":"uint128"},{"name":"fees1","type":"uint128","internalType":"uint128"}],"outputs":[],"stateMutability":"nonpayable"},{"type":"event","name":"NFTMinted","inputs":[{"name":"tokenId","type":"uint256","indexed":false,"internalType":"uint256"},{"name":"recipient","type":"address","indexed":false,"internalType":"address"}],"anonymous":false}],"bytecode":{"object":"0x6080806040523461001a5760015f5561178d908161001f8239f35b5f80fdfe604060808152600480361015610013575f80fd5b5f803560e01c80630c49ccbe14610b695780632098cbb914610adf578063219f5d171461092957806323250cae146108fb5780632be56231146108d25780633f3e96261461089e57806340e9f8a71461086c57806342966c68146107e65780634ec637fd146107bb57806350eec8f31461078957806375794a3c1461076857806388316456146105095780638b646fd7146104d757806399fbab881461041c578063b220cc4e146103f0578063cdb38c4d146103bc578063dae886d0146103935763fc6f7865146100e2575f80fd5b608036600319011261039057813581526020600881526001600160801b03928385842054169360098352858420541692600883528581206001600160801b0319908181541690556009845286822090815416905560028352828460018060a01b0387818a8620541691600385528a86205416918115158061030d575b61028f575b505081151580610216575b610182575b50505050508351928352820152f35b6101c4948461018f610d0b565b8b5163a9059cbb60e01b81526001600160a01b0390911692810192835260208301949094529295869384929091839160400190565b03925af190811561020b57506101de575b80828482610173565b6101fd90823d8411610204575b6101f58183610d21565b810190610d57565b505f6101d5565b503d6101eb565b8651903d90823e3d90fd5b5091505086516370a0823160e01b815230848201528481602481855afa908115610285579186918693859161024f575b5082111561016e565b9250509181813d831161027e575b6102678183610d21565b8101031261027a57518491869182610246565b8280fd5b503d61025d565b88513d85823e3d90fd5b6102d5935061029f949294610d0b565b8b5163a9059cbb60e01b81526001600160a01b039091168882019081526020810193909352938492839188918391604090910190565b03925af180156102855791869186936102f0575b8890610163565b61030690843d8611610204576101f58183610d21565b505f6102e9565b50925050915087516370a0823160e01b815230858201528581602481855afa9081156103865787928794928a92879161034a575b5082111561015e565b9395925050925081813d831161037f575b6103658183610d21565b8101031261037b57918787928188955190610341565b8380fd5b503d61035b565b89513d86823e3d90fd5b80fd5b5091903461027a57602036600319011261027a5760209282913581526007845220549051908152f35b5091903461027a57602036600319011261027a5735825260026020908152918190205490516001600160a01b039091168152f35b5091903461027a57602036600319011261027a57602092829135815260058452205460020b9051908152f35b50913461027a576020918260031936011261037b5761018093813581526002845260018060a01b03808483205416906003865284832054169285528382205460020b600586528483205460020b90600187526001600160801b039485878620541693600889528688872054169660098a528887205416978681519a818c528b01528901526060880152610bb8608088015260a087015260c086015260e085015280610100850152610120840152610140830152610160820152f35b5091903461027a57602036600319011261027a57816020936001600160801b0392358152600985522054169051908152f35b508290610160366003190112610390578054915f1983146107555760018301825560a4359060c435926105588484610547610542610cd1565b611209565b610552610542610ce5565b90610d6f565b90858152602090600182526001600160801b03848220931692836001600160801b03198254161790558461058a610cf5565b6002845285832080546001600160a01b03199081166001600160a01b03938416179091559099906105b9610d0b565b90600386528b8886209216908254161790556105d3610cd1565b8185528684209062ffffff19918281541662ffffff9283161790556105f6610ce5565b6005875288862092835416911617905560068452818684205560078452878684205589610621610cf5565b87516323b872dd60e01b808252338583019081523060208201526040810196909652949092879284928390036060019183918991165af1801561074b579285928a926106a69561072e575b50858d610677610d0b565b8b5194855233938501938452306020850152604084019590955292958694939093169284928391606090910190565b03925af1801561072457610707575b506101243597881680980361039057507f0176f203df400d7bd5f1b1c9ef36c16709bf3b5d9fd35f000a6bae32393f66c38360809881519089825284820152a182519586528501528301526060820152f35b61071d90833d8511610204576101f58183610d21565b50886106b5565b85513d84823e3d90fd5b61074490853d8711610204576101f58183610d21565b508d61066c565b87513d86823e3d90fd5b634e487b7160e01b825260118452602482fd5b508234610785578160031936011261078557602091549051908152f35b5080fd5b5091903461027a57602036600319011261027a57816020936001600160801b0392358152600185522054169051908152f35b5091903461027a57602036600319011261027a576020928183923582528452205460020b9051908152f35b509190602036600319011261027a5780359081845260016020526001600160801b03838520541661082957508252600a6020528120805460ff1916600117905580f35b606490602084519162461bcd60e51b8352820152601a60248201527f4d6f636b504d3a206c6971756964697479206e6f74207a65726f0000000000006044820152fd5b5091903461027a57602036600319011261027a57816020936001600160801b0392358152600885522054169051908152f35b5091903461027a57602036600319011261027a5735825260036020908152918190205490516001600160a01b039091168152f35b5091903461027a57602036600319011261027a5760209282913581526006845220549051908152f35b5091903461027a57602036600319011261027a578160209360ff92358152600a855220541690519015158152f35b509160c036600319011261027a5760243590604435918335808652602090858252610974858461095e878b205460020b611209565b848b5260058652610552888c205460020b611209565b9581885260018352848820918254926001600160801b0393846109998b828416611726565b16906001600160801b031916179055808952600684528589206109bd868254610eed565b9055808952600784528589206109d4888254610eed565b905588526002835284882054600384528589205486516323b872dd60e01b80825233858301908152306020820152604081018990526001600160a01b0393841695948d9492939289928492908390036060019183918891165af18015610ad55792610a6f95928895928c95610ab8575b508a519081523392810192835230602084015260408301949094529294859384929091839160600190565b03925af18015610aae5760609850610a91575b50835195168552840152820152f35b610aa790833d8511610204576101f58183610d21565b505f610a82565b85513d8a823e3d90fd5b610ace90873d8911610204576101f58183610d21565b505f610a44565b89513d85823e3d90fd5b5091903461027a57606036600319011261027a57356024356001600160801b03928382168203610b6557604435928484168403610b6157808652600860205281862085610b30825495828716611726565b166001600160801b031980951617905585526009602052842092610b58845493828516611726565b16911617905580f35b8580fd5b8480fd5b509060a036600319011261078557803591828152602090600182526001600160801b0390818682205416948583610b9e611741565b161115610cc35785945b8615968715610ca55783975b15610c7f575082955b828452600186528884209185835492168683160390868211610c6c5750918993918695936001600160801b031997889116911617905580825260068652828220610c08898254610f0d565b905580825260078652828220610c1f888254610f0d565b90558082526008865282822080548686610c3d818d16828516611726565b1691161790558152600985522091825491610c5c818716828516611726565b1691161790558351928352820152f35b634e487b7160e01b865260119052602485fd5b610c9f9083855260078752610c9a8a862054878a1690610efa565b610ecf565b95610bbd565b60068652610cbd81610c9a8b872054888b1690610efa565b97610bb4565b610ccb611741565b94610ba8565b6064358060020b8103610ce15790565b5f80fd5b6084358060020b8103610ce15790565b6004356001600160a01b0381168103610ce15790565b6024356001600160a01b0381168103610ce15790565b90601f8019910116810190811067ffffffffffffffff821117610d4357604052565b634e487b7160e01b5f52604160045260245ffd5b90816020910312610ce157518015158103610ce15790565b92906001600160a01b039081811682861611610e9c575b84821692600160601b90848211610de75750509084610dd2949392610dd79691819484831610610dda575b5050610dcb90610dc5838516848316610f1a565b93610ea2565b1691611161565b6111ba565b90565b93509050610dcb5f610db1565b90949093918381169081871015610e7c5792610e2e610dd2610e40948988819c96610dd29b9a99610e479d91819411610e6f575b50610dcb90610dc5838516848316610f1a565b978281809311610e64575b5050610ea2565b1690610fba565b6001600160801b038181169083161015610e5f575090565b905090565b915091505f80610e39565b8e93509050610dcb610e1b565b610dd29650610e409391925087610dd79893829311610e64575050610ea2565b93610d86565b6001600160a01b039182169082160391908211610ebb57565b634e487b7160e01b5f52601160045260245ffd5b8115610ed9570490565b634e487b7160e01b5f52601260045260245ffd5b91908201809211610ebb57565b81810292918115918404141715610ebb57565b91908203918211610ebb57565b905f198183099181810291828085109403938085039414610fb057600160601b9184831115610f7857099080821192838103938460a01b948504600160a01b1491141715610ebb570360601c1780800460011481151715610ebb5790565b60405162461bcd60e51b815260206004820152601060248201526f4c6971416d743a206f766572666c6f7760801b6044820152606490fd5b5050905060601c90565b9190801561112657600160601b905f19828509938060601b928380871096039580870396146111185785831115610f785782910990801960018101809111610ebb5781168091049161101a5f96600184808a030401908684119003610efa565b9280600302966003880482036110f05760028098186110398184610efa565b890390898211611104579061104d91610efa565b6110578184610efa565b890390898211611104579061106b91610efa565b6110758184610efa565b890390898211611104579061108991610efa565b6110938184610efa565b89039089821161110457906110a791610efa565b6110b18184610efa565b890390898211611104576110cf916110c891610efa565b8093610efa565b88039788116110f05750610dd795966110e791610efa565b93030417610efa565b634e487b7160e01b81526011600452602490fd5b634e487b7160e01b83526011600452602483fd5b505090610dd7929350610ecf565b60405162461bcd60e51b81526020600482015260136024820152724c6971416d743a20646976206279207a65726f60681b6044820152606490fd5b92918015611126575f1982850993828102928380871096039580870396146111185785831115610f785782910990801960018101809111610ebb5781168091049161101a5f96600184808a030401908684119003610efa565b6001600160801b03908181116111ce571690565b60405162461bcd60e51b8152602060048201526013602482015272098d2e282dae87440deeccae4ccd8deee62647606b1b6044820152606490fd5b60020b5f81121561172057600160ff1b8114610ebb57805f035b620d89e881116116db5760018116156116c9576001600160881b036ffffcb933bd6fad37aa2d162d1a5940015b16916002821661169d575b600491828116611671575b60088116611645575b60108116611619575b602081166115ed575b604081166115c1575b608090818116611596575b610100811661156b575b6102008116611540575b6104008116611515575b61080081166114ea575b61100081166114bf575b6120008116611494575b6140008116611469575b618000811661143e575b620100008116611413575b6202000081166113e9575b6204000081166113ad575b6208000016611371575b505f1261134e575b5063ffffffff81166113435761133f5f915b6001600160a01b039260ff169060201c610eed565b1690565b61133f60019161132a565b811561135e57505f19045f611318565b601290634e487b7160e01b5f525260245ffd5b6b048a170391f7dc42444e8fa29391939182810292818404149015171561139a571c915f611310565b601183634e487b7160e01b5f525260245ffd5b936d2216e584f5fa1ea926041bedfe98908181029181830414901517156113d657811c93611306565b601184634e487b7160e01b5f525260245ffd5b936e5d6af8dedb81196699c329225ee604908181029181830414901517156113d657811c936112fb565b936f09aa508b5b7a84e1c677de54f3e99bc9908181029181830414901517156113d657811c936112f0565b936f31be135f97d08fd981231505542fcfa6908181029181830414901517156113d657811c936112e5565b936f70d869a156d2a1b890bb3df62baf32f7908181029181830414901517156113d657811c936112db565b936fa9f746462d870fdf8a65dc1f90e061e5908181029181830414901517156113d657811c936112d1565b936fd097f3bdfd2022b8845ad8f792aa5825908181029181830414901517156113d657811c936112c7565b936fe7159475a2c29b7443b29c7fa6e889d9908181029181830414901517156113d657811c936112bd565b936ff3392b0822b70005940c7a398e4b70f3908181029181830414901517156113d657811c936112b3565b936ff987a7253ac413176f2b074cf7815e54908181029181830414901517156113d657811c936112a9565b936ffcbe86c7900a88aedcffc83b479aa3a4908181029181830414901517156113d657811c9361129f565b936ffe5dee046a99a2a811c461f1969c3053908181029181830414901517156113d657811c93611295565b926fff2ea16466c96a3843ec78b326b528619081810291818304149015171561139a5760801c9261128a565b926fff973b41fa98c081472e6896dfb254c09081810291818304149015171561139a5760801c92611281565b926fffcb9843d60f6159c9db58835c9266449081810291818304149015171561139a5760801c92611278565b926fffe5caca7e10e4e61c3624eaa0941cd09081810291818304149015171561139a5760801c9261126f565b926ffff2e50f5f656932ef12357cf3c7fdcc9081810291818304149015171561139a5760801c92611266565b916ffff97272373d413259a46990580e213a90818102918183041490151715610ebb5760801c9161125b565b6001600160881b03600160801b611250565b60405162461bcd60e51b815260206004820152601c60248201527f5469636b4d6174683a207469636b206f7574206f6620626f756e6473000000006044820152606490fd5b80611223565b9190916001600160801b0380809416911601918211610ebb57565b6024356001600160801b0381168103610ce1579056fea2646970667358221220fc0b95cc38d6bde43eb382a1206b6528fe0fd91e1bdaad2c97be1f1dfcad4f4664736f6c63430008140033","linkReferences":{}},"methodIdentifiers":{"burn(uint256)":"42966c68","burned(uint256)":"23250cae","collect((uint256,address,uint128,uint128))":"fc6f7865","decreaseLiquidity((uint256,uint128,uint256,uint256,uint256))":"0c49ccbe","increaseLiquidity((uint256,uint256,uint256,uint256,uint256,uint256))":"219f5d17","mint((address,address,uint24,int24,int24,uint256,uint256,uint256,uint256,address,uint256))":"88316456","nextTokenId()":"75794a3c","posAmount0(uint256)":"2be56231","posAmount1(uint256)":"dae886d0","posLiquidity(uint256)":"50eec8f3","posOwed0(uint256)":"40e9f8a7","posOwed1(uint256)":"8b646fd7","posTickLower(uint256)":"4ec637fd","posTickUpper(uint256)":"b220cc4e","posToken0(uint256)":"cdb38c4d","posToken1(uint256)":"3f3e9626","positions(uint256)":"99fbab88","seedFees(uint256,uint128,uint128)":"2098cbb9"},"id":46}